:020000040800F2
:10A00000A841001079490108894901086D410108FA
:10A010008B4901088D4901088F49010800000000A3
:10A02000000000000000000000000000ED5F0108DB
:10A030009149010800000000955F0108934901085B
:10A04000875301088B5301088F530108935301086C
:10A05000975301089B530108713901088939010898
:10A06000A1390108B9390108D13901089F53010804
:10A07000A3530108A7530108AB530108AF530108CC
:10A08000B3530108B7530108CD490108BB53010878
:10A09000BF530108C3530108C7530108E939010838
:10A0A000CB530108CF530108D3530108D7530108FC
:10A0B000DB530108C1490108C7490108DF53010802
:10A0C000E3530108E7530108EB530108EF5301087C
:10A0D000F3530108974901089D490108A349010864
:10A0E000453A0108A9490108F7530108FB53010843
:10A0F000FF53010803540108075401080B540108D9
:10A100000F5401081354010817540108AF490108FE
:10A11000B5490108BB4901081B5401081F54010837
:10A1200023540108275401082B5401082F54010817
:10A1300033540108375401083B5401083F540108C7
:10A1400043540108475401084B5401080000000023
:10A150004F54010853540108575401085B54010837
:10A160005F54010863540108675401086B540108E7
:10A170006F54010873540108000000000000000043
:10A18000775401087B5401085B48002138B55B4CCB
:10A1900000F092F886B0204600F0F0F810B15A2195
:10A1A00000F060F8564900F077F810B1672100F030
:10A1B00059F807B030BD0000F8B5044686B02068F5
:10A1C000DFF8341155A54F4E4F4F884216D1F86B2A
:10A1D00040F04050F863002300F036F8022100F010
:10A1E0002AF8039301A9304600F068FD7F21434817
:10A1F00000F0EEFE10B1882100F034F820684349E9
:10A20000884216D1F86B40F04050F86300F01CF81B
:10A21000012100F010F800210391304601A900F05F
:10A220004DFD7F213A4800F0D3FE10B1A52100F08A
:10A2300019F807B0F0BD3A6802F4005200920B2200
:10A240000098019102927047396841F00401396029
:10A25000386800F0040000900098396841F400511B
:10A2600039607047284600F0DDBF2848002138B526
:10A27000274C00F021F886B0204600F07FF810B19E
:10A28000C521FFF7EFFF234900F006F810B1D221F6
:10A29000FFF7E8FF07B030BD0091012201920621CF
:10A2A00002917F22039204210491002205926946C3
:10A2B000204600F0A1BA000018A520606160E160AE
:10A2C0002161A1610420606101212162A16200205D
:10A2D0000022E0616062E062206360634FF48051BD
:10A2E000A260A163E263704780B500F03DF90A49BE
:10A2F000088001BD0000000000000450D40B0020C5
:10A3000004006008000800484C100240000104509E
:10A310003C0C00200200300420110020443A5C670D
:10A3200069745C4A442D544F5543485C5372635CD6
:10A330006164632E63000000603000EB8100006800
:10A3400000F0F8407047603000EB8100016821F0B8
:10A3500000410A4302607047CB0D10B5143003F082
:10A3600004031818090D01F01F01036807248C402D
:10A37000A34302FA01F11943016010BD7CB5002628
:10A38000044600960CB9012076BD04F154056868B6
:10A3900020B92046FFF710FFAE602E702168886854
:10A3A000800004D58A68DFF8B40102408A60216821
:10A3B0008868C0000AD48A68DFF8A401DFF8A431F5
:10A3C000024042F080528A6000F029FC20688168D7
:10A3D000C90008D46A6842F010026A600126A968C0
:10A3E00041F00101A9606968CA0601D48168490782
:10A3F00000F1A0806A6822F4807242F002026A6072
:10A40000816801F00301012902D10168CA0735D42E
:10A4100000F09CF80AD100F094F802D11068C2074D
:10A420002CD400F0EDFB1FD108681AE09042986828
:10A4300000F003000BD1012802D11868C3071DD416
:10A4400000F0DEFB08BF086804D0002004E001280B
:10A4500003D1186800F0010080B900F072F803D150
:10A46000106800F0010000E0002038B9DFF8541354
:10A470000A68606822F47C1202430A60E069A26BF9
:10A48000E168636A42EA4032A0680A430243012B52
:10A4900042EA034203D1A06A401E42EA4042E06A17
:10A4A00020B1216B00F47070084302432168DFF88B
:10A4B0001803CB6803401A43CA602168886810F00B
:10A4C0000C0F22D1CA68DFF80403A3690240606B55
:10A4D00042EA833242EA4002CA60E06B01280FD1AF
:10A4E00022681369216C606C6FF38A030B43A16CC3
:10A4F0000343E06C0B43034343F00103136104E0A7
:10A500002068016949084900016120690128206823
:10A51000016B05D1226A0909521E42EA011101E0CC
:10A52000090909010163686820F0020040F0010098
:10A53000686004E0686840F01000686001263046FA
:10A5400076BD906800F0030001287047DFF8803284
:10A55000DFF88012DFF8282698427047C0FFFF5FBF
:10A56000C0FFFF7F80841E000068006C70472DE9EB
:10A57000F0470546286806684768B0070ED5B90752
:10A580000CD5A86DC10603D4A86D40F40060A86581
:10A59000284600F05FFE2968022008607007DFF897
:10A5A000E485884CDFF82CA2DFF8249201D57907E6
:10A5B00003D4300743D5390741D5A86DC10603D46C
:10A5C000A86D40F40070A8652868C16811F4406F58
:10A5D0002FD1484518BF50450DD0216811F01F0FED
:10A5E0001EBF216801F01F0105291EBF216801F06F
:10A5F0001F01092901D1C16801E0D8F800108904C0
:10A6000017D40268110714D5816849070FD442682E
:10A6100022F00C024260A86D20F48070A865A86D3D
:10A62000C10406D4A86D40F00100A86501E000F067
:10A63000D3F82846FFF758FE29680C200860B006BA
:10A6400001D5B90603D470064BD5790649D5A86D56
:10A65000C10603D4A86D40F40050A8652868484599
:10A6600018BF50450DD0216811F01F0F1EBF216883
:10A6700001F01F0106291EBF216801F01F010729F3
:10A6800001D1C16801E0D8F80010C26C12F0C00F0F
:10A6900007D08A011FD4C36813F4406F1BD18A040A
:10A6A00019D40268520616D5890214D481680907A4
:10A6B0000FD4426822F060024260A86D20F48050FE
:10A6C000A865A86DC10506D4A86D40F00100A86575
:10A6D00001E000F081F8284600F0BEFC2968602007
:10A6E000086030060BD5390609D5A86D40F48030D6
:10A6F000A865284600F0AFFD296880200860F005B5
:10A700000CD5F9050AD5A86D40F40030A865284697
:10A7100000F0A2FD29684FF480700860B0050CD5E8
:10A72000B9050AD5A86D40F48020A865284600F038
:10A7300094FD29684FF400700860F00625D5F906ED
:10A7400023D5A86B98B1286848451CBFDFF83014A2
:10A75000884231D1226812F01F0F2DD000F045F849
:10A760001EBF206800F44040B0F5404F0AD1A86DEC
:10A7700040F48060A865E86D40F00200E865284676
:10A7800000F06CFD296810200860700512D579056D
:10A7900010D5A86D40F48040A8654FF48061E86D45
:10A7A00040F00800E865286801602846BDE8F047E9
:10A7B00000F055BDBDE8F087C068C107D7D4E1E718
:10A7C000000000000803045007C0F0FFFDBFFFFFBA
:10A7D0000000045000020450A86D40F01000A8656D
:10A7E000E86D40F00100E8657047206800F44040E3
:10A7F000B0F5004F704700002DE9F84306464FF0D2
:10A80000000906F154050F46CDF80090297801297A
:10A8100008BF022000F0B1810120287031688868EB
:10A82000400700F1A1817868062812D2801E032813
:10A830000DD8DFE800F0020406080C2008E0122121
:10A8400003E0182004E04FF48071796001E00620F5
:10A8500078607968326838688B09303203F00C030D
:10A860009A1801F01F0114681F238B40C0F3846005
:10A8700024EA030300FA01F119431160306881688A
:10A8800011F00C0F1DD1BA683968FFF765FD30680B
:10A89000C1683A69042A15D0603000EB82043B6835
:10A8A0002268DFF8EC03024003F0F8431343C908C1
:10A8B0007A69480000F006008240134343F00043E9
:10A8C00023607AE00021FFF737FD400330684946F6
:10A8D00004D1FFF731FDC0F3846003E0FFF72CFDE6
:10A8E00000F059F939684A030FBFC1F3846191FA46
:10A8F000A1F1B1FA81F1C9B2884204D130680022D5
:10A900000021FFF720FD00F054F9400304D100F0CE
:10A9100050F9C0F3846003E000F04BF900F03BF91C
:10A9200039684A030FBFC1F3846191FAA1F1B1FA0A
:10A9300081F1C9B2884204D1306800220121FFF7B9
:10A9400002FD00F032F9400304D100F02EF9C0F30B
:10A95000846003E000F029F900F01DF939684A032A
:10A960000FBFC1F3846191FAA1F1B1FA81F1C9B2CB
:10A97000884204D1306800220221FFF7E4FC00F095
:10A9800010F9400304D100F00CF9C0F3846003E037
:10A9900000F007F900F0FFF839684A030FBFC1F370
:10A9A000846191FAA1F1B1FA81F1C9B2884204D16E
:10A9B000306800220321FFF7C6FC316800F020F95F
:10A9C00003D10868C20700F1D580FA683B68D1F866
:10A9D000B040C3F3120024EA0000DFF8B84202F0EE
:10A9E000200204FA02F21A40C2F312020243C1F832
:10A9F000B020F868DFF8A01288421ED13868410301
:10AA00000FBFC0F3846290FAA0F1B1FA81F2D2B222
:10AA10000121521C0A2A05D200F0D7F8401C00F090
:10AA2000B3F806E000F0D1F8093800F0ADF841F0D5
:10AA30000071BA683068FFF78FFC3968DFF85CC2D4
:10AA4000DFF85C22DFF85C32DFF85C72614502D12E
:10AA50003868000203E0994203D13868C0016DD420
:10AA600004E0914253D13868400267D43668B06838
:10AA700000F00300012802D13068C00774D4DFF869
:10AA80002C82DFF82CE23E4C464510D1A06800F045
:10AA90000300012802D12068C40765D4DEF808004D
:10AAA00000F0030001282AD1DEF8000024E0D8F8E5
:10AAB0000800A64200F0030010D1012803D1D8F805
:10AAC0000000C00750D4DEF8080000F003000128A1
:10AAD00008BFDEF8000005D0002005E0012805D100
:10AAE000D8F8000000F0010000283DD1A06800F077
:10AAF0000300012803D1206800F0010000E00020DD
:10AB0000002831D161451AD1464518BF764531D16B
:10AB100000F053F840F40000DFF89811DFF89831A6
:10AB2000386078200A68B2FBF3F34343009300983F
:10AB300000281EBF0098401E0090F8D11AE09942EC
:10AB400008D1464518BF764514D100F036F840F0DC
:10AB5000807007E0914208BF46450BD100F02DF808
:10AB600040F48000386005E0686840F020006860CC
:10AB70004FF00109002028704846BDE8F28300002C
:10AB8000000104500C00045041EA836100EB4000D6
:10AB900041EA0051704790FAA0F0B0FA80F0C0B2DC
:10ABA000704730680321FFF7C7BB30680221FFF709
:10ABB000C3BB30680121FFF7BFBB3868396821F09B
:10ABC000E07100F0E07008437047420304D1C0F325
:10ABD0008462134610460EE090FAA0F2B2FA82F3B5
:10ABE00090FAA0F290FAA0F0B2FA82F2B0FA80F0F5
:10ABF000DBB2D2B2C0B2521C5B1C914070472168DC
:10AC0000886800F0030001287047A06D40F0100034
:10AC1000A065E06D40F00100E065012070470A206A
:10AC200024490A68B2FBF3F34343009302E000981F
:10AC3000401E009000980028F9D1704738B50446AE
:10AC4000FFF7DDFF1FD10868C2071CD5886800F038
:10AC50000D00012814D18A680C48024042F002021B
:10AC60008A6003212068016000F0FAFA0546216835
:10AC70008868C10707D500F0F3FA401B0328F6D314
:10AC8000FFF7C3FF32BD002032BD0000C0FFFF7FD1
:10AC900000F0FF03FFFF070000007F40000052C7E5
:10ACA00001000080000084CB080304500000045021
:10ACB000000204503C04002080841E002DE9F84767
:10ACC0000026BA4A0F230446884632E0B84DAC420B
:10ACD00014BF072506258D4045EA0E054CF8275080
:10ACE000C743B4490D6800F0CFF8ED0348BF40EA10
:10ACF0000C0CC1F800C04D6800F0C6F8AD0348BFA9
:10AD000040EA0C0CC1F804C08D6800F0BDF8ED02FB
:10AD100048BF40EA0C0CC1F808C0CD6807EA050C32
:10AD2000D8F80470BD0248BF40EA0C0CC1F80CC052
:10AD3000761CD8F8001031FA06F000F0A380012745
:10AD4000B74017EA0100F3D0D8F80450B100022D43
:10AD500018BF122D12D1F50804EB850C01F01C056B
:10AD6000DCF820E0D8F810A003FA05F92EEA090E65
:10AD70000AFA05F545EA0E05CCF820504FEA460CD4
:10AD80004FF0030E256898F804900EFA0CFE6FEA57
:10AD90000E0E09F003090EEA050509FA0CF949EA55
:10ADA00005052560FF43D8F80450012D18BF022D7A
:10ADB00003D0112D18BF122D14D1A568D8F80C900E
:10ADC0000EEA050509FA0CF949EA0505A56065686A
:10ADD000D8F80490C9F300193D4009FA06F949EA88
:10ADE00005056560D8F8045005F00309B9F1030FB3
:10ADF00008D1D4F82C90C5F3C00507EA0907B5407F
:10AE00002F43E762E7680EEA0705D8F8087007FAEB
:10AE10000CF73D43E560D8F80450EF0088D515687D
:10AE2000DFF894C145F00105156001F00C011768C9
:10AE300007F00107009703FA01FE009FB7085CF8CE
:10AE4000275025EA0E0EB4F1904F08BF002518D008
:10AE50005A4DAC4208BF012513D0594DAC4208BF32
:10AE600002250ED0574DAC4208BF032509D0564DE0
:10AE7000AC4208BF042504D0544DAC427FF426AF49
:10AE8000052528E7BDE8F18707EA050CD8F8045046
:10AE900070472DE9F04702460025464BDFF8188140
:10AEA0001BE0434CA24214BF07240624BC40A64525
:10AEB00012D158F82C7027EA060648F82C60C043D7
:10AEC0001E6806401E605F6807405F609E6806401F
:10AED0009E60DF683840D8606D1C31FA05F057D0AD
:10AEE000012000FA05FC1CEA0100F5D003266C00E5
:10AEF000176806FA04FE4EEA07071760EC0802EB33
:10AF00008404AF000F26D4F8209007F01C0A06FA3C
:10AF10000AFA29EA0A09C4F820906FEA0E0E94682A
:10AF20000EEA040494606FEA0C0C54680CEA040402
:10AF3000546007F00C07D4680EEA0404D460BE40E5
:10AF4000D46A0CEA0404D4624FEA950C58F82C40F9
:10AF500006EA040EB2F1904F08BF0024A6D0174CA9
:10AF6000A24208BF0124A1D0154CA24208BF02246E
:10AF70009CD0144CA24208BF032497D0124CA2428A
:10AF800008BF042492D0114CA2428AD105248DE737
:10AF9000BDE8F0870069084018BF0120C0B27047C3
:10AFA0000AB1816170478162704700006010024001
:10AFB0000018004800040140080001400004004857
:10AFC00000080048000C0048001000480014004829
:10AFD00070B5044604F154050E462878012801D1C5
:10AFE000022070BD0120287000F033F8010068686D
:10AFF00021D120F4885040F0020068602068826807
:10B0000022F08042164386602068826842F0004247
:10B0100082604FF47A4022689368002B12D5401E5C
:10B02000F9D1686820F0020040F01000686000204C
:10B030002870012070BD40F010006860002028706A
:10B04000084670BD6A6822F0020242F001026A609E
:10B05000F4E72046FFF7F2BD70470268531C036017
:10B060001170704710B500BF0FF2CC120FF2C01173
:10B070000FF2B41072A400F0FFF800F01DFD00F014
:10B0800024F800F033FD00F0C5FD00F0AFFE00F045
:10B0900075FF00F080FF00F09FFF00F0ADFF00F0B3
:10B0A000CFFF00F0D4FEFFF76FF8FFF7DEF801F0F6
:10B0B00083F901F091F901F06BFA204601F0BAFA38
:10B0C0004FF4967001F03FFBF7E7012200B55248BC
:10B0D000B7B0016821F01801016028924FF4803167
:10B0E00027912B92032102223092319101221421C7
:10B0F000329233910D20269007220221349235910D
:10B10000369126A801F0C0FB00B1FEE70F200090A9
:10B11000032100220191029203920492684601F0F9
:10B12000AEFD00B1FEE74FF08052229200210322D3
:10B130001391149115911691179106924FF4807105
:10B140001022259108920121022207910A920B9266
:10B150000721324805904FF0807209910C9205A8A2
:10B1600001F0F4FE00B1FEE74FF4007002F074F954
:10B1700000B1FEE701F07FFE4FF47A71B0FBF1F011
:10B1800002F0E7F9042002F0F8F900220F214FF055
:10B19000FF3002F0B3F937B000BD10B5204CE0B17C
:10B1A000062002F0C8F9072002F0C5F9082002F0D5
:10B1B000C2F9092002F0BFF90A2002F0BCF91720F9
:10B1C00002F0B9F9282002F0B6F9292002F0B3F90B
:10B1D0001D2002F0B0F907201BE0062002F0B0F9B4
:10B1E000072002F0ADF9082002F0AAF9092002F0C8
:10B1F000A7F90A2002F0A4F9172002F0A1F92820EB
:10B2000002F09EF9292002F09BF91D2002F098F926
:10B210000020206010BD0000901002401F4002007E
:10B2200010E000E0FEE700007365656400000000C8
:10B2300056312E302E31000056322E302E32000084
:10B240004920414D204652454520434F44450D0A73
:10B2500000000000704770477047704770477047A4
:10B2600001480068704700BF14110020EFF3098007
:10B27000704700006846704770B50D461646DFF807
:10B2800060460146202204F1140002F091F92022C8
:10B29000294604F1340002F08BF92022314604F1F2
:10B2A000540002F085F9DFF83C06DFF83C166060D8
:10B2B000081AA060DFF83416DFF83406E060081AD8
:10B2C00020610120207070BD80B5DFF8140600F108
:10B2D000540300F1340200F11401DFF8180601F004
:10B2E000A9F9BDE8024080A001F0A4B970B50D0035
:10B2F00014467DA60FF210700FF2F06207D10FF224
:10B30000287101F097F9304601F094F9FEE73CB955
:10B310000FF2207101F08EF9304601F08BF9FEE753
:10B3200002F086FC286002F087FC8000206070BD7F
:10B3300002F086BC2DE9F0410746CE19DFF8A015D2
:10B340008878154668A490B1C8780028294614BFAB
:10B350000FF2D4500FF2EC5001F06CF900F0DEFA6D
:10B36000BD4238BF3D4602D3AE4238BF3546DFF856
:10B3700088750FF2C868384601F05CF900F0CEFA23
:10B3800007E02A682946404601F054F900F0C6FA61
:10B390002D1DB542F5D307F1280001F04BF92046E9
:10B3A000BDE8F04101F046B92DE9FC47DFF8306512
:10B3B0000546706800908846B068019091467078A4
:10B3C00000270024B8B1B07890B9DFF83005816962
:10B3D000296001274169F268091F914221BF306944
:10B3E00082188A42B8F1020F02D369600227012451
:10B3F000F07860B106E0FFF73DFF8246FFF736FFC9
:10B40000824504D101AA69464846FFF76FFFB0782C
:10B4100020B30098814538BF81461FD3014601986B
:10B42000411849451AD2894618E0D9F80000F16858
:10B43000001F884222BF3269511881420CD3102F5D
:10B4400038BF474508D2022F03D114B1696888423A
:10B4500002D045F827007F1C09F1040900980199E2
:10B4600008188145E1D33846BDE8F6872DE9F04359
:10B4700091B00446DFF8888401A84146402202F0DA
:10B4800047FC2246102101A8FFF78EFF0446002545
:10B49000DFF870640FF2C0590CE001A905EBC5009C
:10B4A00051F8252037184946384602F03DFC202047
:10B4B00038726D1CA542F0D30FF22C095CB10096D6
:10B4C00004EBC4030FF29852DFF83C1408F140007B
:10B4D00001F0B0F803E00FF2884001F0ABF800F0A3
:10B4E00020FA11B0BDE8F0830D0A000070B5DFF856
:10B4F0001C44DFF81C64606987A5C0F3400020B1DC
:10B50000304601F097F800F009F96069C0F38070E7
:10B51000002800F0C680207800283CD0C00705D560
:10B5200006F1240001F086F800F0F8F82078C0F366
:10B53000400028B106F15C0001F07CF800F0EEF864
:10B540002078C0F3C00028B106F1980001F072F82D
:10B5500000F0E4F82078C0F3001028B106F1D00024
:10B5600001F068F800F0DAF82078C0F3401028B154
:10B5700006F5847001F05EF800F0D0F82178C80973
:10B5800018BF11F0030F06D061680FF2244001F0DC
:10B5900051F800F0C3F8207A002845D0C00705D53F
:10B5A00006F5A07001F046F800F0B8F8207AC0F374
:10B5B000400028B106F5B27001F03CF800F0AEF89A
:10B5C000207AC0F3800028B106F5C67001F032F889
:10B5D00000F0A4F8207AC0F3C00028B106F5DC70B2
:10B5E00001F028F800F09AF8207AC0F3001028B192
:10B5F00006F5EE7001F01EF800F090F8207AC0F326
:10B60000401028B106F5007001F014F800F086F83B
:10B61000207A010608D5800706D5E1680FF2B03020
:10B6200001F008F800F07AF8208A002839D0C00725
:10B6300005D506F50C7000F0FDFF00F06FF8208ACC
:10B64000C0F3400028B106F5167000F0F3FF00F0DB
:10B6500065F8208AC0F3800028B106F5207000F05C
:10B66000E9FF00F05BF8208AC0F3C00028B106F5BE
:10B670002A7000F0DFFF00F051F8208AC0F30020AC
:10B6800028B106F5357000F0D5FF00F047F8208AA4
:10B69000C0F3402028B106F53F7000F0CBFF00F06A
:10B6A0003DF86069C00F1CBFA069002832D0C007F8
:10B6B00005D506F5497000F0BDFF00F02FF8A06930
:10B6C000C0F3400028B106F5527000F0B3FF00F05F
:10B6D00025F8A069C0F3800028B106F55B7000F082
:10B6E000A9FF00F01BF8A069C0F3C00028B106F55F
:10B6F000647000F09FFF00F011F8A069C0F3001023
:10B7000040B106F56D7000F095FF2846BDE8704029
:10B7100000F090BF70BD00000D0A0000284600F048
:10B7200089BF00002DE9F04F8DB00FF26C326C4CE8
:10B7300097685368D2F800B00FF2343A0B970C9325
:10B7400088461769D36809970A93454697695369EC
:10B75000079708930FF28019D76962680592A3686A
:10B7600006932278A8A342B94FEA0A02BEA118465E
:10B7700000F060FF00F0D5F8FEE7617839B152467D
:10B78000C0A1184600F056FF00F0CBF8FEE70646D1
:10B790000120607051A000F04DFF00F0C2F8FFF7EB
:10B7A00093FDB00810F00100E07015D0FFF7C0FD68
:10B7B00010B1FFF7BDFD00E0B5A001466DA000F09F
:10B7C00039FF00F0AEF8FFF751FD06AA05A90546BE
:10B7D000FFF78CFDA84604E06DA000F02BFF00F001
:10B7E000A0F808F12008F0060598444E58BF08F16B
:10B7F0004808804521BF01460698411841453CBF95
:10B800000121A170069905984246FFF793FDA078A3
:10B81000002841D13F4C00F081F800F082F82A68FE
:10B82000326068687060A968B160EB68F360D5F851
:10B8300010C0C6F810C0D5F814E0C6F814E0D5F86A
:10B8400018C0C6F818C0ED69F56104930291009024
:10B8500004F140000A9B0B990393019159460C9BFC
:10B8600000F0E8FE00F05DF8F06904900397B1691C
:10B870000798089B0291019004F1400071690091C2
:10B880003269099900F0D6FE00F04BF804F16C0023
:10B8900000F0D0FE00F045F81F480168316206F163
:10B8A000240102790A7003694B6042790A72436984
:10B8B000CB60C2880A8283684B6182898A61008B6F
:10B8C000C861FFF713FE4046FFF7D0FD504600F079
:10B8D0006BFF0DB0BDE8F08F0D0A00000000000006
:10B8E000600B0020A8310010A8410010A0540108EE
:10B8F00088A10008446201086C610108CC0E002098
:10B900003C600108D8070020740B0020F00E0020D6
:10B91000A0540108985D010824ED00E0204600F0E5
:10B9200089BE484600F086BEB4EDCEF3A3BACFDFA1
:10B93000B3CCD5BB282530387829B7A2C9FAD2E7CD
:10B94000B3F60000B4EDCEF3A3BAD6F7D5BB2825E5
:10B9500030387829B7A2C9FAD2E7B3F60000000060
:10B96000BBF1C8A1BAAFCAFDB5F7D3C3D5BBCAA74F
:10B97000B0DC0000D4DACFDFB3CC28257329D6D0D1
:10B98000B7A2C9FAB4EDCEF3D2ECB3A30000000025
:10B99000D4DAD6D0B6CFBBF2C2E3BBFABBB7BEB3E4
:10B9A000CFC2B7A2C9FAB4EDCEF3D2ECB3A3000074
:10B9B000B7A2C9FAB4E6B4A2C6F7B9DCC0EDB4EDDB
:10B9C000CEF3B5C4B5D8D6B7A3BA253038780000C1
:10B9D000B7A2C9FAD7DCCFDFB4EDCEF3B5C4B5D882
:10B9E000D6B7A3BA25303878000000006765745FC9
:10B9F0006375725F7468726561645F737461636BB1
:10BA00005F696E666F0000002825732920686173E6
:10BA100020617373657274206661696C656420616E
:10BA2000742025732E00000073746172745F61646A
:10BA30006472000073697A65000000002020616470
:10BA400064723A20253038782020202064617461A7
:10BA50003A202530387800002530386C7800000016
:10BA60002E6F757400000000696E69745F6F6B0063
:10BA7000636D5F6261636B74726163655F6661755C
:10BA80006C740000216F6E5F6661756C740000005D
:10BA90004E4F5F4E414D4500DC630108E0630108F5
:10BAA000E4630108E8630108EC630108F06301083E
:10BAB000F4630108F863010880B5032001F011FD6B
:10BAC0000F2002F051F902F063F9002002BDB1F538
:10BAD000807F02D34FF0FF30704701700120704724
:10BAE0000078401E8041C043C00F70472DE9F041EF
:10BAF0004148424CDFF8088186B0016841F00401FA
:10BB0000016042F6C557026802F00402059241F254
:10BB100010050599026842F08002026041F64776FE
:10BB2000036803F0800305930599026842F001025F
:10BB30000260036803F0010305930599026842F06F
:10BB400002020260036803F002030593059902688C
:10BB500042F0080202600022006800F00800059030
:10BB60003946059B2046FFF71BFA002229464FF075
:10BB70009040FFF715FA002231464046FFF710FAD1
:10BB8000009701210191002202920392694620460A
:10BB9000FFF794F800F038F8009569464FF09040B0
:10BBA000FFF78CF800F030F8009669464046FFF742
:10BBB00085F842F208200021009001910291204670
:10BBC0006946FFF77BF84FF409400021009002918D
:10BBD00069460C4C01944FF09040FFF76FF88021BC
:10BBE000009101940021029140466946FFF766F8F2
:10BBF00006B0BDE8F08100004C100240000800488B
:10BC0000000400480000111001200190002202925F
:10BC1000039270476B4870B56B4C00BF6CA52060F9
:10BC20000021FF207F22E0606160A26021616161EC
:10BC3000A161E16190B0204602F0F0F810B14E2110
:10BC400000F057F80021204602F0B9FB43F2F2263B
:10BC5000B0422BD00E2017218DF82C008DF82D101E
:10BC600000228DF82E200E920F920BA9204602F092
:10BC70002CF910B15B2100F03CF801218DF8001087
:10BC8000112217218DF801208DF802108DF8032064
:10BC900069460022204602F093F910B1652100F0B8
:10BCA00028F832460021204602F082FB1E210022A5
:10BCB0008DF805108DF80620049200214FF0004207
:10BCC00002910591069207910891172001214FF4E6
:10BCD00080728DF804008DF824100A9201A90022C8
:10BCE000204602F0FFF910B1792100F002F810B0FF
:10BCF00070BD2846FFF796BA00683249884204D1E1
:10BD00003248026842F400420260704738B586B09B
:10BD100004462D4D002201A9284602F033F90022E5
:10BD20006946284602F0ABF99DF8030020709DF8A3
:10BD3000011061709DF80200A0709DF80410E17080
:10BD40009DF8050020719DF8060060719DF80010B7
:10BD5000A17107B030BD00002DE9F04186B00D465D
:10BD60000C998DF8051004460D98164600218DF8A3
:10BD70000600049100228DF8043005920DF10401B3
:10BD8000DFF8448012A7404602F09FF818B1C621A0
:10BD90003846FFF747FA0E988DF800008DF80150ED
:10BDA0008DF802608DF8034000226946404602F09B
:10BDB00007F918B1D0213846FFF734FA06B0BDE8CC
:10BDC000F081000000280040C80F002090100240C1
:10BDD000443A5C6769745C4A442D544F5543485C4F
:10BDE0005372635C7274632E6300000080B5554823
:10BDF000554900F03DF80821C16100230721C162C7
:10BE00004FF4007208218360036143618261036221
:10BE1000436283620363416302F0D8FA18B1BDE85C
:10BE20000440532100E001BD4DA0FFF7FBB90261C2
:10BE3000C16100234FF400720721836082610362B5
:10BE400043628362C1620363436302F0BFBA80B599
:10BE50003F48404900F00CF80121416102221821BD
:10BE6000FFF7E5FF18B1BDE804409821DCE701BD0C
:10BE700001604FF482724FF4E061C160426070472C
:10BE800080B586B000F059F816D1916841F4805120
:10BE90009160E021906800F480500590022205989E
:10BEA0000091019200210291032205210491039245
:10BEB00069464FF0904013E000F03BF813D1116851
:10BEC00041F4804111600223126802F4804205921D
:10BED0004FF4604200F026F805220393049269466D
:10BEE000FEF7ECFE1CE01B4B994219D1116841F49E
:10BEF000004111600223126802F4004205923822C8
:10BF000000F010F80622039304926946FEF7D6FE6D
:10BF100000220521332001F0F1FA332001F00BFB60
:10BF200007B000BD059900920193002202920323FD
:10BF30007047064B08489942704701680248074A13
:10BF400081427047A40C00200030014000380040BE
:10BF50006C0D0020003C00400004004858100240D6
:10BF6000443A5C6769745C4A442D544F5543485CBD
:10BF70005372635C7370692E6300000080B5DFF854
:10BF8000B003DFF8B01300F013F818B1BDE80440B7
:10BF900052211DE001BD80B5DFF89C03DFF89C1342
:10BFA00000F006F818B1BDE80440662110E001BDBC
:10BFB00001604FF4E13200230C2142608360C360D2
:10BFC000036141618361C3610362436202F064BE45
:10BFD0000FF2C830FFF726B980B5DFF86403DFF849
:10BFE000641301604FF4612200F016F818B1BDE847
:10BFF00004407D21ECE701BD80B5DFF84C03DFF89C
:10C000004C1301604FF4E13200F006F818B1BDE8BE
:10C0100004409421DCE701BD0C21416142603021E4
:10C02000416200234FF480524FF400518360C3609B
:10C0300003618361C36103628263C16302F02CBE4A
:10C0400080B5C348C349FFF7B3FF18B1BDE804404A
:10C05000A921BDE701BD80B586B000F0E4F815D197
:10C06000116841F4002111600321106800F40020E0
:10C0700000F07FF808210491039269464FF0904048
:10C08000FEF71CFE00F075F9342026E000F0C7F83A
:10C0900026D1116841F4801111600223126802F464
:10C0A000801205924FF4805200F05CF8082203934E
:10C0B00004926946FEF702FE0221019101220292DA
:10C0C0000420032100900391082204926946A248AB
:10C0D000FEF7F4FD00F048F9352001F02CFA3FE0BE
:10C0E000984B99420DD1906840F4804090604FF495
:10C0F000C061906800F4804000F03BF80721049193
:10C1000014E0924B994216D1106840F40030106050
:10C11000116801F4003105910C210598009102226B
:10C1200001210291019207210491032203926946A1
:10C130004FF0904012E0874B994211D1116841F4C1
:10C14000802111600223126802F4802205923022BD
:10C1500000F008F80722039304926946FEF7AEFD4B
:10C1600007B000BD059900920193012202920323BA
:10C1700070470590022205980091019201210291D9
:10C180000322704780B500F04EF80AD1116821F4FF
:10C19000002111604FF090400321FEF77AFE342019
:10C1A00038E000F03CF80DD1116821F480111160E5
:10C1B0004FF48051FEF76DFE04216748FEF769FEDB
:10C1C000352027E05F4B99420BD1906820F48040E6
:10C1D00090604FF4C0614FF09040FEF75AFE25206A
:10C1E00018E05A4B99420AD1106820F400301060D0
:10C1F0000C214FF09040FEF74CFE26200AE0554BF4
:10C2000099420BD1116821F4802111603021FEF791
:10C2100040FE2720BDE8024001F092B901BD474B26
:10C220004E4899427047016842484D4A81427047E2
:10C2300000F15C020068917E222905D1808C118872
:10C24000D2680840C0B21047018B41F00801018359
:10C25000704700F15C02917E20292FD1117E0129C7
:10C260002CD001231376FF238168B1F5805F04D1C0
:10C27000016961B940F2FF1309E011B9016929B9F7
:10C2800005E0B1F1805F06D1016911B97F23138008
:10C2900001E03F2111800023D361222191760168C2
:10C2A0008B6843F001038B602E495160006803687E
:10C2B00043F49073036000201076704702207047AB
:10C2C00010B5044602F028FD20681E49884205D1B9
:10C2D000FFF782FE00F05CF8252022E01B4988422F
:10C2E00005D1FFF789FE00F04EF8262019E0194924
:10C2F000884205D1FFF7A4FE00F040F8272010E0A7
:10C300000C49884205D1FFF739FE00F032F834209D
:10C3100007E00A49884206D1FFF73DFE00F024F805
:10C32000352001F008F92046BDE8104091E70000F3
:10C33000F4080020004C004070090020005000402C
:10C34000EC09002000380140680A00200044004049
:10C35000E40A002000480040000C004800080048A3
:10C360005810024031C2000800220521352001F09A
:10C37000C5B800220521342001F0C0B800220521F3
:10C38000272001F0BBB800220521262001F0B6B815
:10C3900000220521252001F0B1B891E7443A5C67FD
:10C3A00069745C4A442D544F5543485C5372635C36
:10C3B00075736172742E63003EB5454C454800F0BC
:10C3C00025F810B14B2100F017F800F018F810B163
:10C3D000522100F011F837BD3EB53F4C3F4800F008
:10C3E00015F810B1632100F007F800F008F810B15B
:10C3F0006A2100F001F837BD2846FEF713BF00217F
:10C40000009102912046694602F0DCBF35A520600C
:10C410004FF47A7150200022E0606160A260A26156
:10C42000204602F0F9BF00007CB504462949206887
:10C430002CA52B4E884217D1326842F0020232609E
:10C440000022306800F0020000900521009B1D20B2
:10C4500001F054F81D2001F06EF8204602F0E9FFCB
:10C4600010B18221FFF7C8FF20681C4988421AD109
:10C47000326842F0040232600022306800F00400AA
:10C480000090052100981E2001F038F81E2001F0D0
:10C4900052F8204602F0CDFF28B12846BDE87C4086
:10C4A0009621FEF7BFBE73BD10B50446094920684A
:10C4B000884208BF03F056FB20680849884205D12E
:10C4C00003F0CEFBBDE8104003F0D2BB10BD00006E
:10C4D000100F002000040040500F00200008004012
:10C4E00058100240443A5C6769745C4A442D544FCA
:10C4F0005543485C5372635C74696D2E63000000A1
:10C5000038B5DFF8F0400546608E2A0001463ED07F
:10C51000082D1DD00A2D18BF0D2D02D07F2D17D04C
:10C5200021E00020605404F13401628E521C6286C6
:10C53000DFF8C420106803F0BCFC606B30B1DFF89A
:10C54000BC004FF08051016000F03DF81AA006E0F9
:10C55000E8B1401E6086002180B2215417A0BDE8DA
:10C56000324000F067B86554608E401C608680B22F
:10C57000322807DB0FF2940000F0ADF8342120469A
:10C5800003F074FE2846BDE8324003F073BE31BDAF
:10C5900010B5DFF86C400FF2940021688847DFF88F
:10C5A0006420106038B16368DFF85C20BDE810409B
:10C5B0004FF46121184710BD0D0A00000820080043
:10C5C000502080F31188BFF34F8FBFF36F8F7047F8
:10C5D00070B504460A2C0A4D0A4E03D13068AA6889
:10C5E0000D2190473068AA68E1B29047204670BD9F
:10C5F00000000000900F0020340E002004ED00E049
:10C60000080400200C11002001C50008636F6E7340
:10C610006F6C652072656365697665206973207447
:10C620006F6F206C656E6774680A000073657269CD
:10C63000616C31000EB4C0B5024603A80021019020
:10C64000009101AB0121044878440C3003F018FE3E
:10C6500006BC5DF810FB00BF338E0000F0B585B05E
:10C6600004460D46164668460FF2A011112201F04D
:10C670004FFB002000210EE02B5C1B091DF803700E
:10C6800067542A5C02F00F02401C1DF80230621849
:10C69000891C5370C9B2B042EEDB05B0F0BD00B5E5
:10C6A000DFF85411CA6885B003A890479DF81100BF
:10C6B0009DF810109DF80E309DF80D20029001910C
:10C6C0009DF80F009DF80C1000900FF25410FFF72A
:10C6D000B1FF05B000BD0EB418B5ADF5007D044640
:10C6E0004FF40071684603F0C1FD83AA21466846F5
:10C6F00004F06AFD0446601E40F2FF1188421AD21F
:10C7000022466946012004F0B1FD0FF23410FFF714
:10C7100091FF00F015F804F03EFE00F03FF8FFF73F
:10C72000BEFF6A4621460FF22810FFF783FF0FF283
:10C730002810FFF77FFF0DF5017D10BC5DF810FBA1
:10C740002CA0FFF777BFF8B50446B4F5FA7F03D203
:10C75000BDE8F24004F026BE4FF4FA700025B4FBA9
:10C76000F0F6274F08E004F01DFE384604F02BFEDB
:10C770001E2004F02FFE6D1CA8B2B0424FF4FA70D8
:10C78000F1D300FB1644204604F00CFE384604F0BA
:10C790001AFEBDE8F2401E2004F01CBE4FEA000164
:10C7A00029A0FFF747BF000010B5044613480178E1
:10C7B0004A0712D52AA0FFF73DFFFFF7C1FF04F09B
:10C7C000EAFDFFF7EBFFFFF76AFF214626A0FFF720
:10C7D00031FF00BF20A0FFF72DFFBFF34F8F0949A6
:10C7E00009480A6802F4E06202430A60BFF34F8F0F
:10C7F00000BFFDE75B235D00C00000204C0400206B
:10C80000E41000200CED00E00400FA053031323372
:10C81000343536373839616263646566000000007C
:10C820005B253032642D253032642D253032642072
:10C83000253032643A253032643A253032645D0066
:10C840001B5B303B33316D005B2564255D000000D0
:10C85000252E2A73000000001B5B303B33396D002E
:10C860001B5B303B33326D0053797374656D206808
:10C870006173206265656E207265736572742066EF
:10C880006F726D2025730A002DE9F8430546DFF825
:10C890008C662878DFF87C76C10626D5B86810F05B
:10C8A0000C0F3BD13868810702D5A869002833D026
:10C8B000396808074EBF396871680909286A01F0AC
:10C8C000F001814206D200F0EBFA002824D100F0FA
:10C8D000C4F905E000F0C1F9286A00F0E1FAD8B91E
:10C8E00000F076FABA6800F069FA2878C10768D5CE
:10C8F00000F0AFF9082808D000F0ABF90C2802BF0F
:10C90000F86800F0030003282CD13868810358D55B
:10C910006868002840F0F580012098E1A86988B196
:10C92000396841F001013960FEF79AFC0446386825
:10C93000810700F1E380FEF793FC001B0328F6D388
:10C94000032084E13868400840003860FEF788FC26
:10C95000044638688107C8D5FEF782FC001B03280F
:10C96000F7D3EDE76868B0F5803F04D1386840F44C
:10C970008030386011E0B0F5A02F386806D140F45F
:10C9800080203860396841F4803105E020F480303F
:10C990003860396821F480213960686860B1FEF739
:10C9A0005FFC04463868810300F1AB80FEF758FC59
:10C9B000001B6528F6D3C3E7FEF752FC044638682F
:10C9C000810340F19E80FEF74BFC001B6528F6D3E7
:10C9D000B6E7FEF745FC001B0328C0F0BE80AFE7BA
:10C9E000E86880B1396841F480713960FEF738FC3D
:10C9F00004463868410500F19B80FEF731FC001BBE
:10CA00000328F6D39CE7386820F480703860FEF77E
:10CA100027FC04463868410575D5FEF721FC001B4C
:10CA20000328F7D38CE7400840007060FEF718FC3D
:10CA300004467068810740F19480FEF711FC001BEA
:10CA40000328F6D37CE70528306806D140F00400BF
:10CA50003060316841F0010105E04008400030607D
:10CA6000316821F004013160A86841F2893868B169
:10CA7000FEF7F6FB81463068810700F1A680FEF7DD
:10CA8000EFFBA0EB09004045F5D359E7FEF7E8FBC3
:10CA900081463068810740F19880FEF7E1FBA0EB0A
:10CAA00009004045F5D34BE7FEF7DAFB001B0328EE
:10CAB000C0F0A28044E7FEF7D3FB001B0328C0F0C0
:10CAC000C1803DE73968080106D43968880003D47D
:10CAD000F96889088900F960F968DFF844040140C1
:10CAE000F960FEF7BDFB04463868810140F1AE8075
:10CAF000FEF7B6FB001B0328F6D321E700F0ADF8E4
:10CB0000F3E6287881071AD500F0A3F8042809D0A5
:10CB100000F09FF80C2802BFF86800F0030002281C
:10CB20007FF45EAF3868410502D5E868002857D029
:10CB30007868296920F0F85040EA01607860287828
:10CB400001070ED56869002870683FF46CAF40F0AB
:10CB500001007060FEF784FB0446706881077FF572
:10CB600038AF2878410735D5B86D0024C10009D405
:10CB7000B86D40F08050B8650124B86D00F0805069
:10CB800000900098DFF89C83D8F80000C10513D40A
:10CB9000D8F8000040F48070C8F80000FEF760FB91
:10CBA0008146D8F80000C10506D4FEF759FBA0EB7A
:10CBB00009000328F5D3C3E6A86801287FF443AF32
:10CBC000306840F0010030604EE71CB1B86D20F0D5
:10CBD0008050B865A86AC8B3B96801F00C010C2987
:10CBE0003FF49AAE0228386820F0807038607FF4F5
:10CBF00069AFFEF735FB0446386881013FF554AF55
:10CC0000286B696B401E090241EA0011A86BEA6BB0
:10CC1000000941EA4041E86A52080143286C521E6B
:10CC2000400841EA4251401E41EA4061F9603868DB
:10CC300040F080703860F96841F08071F960FEF76B
:10CC40000FFB0446386881017FF535AF0020BDE851
:10CC5000F283B86800F00C007047386840F00800B4
:10CC600038603968286A21F0F00101433960796839
:10CC7000E86921F47F4141EA0021796070472DE99C
:10CC8000F843DFF8A47205463868894600F00700CB
:10CC9000484509D23968C90849EAC101396038688C
:10CCA00000F0070048457CD12878DFF86842C107CA
:10CCB0005FD56868032802D121688A0108E002284C
:10CCC00002D121688A0303E00028216802D18A0783
:10CCD00002D466E04A0564D5A168890840EA81006B
:10CCE000A06041F28938FEF7BBFA0646686803285F
:10CCF0000BD1A06800F00C000C283AD0FEF7B0FA77
:10CD0000801B4045F5D3032031E002280AD1A068FA
:10CD100000F00C0008282CD0FEF7A2FA801B40453A
:10CD2000F5D3F0E700283ED1A06810F00C0F20D01A
:10CD3000FEF796FA801B4045F6D3E4E728784107D2
:10CD400005D5A268E86822F4E0620243A26029786F
:10CD5000080706D5A168286921F4605141EAC0019D
:10CD6000A16000F035F8A26800F028F80020BDE8C6
:10CD7000F2832878810705D5A268A86822F0F0021E
:10CD80000243A260396801F007018945D6D23868AC
:10CD9000C00849EAC0003860396801F00701494518
:10CDA000CCD00120E3E7A06800F00C000428E0D01C
:10CDB000FEF756FA801B4045F5D3A4E75B49564B76
:10CDC000C2F30312895CC84018600F2000F0CCBF8A
:10CDD00050498B680022002013F00C0F09D08B689B
:10CDE00003F00C030C2B02BFCB6803F00303012BF1
:10CDF00013D10A68130704D44E4A1368C3F30322FD
:10CE000002E00A68C2F303124B4B53F822208B68EE
:10CE100013F00C0F0ED110460CE08B6803F00C03DE
:10CE2000042B08BF454805D08B6803F00C03082B82
:10CE300008BF43488B6803F00C030C2B1AD1CB6856
:10CE4000C868C0F30210401C03F00303022B03D098
:10CE5000032B08BF3A4A00E0384AB2FBF0F2C86838
:10CE6000C0F306204243C868C0F34160401C400044
:10CE7000B2FBF0F0704728480068704726482C4AFB
:10CE8000006813682F49C3F3022206E02248284AAB
:10CE9000006813682B49C3F3C222895CC8407047FD
:10CEA0007CB5294E054630680024C10002D500F04B
:10CEB000CDFA0EE0306840F080503060316801F00B
:10CEC00080510091009800F0C1FA316821F0805142
:10CED0003160B0F5007F04D1802D0CD9A12D09D38C
:10CEE00004E0802D88BF032405D801D1022402E08C
:10CEF000702D00D101240C480168C90844EAC10121
:10CF00000160006800F00700A04201D0012076BD5A
:10CF1000002076BD001002403C040020901002402A
:10CF2000FFFFEEFE0070004000200240F8520108B2
:10CF30000810024094100240046301080024F40029
:10CF400000127A007C640108581002402DE9FC4769
:10CF5000054600242868DFF8C8630105A14620D5EE
:10CF6000686E70B1B0F5800F16D0B0F5000F03D029
:10CF7000B0F5400F08D012E0326842F480323260DF
:10CF800003E000F064F9044654B9F16F686E21F4CF
:10CF900040010143F16704E000F054F9F3E7012494
:10CFA000A1462868C10420D5A86EA8B1B0F1807F41
:10CFB00016D0B0F1007F03D0B0F1407F04D012E072
:10CFC000316841F48031316074B9F16FA86E21F09D
:10CFD00040710143F16708E000F039F90446F3E7D6
:10CFE00000F030F9FAE70124A146286881032BD527
:10CFF000F06CC1004FF000080AD4F06C40F0805093
:10D00000F0644FF00108F06C00F080500090009840
:10D01000DFF8D473386840F480703860FEF720F988
:10D0200082463868C10500F1E380FEF719F9A0EBEC
:10D030000A000228F5D90324A146B8F1000F03D055
:10D04000F06C20F08050F0642878C10705D5F26FAD
:10D05000A86B920840EA8202F2672978880705D512
:10D06000F16FE86B21F00C010143F1672978480763
:10D0700005D5F16F286C21F030010143F167297863
:10D08000080705D5F16F686C21F0C0010143F16715
:10D090002978C80605D5F16FA86C21F440710143C9
:10D0A000F1672978880605D5F16FE86C21F44061B5
:10D0B0000143F1672968880505D5F16FE86D21F412
:10D0C00040210143F1672968480505D5F16F286EB5
:10D0D00021F440110143F1672978480605D5F16F25
:10D0E000286D21F440510143F1672978080605D5E0
:10D0F000F16F686D21F440410143F1672968C8056B
:10D1000005D5F16FA86D21F440310143F16729681D
:10D11000080321D5F16FE86E21F040610143F1670A
:10D12000E86EB0F1006F0ED1306840F480103060CE
:10D1300012E0FEF795F8001B41F28931884275D361
:10D140004FF0030979E7B0F1806F05D1012100F0BC
:10D150007FF8010018BF81462868410317D5F26F98
:10D16000286F22F040620243F267286FB0F1006F2F
:10D1700004D1306840F48010306008E0B0F1806F76
:10D1800005D1012100F064F8010018BF814628682C
:10D19000410418D5F26F686F22F040520243F267E3
:10D1A000686FB0F1805F03D1022100F051F807E011
:10D1B000B0F1005F07D1022105F1200000F0B2F8C4
:10D1C000010018BF81462868010405D5F26FA86FD9
:10D1D00022F080420243F2672968C80305D5F16F47
:10D1E000E86F21F000410143F1674846BDE8F6874A
:10D1F000002C7FF421AFDFF84072386810F44070E3
:10D200001CBFD5F8801088420BD03868396841F4CB
:10D210008031396020F440703A6822F480323A60FC
:10D220003860C00706D5FEF71BF80446386881074A
:10D230007FF57FAF3A68D5F8800022F44072024350
:10D240003A60FAE6002105F1200000F06BB80021F9
:10D25000281DFFE72DE9F04100F0E5F809D0F1685D
:10D2600001F0030181422BD150B300F0C8F80CD07B
:10D2700026E0012804D023D303281BD016D31FE0B7
:10D28000326891071CD500F0C1F8306820F080604A
:10D2900000F0C6F880463068010133D5FDF7E0FFA5
:10D2A000A0EB08000328F6D3032536E031684A05D1
:10D2B000E9D405E031688A03E5D431684A03E2D451
:10D2C00001252AE0012C326909D13B695C48024002
:10D2D0005B0842EA01215B1E41EA435102E07B699F
:10D2E00000F084F83161306840F0806000F098F818
:10D2F0000446306801010CD4FDF7B2FF001B03287F
:10D30000F7D3D1E7B968002CDCD1326900F063F8BB
:10D31000E8E73169B8690143316159E00000000074
:10D320000C1002402DE9F04100F07DF809D0F168C1
:10D3300001F0030181422BD150B300F060F80CD012
:10D3400026E0012804D023D303281BD016D31FE0E6
:10D35000326891071CD500F059F8306820F08050F1
:10D3600000F05EF880463068810026D5FDF778FF32
:10D37000A0EB08000328F6D3032529E031684A050D
:10D38000E9D405E031688A03E5D431684A03E2D480
:10D3900001251DE03B6900F029F87161306840F01B
:10D3A000805000F03DF80446306881000CD4FDF751
:10D3B00057FF001B0328F7D3DEE7B9687269002C1A
:10D3C000E8D100F008F8E8E7716978690143716114
:10D3D0002846BDE8F0811B48FB68024042EA012173
:10D3E0001B0941EA43417047007000401648024063
:10D3F0005B0842EA01215B1E41EA43617047F06825
:10D400007968C0F30210401C88427047F26879685E
:10D4100022F073021043491E40EA0110F060704789
:10D420003060FDF71DBF0746044E38680C46F168B2
:10D43000002511F0030F70479010024000100240C9
:10D44000FF809FFFFF80FDFFFF80FFF9DFF86C008A
:10D45000006800F4C060704710B5DFF86020B0F5D8
:10D46000007F106800F4C06018D1B0F5007F1ED0B6
:10D470001068DFF84C30DFF84C4020F4C06040F416
:10D480000070106032211868B0FBF4F0484380B19E
:10D4900051694B0548BF401EF9D40AE0B0F5806FD2
:10D4A00005D0106820F4C06040F480601060002057
:10D4B00010BD50694105FAD5032010BD0070004031
:10D4C0003C04002040420F000901020006D5314A09
:10D4D00000F00F00104400F8041C70472E4B195444
:10D4E00070472E4B19684FF6FF020002114000F4FE
:10D4F000E06008432A4908431860704738B5274B55
:10D500001C68C4F30223C3F10704052C28BF0424BC
:10D510001D1D072D34BF0023DB1E012505FA04F471
:10D52000641E2140994005FA03F35B1E1A40114323
:10D53000BDE83440C8E7012200F01F01194B03E0A9
:10D54000012200F01F01184B8A40400943F82020B7
:10D55000704710B5401EB0F1807F01D3012010BD8F
:10D56000124C60600F214FF0FF30FFF7ADFF00213C
:10D57000A16007202060002010BD04280B4904D1C1
:10D58000086840F00400086070470A6822F004024E
:10D590000A60704718ED00E000E400E00CED00E0E8
:10D5A0000000FA0500E100E080E100E010E000E0AA
:10D5B00001B55AB111F8013B521E00F8013B03B10D
:10D5C000F8D111001CBF002203F00CFF01BD30B4E4
:10D5D000002513E050F8042BD30744BFA9F1010341
:10D5E0009A18091F042942F8045BFAD213468C07E3
:10D5F00044BF15809B1CC90748BF1D7050F8041B11
:10D600000029E7D130BC704780B5B0B1DFF8B42550
:10D61000116F49B100F01AF800F055F940F2D1420B
:10D6200007A100F02FF8FEE7116F491C11670021D8
:10D6300000F0CCFA00F030F808B900F03FF901BD75
:10D64000765461736B44656C61790000502080F3FF
:10D6500011887047E26A686DDFF86C3501219140EE
:10D6600008436865211D14204243981803F0C3BE87
:10D67000E06AA96ACA6A90427047211D1420424399
:10D6800098187047DFF8CC05FEF7D4BFDFF8C00567
:10D69000016F491C0167704770B5DFF82865306F6E
:10D6A0000024002550B900F049F800F00CF940F2D0
:10D6B000EA720FF2A851FFF7E5FFFEE703F0DCFE88
:10D6C000306F401E3067306F002836D1F06CD8B90B
:10D6D00033E0F068C46800F035F800F007FAE06A5B
:10D6E000716DDFF8683501228240114371651422A3
:10D6F0005043211D184403F07EFEE06AB16ACA6AF5
:10D70000904224BF0121316630680028E1D10CB17C
:10D7100000F096F9F46D3CB100F01FF808B101205B
:10D720003066641EF8D1F565306E30B1DFF828152B
:10D730004FF08050012500F0C5F83EE2502181F302
:10D740001188704704F1180003F07BBE80B503F028
:10D75000D3FEDFF8FC04006D02BD2DE9F843DFF8CD
:10D760006474386F0026002854D13C6D641C3C65FD
:10D7700016D1F96A086850B1FFF7E0FF00F0A3F88E
:10D7800040F6DB120FF2E441FFF77CFFFEE7F86A98
:10D79000396BF9623863786E401C786600F050F996
:10D7A000F86EDFF8A89484424FF0140825D31AE0ED
:10D7B000281D03F046FEA86A18B105F1180003F011
:10D7C00040FEE86A796D012282401143796508FBC9
:10D7D00000F0291D484403F00EFEE86AB96ACA6ADF
:10D7E000904228BF0126F96A086880B1F86AC168CA
:10D7F000CD6868688442DBD2F866B86AC16A08FB03
:10D8000001F059F80020022A07D3012605E04FF065
:10D81000FF30F1E7F86D401CF865386E00B1012665
:10D820003046BDE8F28310B5DFF89843206F10B1A1
:10D830000121216610BD206603F09DFD606DB0FAE8
:10D8400080F2C2F11F0214214A43DFF80014885805
:10D8500050B9FFF773FF00F036F840F6F8220FF2E8
:10D860002041FFF70FFFFEE7881800F1080241682A
:10D8700049684160914204BF496841604068C1689D
:10D88000A162BDE8104003F06BBD10B50C4650B965
:10D89000FFF7DCFE00F017F840F608320FF2F43123
:10D8A000FFF7F0FEFEE7DFF81C138A6A02F11801A9
:10D8B00003F0AEFD2046BDE8104009E0DFF8981304
:10D8C0004FF080500860BFF34F8FBFF36F8F7047EA
:10D8D00001217BE138B5C068C46854B9FFF7B6FED2
:10D8E000FFF7F1FF40F663320FF2C031FFF7CAFED7
:10D8F000FEE7FFF727FFDFF8CC52286F60B900F092
:10D90000F5F8E26A686DDFF844330121914008437D
:10D910006865FFF7B2FE02E004F11801284603F043
:10D920006AFD00F033F802D20120286632BD0020E3
:10D9300032BD70B5DFF88C52DFF818332A6F5026ED
:10D9400042B986F31188FFF7BEFF40F69B3200F024
:10D950001DF9FEE741F000410160C46844B986F357
:10D960001188FFF7B0FF40F6A33200F00FF9FEE791
:10D9700003F067FD00F0BAF8FFF76CFE00F006F860
:10D9800002D20120286670BD002070BDA86AC16A5D
:10D99000E06A8142704780B550B9FFF757FEFFF744
:10D9A00092FF40F6C3320FF22031FFF76BFEFEE725
:10D9B000DFF89C124A6E0260096D416001BD70B5CE
:10D9C00004460D465022DFF88C020FF2143144B9A0
:10D9D00082F31188FFF777FF40F6CD32FEF72AFE7B
:10D9E000FEE745B982F31188FFF76DFF40F6CE32AE
:10D9F000FEF720FEFEE703F03FFDDFF85402016D65
:10DA00002A6812F1010F0FD06368406E2668B04299
:10DA100001D099420AD2C81A904207D2511A591815
:10DA200029602046FFF7B7FF002400E0012403F03F
:10DA300043FD204670BDDFF81812012008667047CC
:10DA40006049CA6A106810B94FF0FF3203E0C86A33
:10DA5000C268D0684268CA667047DFF8F401806A1D
:10DA60007047DFF8EC11886D08B901207047086F26
:10DA700008B902207047002070472DE9F0410400EA
:10DA800032D0504DFFF7F4FD2ED2A069002804D407
:10DA9000A86AC16AC1F10701A1611427E16ADFF830
:10DAA000AC8160697943414488421AD100F01EF884
:10DAB0000126002801BFE16A794358F801000028D7
:10DAC00000F069F8A86AC06AE0628640696D0E439A
:10DAD0006E654743211D08EB0700BDE8F04103F0E8
:10DAE0008ABCA86AC16AE162BDE8F081201D03F02A
:10DAF000A8BC2DE9F04104460022002C43D0314D52
:10DB0000DFF85031A86A0FF2F0115026844208D095
:10DB100086F31188FFF7D7FE40F6C96200F038F8A7
:10DB2000FEE7E06C40B986F31188FFF7CCFE40F6C3
:10DB3000CB6200F02DF8FEE7E16AA36C401E99422B
:10DB4000E06420D0F8B9FFF7D1FF01261427DFF8F1
:10DB5000FC80002801BFE16A794358F801000028E1
:10DB600000F019F8A06CE062C0F10700A061E06A63
:10DB7000696D86400E4347436E65211D08EB070023
:10DB800003F039FC01221046BDE8F08103F13001B9
:10DB90001846FEF74FBD05D1686DE16A06FA01F13E
:10DBA000884368657047DFF8A810886A18B1886AEA
:10DBB000C26C521CC264886A704703F07DFC284620
:10DBC00070BD00003807002068080020F8B5204D1F
:10DBD0002F6D0C46A96A0646081D03F032FC30B9C9
:10DBE000A86A696DC06A012282409143696516F195
:10DBF000010F08D13CB1A86A011D05F13800BDE84C
:10DC0000F44003F0F8BBA86AF6194660BE42A86A61
:10DC100005D2011D286BBDE8F44003F0F9BB011DDE
:10DC2000E86A03F0F5FBE86E864238BFEE66F1BDA8
:10DC30000748816A086B70470548816A486C7047DD
:10DC40000348816A01F13400704700006808002031
:10DC5000380700201861010804ED00E07854617372
:10DC60006B526573756D65416C6C0000785461731F
:10DC70006B496E6372656D656E745469636B000009
:10DC8000765461736B537769746368436F6E746520
:10DC900078740000765461736B506C6163654F6EED
:10DCA0004576656E744C6973740000007854617336
:10DCB0006B52656D6F766546726F6D4576656E74F5
:10DCC0004C69737400000000765461736B53657483
:10DCD00054696D654F75745374617465000000007C
:10DCE000785461736B436865636B466F7254696DFA
:10DCF000654F757400000000785461736B50726951
:10DD00006F72697479446973696E686572697400C9
:10DD10004AB1000011F8013B521E00F8013B1CBF44
:10DD200011F8013BF8E770470CB430B583B00A46F0
:10DD300006A90291044600250194009502AB01A9B1
:10DD4000084878441E3002F09BFA019A15700028AA
:10DD50004EBF04460198041B204603B030BC5DF85A
:10DD60000CFB00BFF7D2FFFF10B508490A68044654
:10DD70004FF47A70B2FBF0F0FFF7EBFB0022214684
:10DD80004FF0FF30FFF7BAFB002010BD3C0400202D
:10DD900080B52148816841F001018160816801F00E
:10DDA000010100910099026842F08052026000680F
:10DDB00000F08050009000980320FFF792FB0022B3
:10DDC00000216FF00B00FFF799FB002200216FF09C
:10DDD0000A00FFF793FB002200216FF00900FFF714
:10DDE0008DFB002200216FF00400FFF787FB00226B
:10DDF00000216FF00300FFF781FB00220F216FF07D
:10DE00000100FFF77BFBBDE8084000220F214FF027
:10DE1000FF30FFF773BB00BF5810024070B504001D
:10DE200031D094F8210028B9002184F82010204630
:10DE3000FDF762FF00F042F853202168486200F0CD
:10DE40009FF8FF25E8B92168DFF8C4048A6802401A
:10DE50008A602268936866682169A0690E43064358
:10DE6000334393602068E168016120680169A2681A
:10DE700041EA0241016100F078F806D400F07EF832
:10DE800018B100F015F8012070BD2068C16C890838
:10DE90008900C1642168CA6CE369606903431A435D
:10DEA000CA64012021684D6284F82100002070BD01
:10DEB00020684562042184F821107047022084F80C
:10DEC0002100CA21226851627047F8B500F004F9B8
:10DED00001D10220F2BD00F0C0F82068806813D1A3
:10DEE00041065CBF0020E870287800F056FA06462C
:10DEF00000F0F0F8070200F0EAF847EA06470743A7
:10DF0000E87847EA00470DE041065CBF0020E87072
:10DF10006F782978A8783F0247EA0147E9780743F4
:10DF200047EA01472168CA204862532220684262BA
:10DF300000F026F8FF26B0B92168DFF8D8030740C3
:10DF40000F602068826822F48022826021688A68DB
:10DF5000EB68286903431A438A6000F006F803D48B
:10DF600000F00CF800B180E06EE02068C16821F09C
:10DF70008001C16020688168880670472046D8E12A
:10DF80002046EFE130B50068836A4B600469C4F352
:10DF90000E048C600368DFF87C030340180C00F06B
:10DFA0003F040C701D0A00F040004D708B70C8706B
:10DFB00022B900F064F912FB03028A70002030BD20
:10DFC000F8B504460E4694F82000012801D102203D
:10DFD000F2BD00F042F875782CD1E80603D505F0C3
:10DFE000EF050A357570F07800F0D7F907467078BC
:10DFF00000F0D3F90502B07800F0CFF945EA074503
:10E000000543307845EA40352068CA2141625322F1
:10E0100021684A62FFF7B4FFFF2650B92168DFF894
:10E02000F80205404D60FFF7A0FF0DD4FFF7A6FFF3
:10E0300050B11AE0F07831782D0245EA0045B07809
:10E04000054345EA4135DFE720684662012184F84F
:10E050002110002084F82000F2BD012084F8200067
:10E06000022184F82110002A7047206846620421AA
:10E0700084F82110002084F820000120F2BD30B582
:10E080000368DFF894025B6803408B701D0A1C0C68
:10E0900005F01F055B0BCC704D7003F007030B7090
:10E0A00092B9C87803090A2200F00F0012FB03009E
:10E0B000C8704878030900F00F0012FB0300487095
:10E0C000887800F0D6F88A70002030BD0602A87863
:10E0D00063E10746687860E104460D4694F8200045
:10E0E000012870472DE9F843FFF7F6FF08BF02202B
:10E0F00065D000F077F882B9806841065CBF0020E7
:10E10000E870287800F049F9FFF7E3FFFFF7DEFF3A
:10E1100000F057F8E9783E4306E0816848065CBFA6
:10E120000021E97000F053F800F088F814D121F4D0
:10E1300080718160206800F0F5F8FDF791F80546E0
:10E140002068C168CA071ED4FDF78AF8401B4845FD
:10E15000F6D300F068F832E021F4007181602068A5
:10E16000C16801F0800161F42071C160FDF778F8A9
:10E1700005462068C1688A070DD4FDF771F8401B79
:10E180004845F6D3E5E700F03DF8816020688168F6
:10E1900041F4805106E000F02DF88160206881682C
:10E1A00041F4005181605D48016841F480210160C3
:10E1B0000121826842F48022826000F02BF8BDE8E1
:10E1C000F28346EA0746074695F82000E5E06E78B8
:10E1D0002878E978360246EA0046A878064395F89A
:10E1E00020007047012084F82000022184F82110CB
:10E1F000206870470662206887642068816841F45F
:10E2000000717047C661206847642068816841F4E6
:10E21000807170472068C0F8248084F821100020A5
:10E2200084F8200070472068C0F82480032184F817
:10E230002110002084F820000320704746EA0146A0
:10E24000E96922686F6846EA006668690E43CA2178
:10E250000643A869516207432168532048624FF082
:10E26000FF082068696AB1F5807F816840F2E9396A
:10E270007047030900F00F0012FB03027047087893
:10E2800003090A2200F00F0012FB0300087048780F
:10E29000030900F00F0012FB03004870887803099F
:10E2A00000F00F00704710B504461D494FF4802060
:10E2B00008600BE0C268910508D5C26802F08002D0
:10E2C00062F42072C260204603F070F92068816811
:10E2D000CA0402D5C168CA0505D481688A0412D56A
:10E2E000C1688A050FD58168CA0407D5C168CA0507
:10E2F00004D500F017F8204603F0BCFA20688168C6
:10E300008A04E3D5D6E7012084F8210010BD00007F
:10E31000BFFF8FFF7F7F7F003FFFFF0000040140B2
:10E3200014040140C16801F0800161F4C071C16052
:10E33000704738B504462068C16821F0A001C1606B
:10E34000FCF78EFF05462068C168880608D4FCF7F4
:10E3500087FF401B40F2E9318842F4D3032032BDED
:10E36000002032BD38B504462068C1684A0612D480
:10E370004FF0FF31C160FCF773FF05462068C168AC
:10E38000480608D4FCF76CFF401B40F2E931884294
:10E39000F4D3032032BD002032BD002101E0491C2E
:10E3A0000A38C2B20A2AFADA40EA0110C0B270474B
:10E3B000006800F1500303EB81031A6070470068A6
:10E3C00000F1500202EB81021068704770B5040042
:10E3D00001D1012070BD0020A06204F15C056878C5
:10E3E00020B9002129702046FDF74AFD02206870FF
:10E3F00000F00EFCE168B1F5E06F04D90022B1F540
:10E40000706F03D104E04FF4805201D00020A0626D
:10E41000206B30B9B1F5E06F87BF02202063012186
:10E4200021636368A06821692668034360690B4320
:10E43000A169034301F40071E0690B43216A0343BE
:10E44000A06A0B4303433360A369606A616B1B0CD2
:10E4500003F004030343E0680B4303431A432368B8
:10E460005A600021696001206870002070BD2DE9AC
:10E47000F843044604F144060027307E01280D4687
:10E480009146984608BF022000F0AA80012030760D
:10E49000FCF7E6FE717E012918BF02274ED1290044
:10E4A00018BFB9F1000F00F0958003227276F76172
:10E4B000A163A4F83C90A4F83E902764378077804D
:10E4C000F760B760A268B2F5004F04D12268136804
:10E4D00043F480431360226813685D0600F01FF95F
:10E4E00040F20175E3686268AB4228D3002A1CBF82
:10E4F000E28F012A06D1226831F8023BD360E38F14
:10E500005A1EE2878946054605E039F8021BC160BC
:10E51000E08F411EE187E08F002849D020688168A4
:10E520008A07F2D4B8F1000F07D018F1010FF2D02A
:10E53000FCF796FE401B4045EDD303274BE0002A35
:10E540001CBFE28F012A09D12268E38F022B08D376
:10E5500031F8025BD560E28F931EE387894605465A
:10E560000BE011F8015B1573E28F531EF5E739F8E4
:10E57000021BC160E08F811EE187E08FC0B120687F
:10E5800081688A0708D5E18F0229F0D219F8012B9A
:10E590000273E08F411EEFE7B8F1000FCDD018F104
:10E5A000010FEAD0FCF75CFE401B4045E5D3C4E711
:10E5B0002A46414600F0C2F908B12020F061A06867
:10E5C00030B900972168CA68009289680091009A62
:10E5D000F06900B1012701207076002131763846BC
:10E5E000BDE8F2832DE9F843002605460C4668682D
:10E5F000B0F5827F04BFA86800289146984605F1CF
:10E60000440709D104267E76CDF800804B46224689
:10E61000284600F08AF880E0387E012808BF0220F2
:10E620007BD001203876FCF71BFE797E012918BFCC
:10E6300002266DD1002C18BFB9F1000F67D004215C
:10E640007976FE612C64A7F80090A7F80290AE637B
:10E65000AE87EE87BE60FE602A68EB6840F201710B
:10E660008B4253682CBF23F4805343F48053536090
:10E67000AA68B2F5004F04D12A68136823F48043D6
:10E6800013602A6813685B0600F049F8A146EA683F
:10E690008A42444680461ED205E0007B09F8010B01
:10E6A00079884A1E7A80788838B328688168CA07D2
:10E6B000F3D444B114F1010FF5D0FCF7D1FDA0EB78
:10E6C0000800A042EFD3032622E0C06829F8020B1D
:10E6D00079884A1E7A80788878B128688168CA0764
:10E6E000F3D4002CEFD014F1010FF4D0FCF7B8FDF7
:10E6F000A0EB0800A042EED3E5E7284642462146BB
:10E7000000F037FA08B12020F861F86900B101265D
:10E7100001207876002139763046BDE8F28303D4B3
:10E72000136843F04003136070472DE9F84F074624
:10E7300007F144060124307E0025012888469146D1
:10E740009A4608BF022000F0E9803476FCF788FD85
:10E75000717E0129834609D07868B0F5827F02BFB7
:10E76000B8680028042901D00225D2E0B8F1000FD2
:10E770001CBFB9F1000FBAF1000F00F0C980707E24
:10E7800004281CBF05217176F561C7F84090A6F8F2
:10E7900002A0A6F800A0C7F83880A7F83EA0A7F806
:10E7A0003CA0B560F56040F20171F86888423CBF5A
:10E7B0007288022A04D33868426822F4805203E047
:10E7C0003868426842F480524260386802685306F2
:10E7D00003D4026842F040020260FA687868DDF80B
:10E7E00028A08A4239D300281CBFF88F012806D1FF
:10E7F000386838F8021BC160F98F481EF887F88F17
:10E80000002804BF7088002878D0002C1CBFF88F27
:10E8100000280AD0386881688A0706D538F8021BB4
:10E82000C1600024F88F411EF987708850B13868A4
:10E830008168CA0706D5C06829F8020B01247188CF
:10E840004A1E72801AF1010FD9D0FCF709FDA0EB26
:10E850000B005045D3D303255BE000281CBFF88F85
:10E86000012836D13868F98F022902D300F05EF80A
:10E8700001E000F055F8F9872BE000F051F8F98736
:10E8800000247088E0B138688168CA0718D571889B
:10E8900002290ED3C06829F8020B71888A1E728083
:10E8A000708802280BD23868416841F48051416079
:10E8B00005E0007B09F8010B71884A1E7280012473
:10E8C0001AF1010F05D0FCF7CBFCA0EB0B00504573
:10E8D000C1D2F88F002804BF708800280ED0002C09
:10E8E0001CBFF88F0028CCD0386881688A07C8D54B
:10E8F000F98F0229C1D300F019F8C0E73846514614
:10E900005A4600F06AF908B12020F061F06900B1C0
:10E91000012501207076002131762846BDE8F28F6E
:10E9200018F8012B0273F88F411E704738F8022B3C
:10E93000C260F88F811E704702466421204600F0B5
:10E940004CB97CB5044622685168936803F04100D5
:10E95000012806D1480604D5E16C2046BDE87C407C
:10E960000847980706D50D0604D5216D2046BDE859
:10E970007C40084713F4B07F5CD088065AD55D060A
:10E980000ED594F85D00032847D0206E40F00400B7
:10E99000206600250095D668009695680095009839
:10E9A0009D060CD5206E40F00100206600250095E4
:10E9B00096680096106820F040001060009AD80514
:10E9C00009D5226E42F008022266002000902268DB
:10E9D00090680090009A206E60B32068426822F030
:10E9E000E0024260012011F0030F84F85D001CD0AA
:10E9F00020680FF245054168890889004160A06DD3
:10EA000018B18563A06D02F0AFFF606D90B18563B2
:10EA1000606DBDE8764002F0A7BF00200090D1688D
:10EA2000009192680092009873BD2046BDE8764040
:10EA300002F0BCBF73BD0000806A00F13E010022FD
:10EA40000A810A8002F0B2BF2DE9F041069F054617
:10EA50000E4690461C46286881683140B1420CBF82
:10EA600001200020404530D014F1010FF3D024B133
:10EA7000FCF7F6FBC01BA042EDD32868416821F0EB
:10EA8000E00141606868B0F5827F0BD1A868B0F5FD
:10EA9000004F18BFB0F5806F04D12868016821F0DD
:10EAA00040010160A86AB0F5005F09D128680168DB
:10EAB00021F4005101602868026842F400520260AB
:10EAC00005F15C0000F04FF800E00020BDE8F081A7
:10EAD0002DE9FC41089F0646884614461D463068CD
:10EAE000816808EA0101A1423AD0B8F5C06F08BFB9
:10EAF000002C04D1007B8DF800009DF8001015F16A
:10EB0000010FECD025B1FCF7ABFBC01BA842E6D34C
:10EB10003068416821F0E00141607068B0F5827FA3
:10EB20000BD1B068B0F5004F18BFB0F5806F04D1BD
:10EB30003068016821F040010160B06AB0F5005F03
:10EB400009D13068016821F4005101603068026821
:10EB500042F40052026006F15C0000F004F800E0AC
:10EB60000020BDE8F68101214170002202700320DF
:10EB700070477CB504460D466068B0F5827F164646
:10EB800008D1A068B0F5004F18BFB0F5806F01D173
:10EB900000F03EF800F014F868B96068B0F5827FC4
:10EBA0000CD1A068B0F5004F18BFB0F5806F05D14B
:10EBB00000F00CF810B100F025F876BD002076BD0D
:10EBC00000962B460022802120463DE700962B46EA
:10EBD00000224FF4C06120467AE77CB50D46164608
:10EBE000044600962B4600224FF4C051FFF770FFF9
:10EBF00028B9FFF7E5FF10B9FFF7E8FF08B100F00B
:10EC000001F876BD206E40F020002066032070479A
:10EC10002068016821F04001016070470000F0B4F5
:10EC20000246106895681318506803EB5004C0073B
:10EC30001DD54D441BE013F8017B05F8017B491EEF
:10EC4000F9D1A0B1B60813F8011B06F00306032E94
:10EC500008BF13F8016B01EB06214942801C2944CF
:10EC600005D011F8016B05F8016B401EF9D1A342E4
:10EC70000ED013F8016B16F0030104BF13F8011B4B
:10EC8000C91C30090F28DAD113F8010B0F30D6E771
:10EC9000F0BC02F10C00704738B5040009D004F153
:10ECA0007405697809B900F028F800F00DF801281A
:10ECB00001D1012032BD606A08B100F023F800F0F4
:10ECC00014F821F02A0109E0242169702068026803
:10ECD000520852000260204600F03EB9816000F008
:10ECE00014F8BDE8324000F0F6BA2068416821F41B
:10ECF000904141602068816870470020287020465C
:10ED0000FDF7A9B9204600F083BA2068016841F0F8
:10ED1000010101602046704738B508B9012032BDB5
:10ED200000F174042421617001680A6852085200DD
:10ED30000A600021036819600568696002689160D3
:10ED4000FDF720FA002060606070A070207032BD76
:10ED50002DE9FC47074607F174058A4668782028A4
:10ED60001446984640D1BAF1000F14BF002C012080
:10ED70003BD02878012837D0012129700020686015
:10ED800021226A7007F15006FCF76AFA3480814646
:10ED9000748014E039681AF8010B08850CE0B86833
:10EDA000B0F5805F04BF38690028F3D13AF8021B40
:10EDB0003868C1F3080101857088411E71804B4697
:10EDC0007088CDF80080002811D0002280213846BC
:10EDD00000F0AEFA0028E2D0032006E020206870A0
:10EDE00000212970002000E00220BDE8F687002203
:10EDF0004021384600F09CFA0028EFD0ECE770B5CF
:10EE000004462568E9692A68AB6811F00F000AD149
:10EE100088066DD596066BD5216E002967D02046F1
:10EE2000BDE870400847D80702D412F4907F5FD045
:10EE3000C80707D5D60505D501202862A56F45F07E
:10EE40000105A567880708D5DD0706D526680220D5
:10EE50003062A06F40F00400A067480708D5DD07C6
:10EE600006D5266804203062A06F40F00200A0673B
:10EE700008070AD5950601D4D80706D525680823C2
:10EE80002B62A06F40F00800A067A06F00285BD045
:10EE9000880605D5910603D5216E09B1204688471D
:10EEA000A06F010703D42068816848061AD5204660
:10EEB00000F070FA206881684A060ED500F045F827
:10EEC00058B10FF2F1418163206F02F04DFDD8B3CC
:10EED000206F816BBDE8704008472046BDE8704058
:10EEE000FDF75BBA2046FDF758FA0020A06770BD19
:10EEF000CE0204F175000CD55B020AD54FF48011E7
:10EF000029622022027042702046BDE8704002F063
:10EF10004EBD0B0607D5160605D5616EA1B120467C
:10EF2000BDE87040084749060ED552060CD5296841
:10EF300021F04001296020220270002060662046F6
:10EF4000BDE8704002F034BD70BD816821F0400121
:10EF50008160206F704700002DE9F04104469D4814
:10EF60002268DFF874E21368A168034020690B434C
:10EF700061690343E0690B43034313601027516841
:10EF8000E06821F440510143516000260025A36947
:10EF900092498A421CBF206A0343906820F4306083
:10EFA0000343936072458E488E4B21D11B6803F05A
:10EFB0000303032B4CD8DFE803F0023A294A012768
:10EFC000E169B1F5004F4FF6F07840F0D48067B1B9
:10EFD000012F00F0AA80022F00F0AA80042F00F079
:10EFE000AC80082F00F0B280B8E0FDF747FFA6E044
:10EFF000DFF8F4C162450BD11B6813F00C035FD03E
:10F00000042B14D0082B01D00C2B0EE002271FE09C
:10F01000DFF8D8C162450CD11B6813F030034FD024
:10F02000102B04D0202BF1D0302B10D010E004276F
:10F030000EE0DFF8BCC1624522D11B6813F0C003AB
:10F040003ED0402BF3D0802BE0D0C02B00D108273E
:10F050008A42B5D1390006D0022F08D0042F31D012
:10F06000082F32D0AFE0FDF709FF00285CD06268BE
:10F0700002EB4201884202D31303834228D2A2E06A
:10F08000DFF870C162450CD11B6813F4407317D0D0
:10F09000B3F5807FCBD0B3F5007FB7D0B3F5407F19
:10F0A000C3E78A42D4D11B6813F4406308D0B3F598
:10F0B000806FBCD0B3F5006FA8D0B3F5406FB4E754
:10F0C0000027C5E7FDF784FECFE74FF40040CEE709
:10F0D00037B1022F0AD0042F0ED0082F16D01BE014
:10F0E000FDF7CCFE00F08EF879410AE0424911EBC1
:10F0F000520045EB050104E0FDF76AFE00F082F8DE
:10F100006941002302F056FC064606E0530803F569
:10F110000003B3FBF2F600E00125A6F54070374985
:10F12000884250D22268D6604EE0FDF7AFFE06E07E
:10F130006068334901EB50010CE0FDF749FE61685E
:10F140004A0802EB4002B2FBF1F605E060684108B4
:10F1500001F58031B1FBF0F6B6B200E00125A6F171
:10F16000100040452FD208EA0601C6F342000143D1
:10F170002068C16028E047B1012F09D0022F0CD0D0
:10F18000042F08D0082F0ED015E0FDF777FE04E01D
:10F19000FDF77CFE01E0FDF71BFE616800EB51000E
:10F1A000B0FBF1F605E06068410801F50041B1FBF4
:10F1B000F0F6B6B200E00125A6F11000404502D2FB
:10F1C0002168CE6000E001250020206660662846A8
:10F1D000BDE8F081F369FFEF003801400080004096
:10F1E0000024F40088100240004400400048004021
:10F1F000004C004000500040000024F400FD0F00CF
:10F200000048E8016268010E560816EB00207047BE
:10F2100090F82410CA0706D502685368816A23F45F
:10F2200000330B43536090F824108A0706D5026818
:10F230005368C16A23F480330B43536090F8241061
:10F240004A0706D502685368016B23F480230B43F9
:10F25000536090F824100A0706D502685368416B82
:10F2600023F400430B43536090F82410CA0606D5DC
:10F2700002689368816B23F480530B43936090F88A
:10F2800024108A0606D502689368C16B23F40053E4
:10F290000B43936090F824104A0610D50268536817
:10F2A000016C23F480130B435360036CB3F5801F90
:10F2B00005D15368416C23F4C0030B43536090F8AD
:10F2C00024100A0606D501684A68806C22F40022E0
:10F2D00002434A607047F8B5044604F17405002003
:10F2E00068606FF07E47FBF7BBFF06462068016849
:10F2F0000A0708D50097334600224FF40011204634
:10F3000000F016F860B9206801684A070AD500972E
:10F31000334600224FF48001204600F009F808B17E
:10F320000320F2BD20206870A87000202870F2BD74
:10F330002DE9F041069C05460E4690461F4628687A
:10F34000C1693140B1420CBF01200020404518D1B5
:10F3500014F1010FF3D024B1FBF782FFC01B8442EC
:10F36000EDD22868016821F4D071016000F00CF83A
:10F3700005F174002021417081700021017003208B
:10F3800000E00020BDE8F081286881684908490054
:10F390008160704701680A6822F490720A6001680F
:10F3A0008A68520852008A60202180F87610002274
:10F3B00002667047806A00F1520100220A810A80C9
:10F3C000FCF7EBBF70B590F83C20012A01D1022078
:10F3D00070BD012280F83C2003680D4A5C689D687E
:10F3E00093421CBF0B4EB34203D14A6824F470040D
:10F3F00014438A68096824F0700425F080050C43E2
:10F4000015435C609D60002280F83C20002070BDA8
:10F41000002C01400034014038B5040001D1012026
:10F4200032BD00F099F818B900F092F8FCF7FCFF33
:10F430000AE00068C16841F00101C160026842F061
:10F44000010202600020704702206870211D2068C0
:10F4500000F0DEF901206870002032BD38B50400EC
:10F4600001D1012032BD00F077F818B900F070F832
:10F4700002F023FBE8E710B500F014F800F063F8A1
:10F480001CBFDFF8DC20904209D000F053F81FBF0A
:10F49000DFF8D0209042DFF8E010884201D100F080
:10F4A0004DF862E004460122206800F04FBB38B5F9
:10F4B00000F035F800F02EF81CBFDFF8A450A94288
:10F4C00000F023F80AD0DFF8B43099421FBFDFF80C
:10F4D0009450A942DFF8A030994206D10D6A154236
:10F4E00004BF0B6A034200F01FF821680B6A134245
:10F4F00004BF0A6A024203D108684008400008605D
:10F50000012184F83D10002032BD40F2444041F218
:10F51000111270472168DFF868309942704704463D
:10F520000022206800F012BB03D14B6C23F400438F
:10F530004B647047DFF8441088427047426C42F4D5
:10F540000042426470472068DFF8341088427047F8
:10F55000002129702046704704F13C056878704707
:10F5600000340140004401402068016841F001017D
:10F570000160002010BD0000004801400040014033
:10F58000002C014010B50446206801698A0715D592
:10F59000C1688A0712D56FF002010161012222774A
:10F5A000806910F0030F204602D002F087FA03E0D2
:10F5B00002F085FA00F087F80020207720680169C2
:10F5C0004A0715D5C1684A0712D56FF004010161D9
:10F5D00002222277806910F4407F204602D002F098
:10F5E0006DFA03E002F06BFA00F06DF8002020776E
:10F5F000206801690A0715D5C1680A0712D56FF09E
:10F600000801016104222277C06910F0030F20462F
:10F6100002D002F053FA03E002F051FA00F053F87E
:10F620000020207720680169CA0615D5C168CA067E
:10F6300012D56FF01001016108222277C06910F421
:10F64000407F204602D002F039FA03E002F037FA98
:10F6500000F039F80020207720680169CA0708D532
:10F66000C168CA0705D56FF0010101612046FCF7AA
:10F670001BFF206801690A0608D5C1680A0605D57E
:10F680006FF080010161204602F01AFA20680169DA
:10F690004A0608D5C1684A0605D56FF040010161E8
:10F6A000204602F00EFA206801698A060AD5C16870
:10F6B0008A0607D56FF0200101612046BDE81040A1
:10F6C00002F000BA10BD204602F0FDB970B500F09E
:10F6D00092F801D1022070BD0120207002216170DA
:10F6E00052B1042A1BD0082A2CD00C2A3DD0102A53
:10F6F0004ED0142A60D073E03068294600F0DEF85E
:10F700003068816941F0080100F071F821F00401CE
:10F71000816131688A69286902438A6160E03068E2
:10F72000294600F00AF93068816941F4006100F06F
:10F730005EF821F4806100F05AF82A6941EA02215A
:10F7400081614DE03068294600F030F93068C169C8
:10F7500041F0080100F047F821F00401C16131686F
:10F76000CA6928690243CA613AE03068294600F054
:10F7700055F93068C16941F4006100F034F821F4B2
:10F78000806100F030F82A6941EA0221C16127E076
:10F790003068294600F069F93068416D41F0080190
:10F7A00041653068416D21F00401416531684A6D61
:10F7B000286902434A6513E03068294600F07FF962
:10F7C0003068416D41F4006141653068416D21F45C
:10F7D000806141653068416D2A6941EA02214165D5
:10F7E00000F010F870BDC1613068C1697047816177
:10F7F000306881697047064606F13C040D46207862
:10F80000012870470120607000212170002070479E
:10F810002DE9F043DFF80473D0F800C0DFF80033BF
:10F82000DFF80043DFF80053DFF80063DFF800E3A0
:10F83000DFF80083DFF80093B84218BFB0F1804FC3
:10F8400007D0484518BF404503D0704518BFB042A7
:10F850000ED14A68B8422CF0700C18BFB0F1804F3E
:10F8600042EA0C0C0CD048451CBF4045704507D0FF
:10F87000B04218BFA84203D0A04218BF984204D19A
:10F88000CA682CF4407C42EA0C0C4A692CF0800CCB
:10F8900042EA0C020260B8428A68C26218BFB042F3
:10F8A0000A68826204D0A8421CBFA042984201D1DB
:10F8B0000969016301224261BDE8F0832DE9F0414D
:10F8C000026ADFF85882DFF864E2964FDFF858C228
:10F8D000520852000262066A44688569974A0B68BA
:10F8E00026F0020615408A6816431D43404518BF9E
:10F8F00070458B4B04D060451CBFB84298420DD177
:10F90000CA6826F008061643404518BF704526F021
:10F91000040605D0604518BFB84201D0984205D111
:10F920004B698A6924F440741C4314434460856124
:10F93000496841630662BDE8F081F0B5026A22F0D1
:10F9400010020262056A436884697D4A0E681440A9
:10F950008A6844EA062425F0200545EA02156F4E20
:10F96000724AB04218BF904208D1CF6825F0800596
:10F9700045EA0715B04225F040050AD090421CBF69
:10F98000694A904205D0674EB0421CBF644A90421B
:10F9900006D14E698A6923F44063164343EA86031D
:10F9A00043608461496881630562F0BDF0B5026A15
:10F9B000624B22F480720262066A4468C5690A6872
:10F9C00026F400761D408B6846EA03261543534B08
:10F9D000564A984218BF904208D1CF6826F4006674
:10F9E00046EA0726984226F480660AD090421CBF59
:10F9F0004D4A904205D04B4B98421CBF484A90421A
:10FA000006D14B698A6924F44054134344EA031431
:10FA10004460C5614968C1630662F0BD70B5026AA1
:10FA200022F480520262036A4468C569444A00F0C5
:10FA30006DF823F4005343EA0233B0421CBF3B4A43
:10FA4000904207D0384EB0421FBF364A9042344EE3
:10FA5000B04204D14A6924F4804444EA82144460E8
:10FA6000C56149680164036270BD70B5026A354BB7
:10FA700022F480320262046A4568466D0A681E40BC
:10FA800016438B68254A24F4003444EA0344904228
:10FA90001CBF264B984207D0234A90421FBF214BE0
:10FAA00098421F4A904204D14A6925F4803545EABC
:10FAB00002254560466549688165046270BD70B580
:10FAC000026A22F480120262036A4468456D1E4A8B
:10FAD00000F01CF823F4001343EA0253B0421CBFA9
