:020000040800F2
:10000000C0270020058F0008298700082B870008DB
:100010002D8700082F8700083187000800000000A6
:100020000000000000000000000000008D900008AB
:100030003387000800000000919000083587000811
:1000400095900008999000089D900008A1900008E4
:10005000A5900008A9900008AD900008B190000894
:10006000B5900008B9900008BD900008C190000844
:10007000C5900008C9900008CD900008D1900008F4
:10008000D5900008D9900008DD900008E1900008A4
:10009000E5900008E9900008ED900008F190000854
:1000A000F5900008F9900008FD9000080191000803
:1000B00005910008099100080D91000811910008B0
:1000C00015910008199100081D9100082191000860
:1000D000259100083D8700084787000851870008E0
:1000E000299100085B8700082D91000831910008D4
:1000F00035910008399100083D91000841910008B0
:1001000045910008499100084D9100086587000855
:100110006F870008798700085191000883870008DD
:1001200055910008599100085D91000861910008FF
:1001300065910008699100086D91000871910008AF
:1001400075910008799100087D9100080000000079
:100150008191000885910008899100088D9100081F
:100160009191000895910008999100089D910008CF
:10017000A1910008A5910008000000000000000007
:10018000A9910008AD9100082DE9F04F0FF2A41CD1
:10019000A1B0DCE90089CDE900892A9DDFF8DC9B6C
:1001A000049100248DF843500D944FF0FF3882469F
:1001B00016461F460FE0B3462C461BF8011B049859
:1001C000D0470028049000F0A2800D98401C641EC7
:1001D0000D90F2D176193078252808D1002100221F
:1001E0000791089209910A920B910C920DE06A46D0
:1001F0004146304600F0DAFF050001D10D98A1E03C
:10020000D9D50125E6E741F0010116F8010F2028B4
:10021000F9D023280CD02B2804D02D2805D0302845
:1002200009D076E041F00201EFE741F00401ECE78C
:1002300041F00801E9E741F01001E6E70F9209E01B
:100240000F98484505DA00EB800402EB4402303A8F
:100250000F92761C3278A2F130000A28F0D3307861
:100260002E2818BFCDF8388022D116F8010F2A2881
:1002700007D138683860761C50F8042B38600E922D
:1002800016E02D280CBF761C002000220E920AE0FA
:1002900040B90E9A4A4505DA02EB820403EB4403A7
:1002A000303B0E93761C3378A3F130020A2AEFD349
:1002B000ADF8401021A0317800F082FF08B116F8A7
:1002C000010B8DF842009DF84200682804D1307877
:1002D00068280AD1622105E06C2804BF30786C28B8
:1002E00003D171218DF84210761C12A806903A466F
:1002F00016F8013B02A9504600F064F838B912AA7A
:1003000002A9504600F0C8F900287FF564AF4046C6
:1003100018E02A2892D13A683A6052F8040B3A6001
:1003200000280F9003D540420F9041F00401761C45
:1003300095E700000000000000000000686A6C748F
:100340007A4C000021B0BDE8F08F622820D06828E8
:1003500011D06A2803D06C2827D0712825D10868CD
:10036000C01D20F007000860D0E9002308300860B5
:10037000194610467047002A0A680A60106803D0C0
:10038000121D0A6000B217E0121D0A6080B217E069
:10039000002A0A680A60106803D0121D0A6040B281
:1003A0000AE0121D0A60C0B20AE0002A0A680A6068
:1003B000106803D0121D0A60C1177047121D0A6031
:1003C000002170477CB50D4611461C462E69B4F1DC
:1003D000250200F04F811C3A00F08480121F022A8F
:1003E00040F280800E3A00F00981521F59D0093A3C
:1003F00078D0921E16D0521E35D0521E022A71D9C4
:10040000121F30D0521F00F09880521E49D0521E49
:1004100000F0E280D21E00F0FF80921E41D0D21E7A
:100420003FD02DE195F83A406C2C09D06869421C08
:100430006A610A680A6052F8043B0A60335429E191
:100440000A680A6052F8043B0A6000930022019295
:100450004FF0FF332B636A46294600F098F90028D5
:1004600040F1188103E195F83A000122FFF76DFF92
:10047000C5E90001002904D56869411C69612D2284
:100480000DE0288F810704D56869411C69612B2222
:1004900005E0C00721D56869411C696120223254FA
:1004A0001BE095F83A000022FFF74FFFC5E9000175
:1004B00095F83800010710D5D5E90023002B08BFB7
:1004C000002A0AD044F02000782806D1686930213B
:1004D0003154401C421C6A613454214668693044DE
:1004E000E86087E00868C01D20F007000860D0E9D8
:1004F000002308300860C5E90023D5E90001C80FD2
:1005000004D06869411C69612D220DE0288F8107A4
:1005100004D56869411C69612B2205E0C00704D538
:100520006869411C69612022325468693044E8607E
:100530002146284600F036FAACE005F13A02507840
:1005400020B14FF0FF340FF6043074E010786228C9
:1005500008D0682824D06A2812D06C282ED07128A0
:100560000ED02BE00A680A6052F8040B0A6020B92A
:100570004FF0FF340FF6EC205DE0E96A017089E08E
:100580000A680A6052F8040B0A6020B94FF0FF3481
:100590000FF6D0204FE0EA6AD317C0E9002379E0D4
:1005A0000A680A6052F8040B0A6020B94FF0FF3461
:1005B0000FF6B0203FE0E96A01806BE00A680A604C
:1005C00052F8040B0A6020B94FF0FF340FF6942064
:1005D00031E0E96A01605DE00A680A6052F8040BE4
:1005E0000A60002120F0000221F0FF33C5E900235A
:1005F000EE607821284600F02DF94BE06C2285F85A
:100600003A200B680B6053F8042B0B6052BB4FF081
:10061000FF340FF684200EE095F83A206C2AF0D0D3
:100620000868086050F8044B0860EC603CB94FF073
:10063000FF340FF6482000F0EBFD201A76BD2E6B3C
:10064000002E04D5204600F003FE044608E03246A2
:100650000021204600F026FE002814BF041B34466B
:10066000AC6117E0294600F092F8002812D54FF04F
:10067000FF3076BD6869411C69612522325409E06A
:100680006969481C686125227254210002D0431C0C
:100690006B613454002076BD2DE9F0410E460546CD
:1006A0009046726B7069316AB46A121AB069521A54
:1006B000716A121AF069521A121A96F83800141B4D
:1006C00041070DD4002C0BDD2746B0682021A84738
:1006D0000028B06057D0F06A401C7F1EF062F4D151
:1006E000736942463146284600F098FC00284AD1FA
:1006F000376A002F0ADDB0683021A8470028B060B3
:1007000041D0F06A401C7F1EF062F4D1B369F268F8
:100710003146284600F082FCA8BB776A002F09DD2D
:10072000B0683021A847B06068B3F06A401C7F1EF3
:10073000F062F5D1F068B169F36942183146284694
:1007400000F06CFCF8B9B76A002F09DDB068302101
:10075000A847B060B8B1F06A401C7F1EF062F5D1C6
:1007600096F8380041070BD5002C09DDB068202130
:10077000A847B06038B1F06A401C641EF062F5D141
:100780000020BDE8F0814FF0FF30BDE8F0812DE999
:10079000F8470D46A3B02F6B002F0646904648BF82
:1007A0006FF000470FF60C1400F0A8FDD4E9002309
:1007B000696B4018CDE90123812828BF4FF0FF3035
:1007C00042D20024002F33DDD8F8001001AA684679
:1007D00000F0EEFC8146B9F1000F38D4D8F80000E3
:1007E00010B9B9F1010932D44F4521DB6869484499
:1007F00081280AD30021696303AA29463046FFF7FE
:100800004BFF040014D40020686103ABD5F814A09A
:100810004A46694603EB0A0000F076FDCA44C5F873
:1008200014A058F8040B002818BFA7EB0907C9D17A
:100830004CB903AA29463046FFF72EFF044614B9E7
:10084000002068616863204624B0BDE8F0874FF05F
:10085000FF34F8E72DE9FC4307466F293E6908BFDE
:10086000082405D041F02000782814BF0A24102461
:100870003C25D7E90023642918BF69299046994689
:1008800005D1002B03D5D8F1000869EB4909B9F16E
:10089000000F08BFB8F1000F1FD1386BE8B9082C62
:1008A0004CD197F83800010748D530203B2586F811
:1008B0003B0043E000280ED597F8380000F0140004
:1008C000102808D17B6B7969386A5B1A1B1A9A1A4F
:1008D000002AC8BF3A62BDE8F3838DF80010404695
:1008E00049462246E31700F063FD3032D0B26D1E58
:1008F0003A28019504DB9DF80000A0F151018A1807
:100900007255404649462246E31700F051FD8046A5
:100910005FEA010908BFB8F1000F03D0F868711948
:100920008842DCD3082C09D197F83800010705D597
:10093000705D302802D06D1E30207055C5F13C022C
:10094000BA617119F960386B8242B3DA821A3A627D
:100950004FF6EF70398F01403987BDE8F3832DE9F9
:10096000D04306460F4614464FF00008DFF81094B7
:1009700012E0E00707D542464B463046394600F0C4
:100980002FFE06460F464046494642464B4600F07B
:1009900027FE641080468946002CEAD1304639464D
:1009A000BDE8D0832DE9F84F05468A464AF0200479
:1009B0008EB0D5E90089612C02AE09D0286B0028E1
:1009C00048BF062003D408BF672C01D1012028634B
:1009D000D5E900014A005215521C0DD10B030BD072
:1009E000AAF1610103201A29A86102D20FF2CC6199
:1009F00010E00FF2CC610DE04A005215521C0ED1EE
:100A00000B030CD1AAF1610103201A29A86116D3A6
:100A10000FF2B461E868032200F076FCC0E1CDE992
:100A20000C01DDE90C2323F00043B3F5801F0DD248
:100A30000027002B08BF002A019703D111E00FF215
:100A40008461E7E701AA00F09DFE0AE0CD48CE49A7
:100A500000EB1350DDE90C2301900B40CB4910460D
:100A60001943C5E90001612C0DD1E86830210170FE
:100A7000821CBAF1610FEA600CBF782158214170E5
:100A80006869801C6861D5E90001CDE90C01DDE9E8
:100A90000C2333F0004104BF0028002300F04881FC
:100AA000612C40F0A080286B494600284CBF4FF0D5
:100AB000210B00F1010B404600220023DDE90C89E7
:100AC00000F098FE01990BF1010738BF89F0004949
:100AD000091F002F01918DF808200DF1090040F346
:100AE0003581A94900910646404649460022002327
:100AF00000F098FE80F029814800400D00F11C02B2
:100B000011D0002A0FDD40F2FF739A4205DBA049A5
:100B100009F000400143002011E0009B194041EA28
:100B2000025140460BE028F0000039F0004108BFB8
:100B300000280FBF49461C22494600F08BFE804624
:100B4000894600F025FFFF1F002F044609DD00F055
:100B50003DFF02460B464046494600F049FF8046AD
:100B60008946F01D072104E004F00F0200F8012D72
:100B70002411002C01DD491EF6D5491E5CBF002260
:100B800000F8012DF9D5DCE00020194602AA0A443C
:100B900000E05B1E12F80149491E8442F9D00F287B
:100BA00004D10DF10900425C521C4254002904D5C5
:100BB0000198001D02AE5B1C0190581E0CD4311828
:100BC000AAF13A040A783032D7B23A2FA8BFA21855
:100BD000401E01F80129F5D5286B002840F1A780B7
:100BE000591E2963A3E001996A4A47F2975041438D
:100BF00091FBF2F2019229F00046D2F1070204DDE6
:100C000040463146FFF7ABFE0AE0524200206249FF
:100C1000FFF7A5FE02460B464046314600F05AFF5C
:100C20008046662C286B06BF019F0A3706273F18AF
:100C3000142FC8BF142730208DF8080089460DF105
:100C4000090000E03046002F34DD064640464946A4
:100C500001F064F801460A4606F1080304200A265A
:100C6000B2FBF6F606EB860EA2EB4E02303203F82C
:100C7000012C0A22B6FBF2F202EB820EA6EB4E0624
:100C80003036401E03F8026DE9D1083F002F03F112
:100C90000806D7DD084601F055F802460B464046E7
:100CA000494600F0A5FE00223C4B00F099FC80462E
:100CB0008946CBE70DF10901401A0DF1090604E060
:100CC0000199491E401E0191761C31783029F7D0D8
:100CD000662C02D10199491C03E0652C0CBF01214F
:100CE00000212B6BCB189842B8BF431E002B1ED49B
:100CF000834204DAF05C3528A8BF392000DA3020BE
:100D00001946721E02EB010800E05B1E18F80199FB
:100D1000491E8145F9D0392802D1705C401C7054BD
:100D2000002904D50198401C16465B1C01900198CF
:100D300000B200901BB232465146284600F034F80B
:100D40002EE0C61D002F3FF7CFAE30460DF1090152
:100D5000401A03465845C8BF5B46002B0DF10906F3
:100D60003FF53AAF8342BFF60FAF0DF10900C15C0A
:100D700007297FF709AF0F2007E70000CBCCCC0C89
:100D80000000244002FCFFFFFFFF0F800000E03F57
:100D90000000F07FA08601000000F03F84D797415B
:100DA0000FB0BDE8F08F00002DE9F84783B006468C
:100DB0008A461746984600F0FDF9B8F1000F406AE0
:100DC000356B90F8009002DC4FF00108BFA74AF0A5
:100DD0002000BDF93040662808BF641C15D0672884
:100DE00040F0848014F1040FC0F28680AC4280F29F
:100DF000838096F83800641C010702D4A845B8BF68
:100E0000454620B22D1A48BF00250FFA84FAF06833
:100E1000B169BAF1000F25DC4A1C30234354002D80
:100E200003DC96F83800010703D5F06800F802905B
:100E3000521C15EB0A0FB8BF6C4220B24419414254
:100E40004445B8BFA046B26171620FFA88F5F561FA
:100E5000F068B3692A463946184400F055FA641B15
:100E6000B462C4E022B29045084417DA42463946DB
:100E700000F04AFAB0694044B061AAEB0801002DC5
:100E8000716203DC96F838100A0705D5F16801F89D
:100E90000090F069401CF061B562A8E0394600F0AE
:100EA00033FAB069002D5044A8EB040803DC96F82F
:100EB00038100A0703D5F16801F80090401CB061B2
:100EC0000FFA88F08542F368B069B8BFA8460FFAF8
:100ED00088F207EB0A01184400F016FAB1690FFA1C
:100EE00088F00144B161281A706280E0BAF1610FA4
:100EF00014D14FF0700A16E0A84504DA96F83810BD
:100F00000A0758BF45466D1E48BF0025BAF1670F56
:100F100014BF4FF0450A4FF0650A04E0BAF1410FE3
:100F200008BF4FF0500AB169F368481CB061002D4A
:100F300017F8012B5A5403DC96F838100A071BD512
:100F4000F168431CB36101F80090002D14DDA8F195
:100F500001080FFA88F039468542F768B8BFA846FD
:100F60000FFA88F2F81800F0CFF9B0690FFA88F19B
:100F700008446D1AB0617562F068B1690844002CCC
:100F800080F800A003D42B224270811C03E02D21A5
:100F900041706442811C00206A460AE023460A240C
:100FA00093FBF4F404EB8405A3EB450302F8013B47
:100FB000401C24B2002CF1DC012806DC4AF020029F
:100FC000652A04BF302201F8012B48B9302001F80E
:100FD000010B07E0401E1DF80030303301F8013BE3
:100FE0000028F7DCF268B0691044091AF16196F83C
:100FF000380000F0140010280DD17269B169706AD0
:101000008A18F1698218B06A8A188218706B824255
:10101000BCBF821A326204B0BDE8F087F8B505465D
:101020000E4617461C46002074B117F8011BB06825
:10103000A847B06030B1F06A401CF0620020641E26
:10104000F3D1F2BD4FF0FF30F2BD00007072696E57
:1010500074665F733A20256E20646973616C6C6FEF
:10106000776564007072696E74663A20626164200C
:10107000256E20617267756D656E74007072696EA1
:1010800074665F733A206261642025732061726721
:10109000756D656E740000007072696E74665F73C2
:1010A0003A2062616420256C7320617267756D65FA
:1010B0006E74000000000000000000006E616E0011
:1010C0004E414E00696E6600494E46003000F0B455
:1010D0000246106895681318506803EB5004C00767
:1010E0001DD54D441BE013F8017B05F8017B491E1B
:1010F000F9D1A0B1B60813F8011B06F00306032EC0
:1011000008BF13F8016B01EB06214942801C2944FA
:1011100005D011F8016B05F8016B401EF9D1A3420F
:101120000ED013F8016B16F0030104BF13F8011B76
:10113000C91C30090F28DAD113F8010B0F30D6E79C
:10114000F0BC02F10C0070471B48704770B4536844
:10115000D418042B09DA41B1057804F8015B10F8C2
:10116000016B16B15B1C491EF3E7536070BC7047FE
:1011700038B514461D4661B1FFF7E8FF61686A6B38
:10118000204690476FF00102811A02D0491E01D01B
:1011900001E003E005E00021616032BD6FF0010075
:1011A00032BD4FF0FF3032BDDA6B1047024BDFE744
:1011B000014BF9E701487047D8000020A00000204B
:1011C000C9B202788A421AB11CBF10F8012FF9E7A0
:1011D00018BF0020704730B4002513E050F8042BEE
:1011E000D30744BFA9F101039A18091F042942F843
:1011F000045BFAD213468C0744BF15809B1CC907B9
:1012000048BF1D7050F8041B0029E7D130BC70475F
:1012100080B500B906A005490B681BB12222002148
:10122000984701E000F09BFD222002BDB817002086
:10123000636F6E73747261696E742068616E646C42
:1012400065723A20626164206D6573736167650041
:1012500000F10103810704D010F8011B820781B15E
:10126000FAD10268A2F10131914311F0803104BF3B
:1012700050F8042FF6E709BAB1FA81F100EBD1007A
:10128000401CC01A7047B1F5807F02D34FF0FF3089
:1012900070470170012070470078401E8041C043B4
:1012A000C00F7047C9B2830706D0521E22D310F870
:1012B000013B9942F7D11FE0083A13D302F104022F
:1012C00041EA012141EA014150F8043B121F21BFCC
:1012D0004B40A3F1013C2CEA030C1CF0803FF3D0FF
:1012E000C9B2001F083210F8013B521E28BF91EA14
:1012F000030FF8D818BF0120401E704780B5FFF7D4
:1013000023FF006C02BD000062B38B0708D0521EA1
:1013100011F8013B00F8013B00F024808B07F6D167
:10132000830740F0208000BF103A07D330B4B1E803
:101330003810103AA0E83810F9D230BC530724BF57
:10134000B1E80810A0E8081044BF51F8043B40F889
:10135000043BD20724BF31F8022B20F8022B44BFF4
:101360000B7803707047121F17D35B0009D151F837
:10137000043B20F8023B1B0C121F20F8023BF6D264
:101380000BE051F8043B00F8013B1B0A20F8023B3C
:101390001B0C121F00F8013BF3D238BF121D521E66
:1013A00024BF11F8013B00F8013BF8D8704700005A
:1013B000BBBBE1B1B2F5803F80F07E80022A1ED92E
:1013C0008C46B1FBF2F102FB11C31B0443EA10434C
:1013D000B3FBF2FC02FB1C3380B240EA0343B3FBD5
:1013E000F2F002FB103240EA0C4000237047022A60
:1013F00005D98446B0FBF2F002FB10C270474AB137
:1014000005D100F0010249085FEA30007047002270
:101410000023704700F0A6BC0B0002000021002052
:101420007047904271EB030CF6D3B3F5803F2FD297
:10143000F0B5B3FA83F7B1FA81F4A7F10F0E3D1BB3
:101440005340CEF1200602FA0EF2F3415340B5F1BB
:101450000F0746D80F3C2C444140C4F12006A04061
:10146000F1414140B1FBF3F603FB1611A2FB064527
:10147000001BA94102D2761E8018594180EA010260
:1014800021FA0EF362FA0EF200215A403046F0BD06
:1014900030B4B1FBF3FC03FB1C11A2FB0C45001B99
:1014A000A94103D2ACF1010C8018594130BC02466D
:1014B0000B46604600217047B2F1807F65D3F0B5DE
:1014C000B2FA82F7B1FA81F4C7F10F063D1B22FA96
:1014D00006F307F1110EF24120355A40B5F10F071E
:1014E000B8D94140C4F12006A040F1414140B1FBD0
:1014F000F3FC03FB1C11A2FB0C45001BA94103D20A
:10150000BCF1010C801859410F2F12D30F3FC903B2
:1015100041EA5041B1FBF3F603FB1611A2FB06456D
:10152000D4EBC030A94102D2761E8018594146EA58
:10153000CC3C07B34140C7F12006B840F1414140DF
:10154000B1FBF3F603FB1611A2FB0645001BA941F4
:1015500002D2761E8018594180EA010221FA0EF368
:10156000C7F1200462FA0EF20CFA07F05A402CFA86
:1015700004F13043F0BD80EA010221FA0EF30021AC
:1015800062FA0EF260465A40F0BD8C46B1FBF2F1B1
:1015900002FB11C31B0243EA1063B3FBF2FC02FB24
:1015A0001C331B024CEA002043EA1063B3FBF2FC3D
:1015B00002FB1C331B024CEA002043EA1063B3FB1E
:1015C000F2FC02FB1C331B024CEA002043EA1063CE
:1015D000B3FBF2FC02FB1C324CEA002000237047F4
:1015E000B0B581EA030C0CF0004C40F2FF7515EA2F
:1015F00011541DBF15EA1357AC42AF4239E0E4194C
:1016000023EA455343F48013C90241F0004141EA03
:10161000505EC7021100A7FB020200284FF0000035
:10162000EEFB01204FF00001E3FB072118BF42F061
:101630000102401800214941E3FB0E01A4F580643A
:101640000F0302D252004041494154F101046CDDC4
:10165000470872F1004250F1000051EB0451A1F52E
:1016600080115CBF41EA0C01B0BD4CEA055100207D
:10167000B0BD05EA1357AC4214BFAF4241E050EA97
:10168000410E1CBF52EA430E02E061460020B0BD8D
:1016900024423C441BD15FEA070EF6D0090302BF87
:1016A00001460020AEF1140EB1FA81F7AEEB07044B
:1016B00001FA07FE0C37C7F1200100FA07F7C8400E
:1016C0004EEA000E23EA455343F48013A2E733F0B9
:1016D0000043B3FA83F704BFB2FA82FE77440B3FAC
:1016E000E41BB7F1200E2FBF02FA0EF3BB40C7F187
:1016F000200E22FA0EFE38BF43EA0E03BA40641CE5
:1017000082E750EA410E14BF52EA430E6FF0000127
:101710004FF4001717EB430F8ABF194617EB410F21
:10172000B5E74CEA05510020B0BDD4F10104B4F195
:1017300020070FDAC4F12007520828BF42F0010247
:1017400010FA07F501FA07F7E1BF2A43E0403843F2
:10175000E1400FE0352C98DCC7F1200452EA40024A
:1017600020FA07F218BF42F0010231FA07F0A14057
:101770000A43002172F1004250F1000051EB0C01CC
:10178000B0BD000010B5144600F002F8226010BD94
:10179000C1F30A5343B14A0012F5001F28D2A3F245
:1017A000FE32A1EB0251704750EA410C20D001F00B
:1017B000004C31EA0C01B1FA81F204BFB0FA80F3B7
:1017C000D2180B3AB2F120032CBF00FA03F191407A
:1017D00041EA0C013EBFC2F1200C20FA0CF3194380
:1017E0009040524240F2FD33D21A01EB0351704750
:1017F000002270474FF4001C1CEB410F94BF1CEB00
:10180000430F09E041EA030C50EA4C0C52EA0C0C7D
:1018100003D2994208BF9042704714BF8B42824264
:10182000704700004FF4001C1CEB410F94BF1CEBF1
:10183000430F09E041EA030C50EA4C0C52EA0C0C4D
:1018400003D28B4208BF8242704714BF9942904234
:1018500070470000124254D440F2FF7C1CEA11533E
:101860000FD0634531D09B1863453CBF01EB02515B
:10187000704701F0004141EA0C510020AFF30080B5
:10188000704750EA410320D001F0004C91EA0C016E
:101890001CD0B1FA81F30B3B9A420DD9D21A994070
:1018A00051EA0C01C3F1200C20FA0CFC6144984071
:1018B000531C40F2FF7CD7E7914041EA0C01C2F192
:1018C000200C20FA0CF3194390407047B0FA80F3D3
:1018D0001533202BE0D3202AEED3203A203B9A4226
:1018E00009D9D21A00FA03F141EA0C010020531C75
:1018F00040F2FF7CB8E700FA02F141EA0C01002057
:101900007047524240F2FF7C1CEA11530DD06345F0
:10191000DBD0B2EB030C3CBFA1EB025170470CF1E2
:10192000010221EA035141F4801150EA410CCCD06C
:1019300001F0004C352A27DC30B481EA0C01B2F109
:10194000200309DAC2F12003044601FA03F5D0406E
:101950002843D1409C400CE0C3F12002450020FA0E
:1019600003F418BF44F0010421FA03F091400C4342
:10197000002174F1004550F1000051EB0C012442AC
:1019800030BC7FF47BAF70476146002076E70000F3
:10199000C1F30A5340F2FE329B1A14DDD3F1200347
:1019A0004FEAE17208DDC90241EA505141F00040BE
:1019B000D84080185040704703F2E13010B1D24354
:1019C00082F000407047002070470000C11768B1E6
:1019D0004840401AB0FA80F29040D21CC907C2F5C4
:1019E000846241EA025202EBD021400570470000B8
:1019F00070B44FF0004591EA030F40F1B5816B40A0
:101A0000841A71EB030603D2001BB1411219734112
:101A10004FF4001C1CEB410F34BF7CEB430442E04D
:101A20000C0DA4EB1356352E4FDC45EAC323DB0A1D
:101A300045EAC121C912B6F120050DDD63FA05F6AC
:101A4000EB4086EA0305124218BF45F00105C018B5
:101A500051F100010CD213E062FA06F5F240554054
:101A6000F3415A40B340F3405A408018594107D3DC
:101A700049085FEA30005FEA350528BF45F00105F7
:101A800001F58011420875F1004250F1000041EB70
:101A900004514E0016F5001F70BC38BF704700207F
:101AA000090D090570471CEB410F10D252EA43069D
:101AB0000BD0BCEB410F05D80C0DAB43661E342E8A
:101AC000B6DD02E0AB438018594170BC704770BC72
:101AD00070470000F0B540F2FF7581EA030C0CF08E
:101AE000004C15EA11541DBF15EA1357AC42AF4222
:101AF000E5E0BC41C1F31301C3F31303801A99411C
:101B000043F4801304D2641E4000494180185941B7
:101B1000C90241EA5051B1FBF3F603FB1611A2FBD7
:101B20000675D7EBC020A94102D2761E8018594114
:101B3000C90241EA5051B1FBF3FE03FB1E11A2FBA7
:101B40000E75D7EBC020A94103D2AEF1010E80186B
:101B50005941890241EA9051760546EA8E2EB1FB41
:101B6000F3F603FB1611A2FB0675D7EB8020A94103
:101B700002D2761E80185941C90241EA50514EEAFC
:101B8000060EB1FBF3F603FB1611A2FB0675D7EBAD
:101B9000C020A94102D2761E80185941C90241EAEB
:101BA0005051B1FBF3F703FB1711A2FB0735D3EB41
:101BB000C020A94167F100070CBF004247F00107B0
:101BC00066F3D5274FEA1E31B80814F5806412DD9C
:101BD000BD0775F1004250EB0E5051EB045111F569
:101BE000801F5CBF41EA0C01F0BD4CF07F6141F009
:101BF000E0410020F0BDBD076D0840EA0E5041F401
:101C00008011D4F10104B4F120060ADAC4F12006EF
:101C10000200E04001FA06F3E1401843B2401543E8
:101C20000EE0342C13DCC6F1200445EA40056D08B3
:101C300020FA06F2154321FA06F0A1400D430021D7
:101C400075F1004250F1000051EB0C01F0BD002095
:101C50005FEA0C01F0BDCFB992185B41B3FA83F78C
:101C600004BFB2FA82F6BF190B3FB7F120062FBFAF
:101C700002FA06F3BB40C7F1200622FA06F638BF87
:101C80003343BA401CB1E419641E33E77F4231F09C
:101C90000041B1FA81F404BFB0FA80F6A4190B3CFC
:101CA000B4F120062FBF00FA06F1A140C4F12006CE
:101CB00020FA06F638BF3143A0403C1B1AE7AC427D
:101CC0001ABF05EA1357AF4212E050EA41061CBFA3
:101CD00052EA4306BFE750EA4107304661461CBF5F
:101CE00041EA0551F0BD52EA430C08BFC143F0BDC3
:101CF00000204FF4001616EB410F98BF16EB430F70
:101D000008BF16EB410F24BFC14305E016EB430F9C
:101D10000CBF61464CEA0551F0BD0000400D49186A
:101D200040EA81200CD2490DA1F58061491C40F0A8
:101D3000004005DBD1F11F0154BFC840C0177047F8
:101D400000207047014648B1B0FA80F18840C91CB4
:101D5000C1F58461090501EBD021400570470120E0
:101D600000F0B8B870470000841A71EB030604D283
:101D70006E40001BB141121973414FF4001C1CEB63
:101D8000410F34BF7CEB430683E00C0DA4EB1356EC
:101D9000362E00F37C80012E45EAC32341DC43EA62
:101DA000525312BFD20292025B08240545EAC121B8
:101DB00041EA5051D2EBC020994125D407D1B0FA65
:101DC00080F610FA06F162D00020203608E0B1FA61
:101DD00081F6B140C6F1200220FA02F21143B04070
:101DE0004FEAF474B4EB465434F001064FEA74043D
:101DF0000AD8D6F50016760D04F00044F04061FADA
:101E000006F25040F1404840C00A40EA415021F0FB
:101E1000004128BF5FEA500550F1000044EBD1219A
:101E200035E0DB0A45EAC121C90AB6F120050EDD1D
:101E300042EA0242120CC5F1200603FA06F6EB4014
:101E400042EA06056D42984161F100010DE062FA37
:101E500006F5F240554063FA06FC82EA0C02F340B4
:101E60005A406D42904161EB030111F4801F05D18E
:101E7000641E620502D06D004041494121F4801189
:101E8000430875F1004350F1000041EB045170BC70
:101E900070471CEB410F15D223F0004352EA430672
:101EA0000BD04FEA4C0CBCEB410F04D80C0D661E56
:101EB000342EB7DDEBE7801A994150EA410608BF9E
:101EC0000021E4E708BF1CEB430F28BF6FF00001BF
:101ED000DDE7000080B5AFF30080024A1100182052
:101EE000ABBEFBE726000200BFF34F8FDFF8A81A56
:101EF0000A6812F4E062DFF8000C02430A60BFF3E4
:101F00004F8F00BFFDE7704738B5DFF8904ADFF824
:101F1000905ADFF8900A29688847206020680028D6
:101F200006D0DFF8D82B5FF4612120686B689847F2
:101F300031BD70472DE9F841ADF51B7D5FF4C0144C
:101F400005A800F045FEDFF8605AE86CC00503D034
:101F5000EE6C760A761C01E0EE6C760A002718E03B
:101F60004FF4007100220DF16C08404601F03AFB7D
:101F70004FF400721BA92000DFF8303A1B69984724
:101F80004FF400721BA905A801F0F8F914F50074CC
:101F90007F1C701E8742E3DBE96C771E4FF40070F4
:101FA00000FB1717390000220DF16C08404601F0C4
:101FB00019FB3800020092B21BA92000DFF8EC39AF
:101FC0001B6998473A001BA905A801F0D7F901A998
:101FD00005A801F01DFA0097761E33004FF4007239
:101FE000E96CDFF8DC0A01F031FB002406E001A80F
:101FF000015DDFF80C0B01F029FB641C102CF6DBF3
:10200000102101A801F036FB0DF51C7DBDE8F08123
:1020100038B5FFF78FFF0400DFF88C59286D844234
:1020200021D1DFF8A00A007840071AD5DFF8980A16
:1020300001F00CFBA6A001F009FB00F0C5FD0100BA
:1020400089B2DFF8C00A01F001FB01F030FB2A6D14
:102050002100DFF8780A01F0F9FADFF8AC0A01F0A4
:10206000F5FA012020E0DFF85C0A007880071AD535
:10207000DFF8980A01F0EAFA95A001F0E7FA00F01B
:10208000A3FD80B20100DFF87C0A01F0DFFA01F065
:102090000EFB2A6D2100DFF8780A01F0D7FADFF88D
:1020A000680A01F0D3FA002032BD80B501004FF478
:1020B000D272DFF8600A01F020FCC0B202BD80B528
:1020C00001004FF4D272DFF84C0A01F0D2FBC0B22B
:1020D00002BD70B5DFF8D0480020A4F8A2014FF48B
:1020E0008051FF22DFF8305A2E00300001F07AFADA
:1020F0004FF4D27221002E003000FFF705F94FF4A3
:102100008051280001F044FCA4F8A2012000FFF750
:10211000D6FF70BD2DE9F0411424DFF88C68300043
:10212000FFF7C3FFB6F8A2014FF6FF71884203D153
:10213000306810F1010F66D0B6F8A2510020A6F861
:10214000A2014FF48051FF22DFF8CC79B846404617
:1021500001F048FA4FF4D272B84631004046FFF71A
:10216000D3F84FF48051380001F012FC0600DFF87C
:102170005479387880071CD5DFF8900901F066FAA9
:1021800053A001F063FA00F01FFD80B20100DFF8F8
:10219000740901F05BFA01F08AFA2A0092B2310068
:1021A00089B2DFF8780901F051FADFF85C0901F033
:1021B0004DFAB6B2ADB2AE4204D0641E2000C0B239
:1021C0000028AAD1E4B2002C3DD13878400718D5B8
:1021D000DFF8F40801F03AFA3DA001F037FA00F018
:1021E000F3FC80B20100DFF81C0901F02FFA01F0C6
:1021F0005EFADFF82C0901F029FADFF80C0901F08A
:1022000025FA002020E0DFF8BC080078400718D548
:10221000DFF8B40801F01AFA2DA001F017FA00F067
:10222000D3FC80B20100DFF8DC0801F00FFA01F006
:102230003EFADFF8F00801F009FADFF8CC0801F007
:1022400005FA002000E00120BDE8F08180B501F032
:1022500012FC48F29100DFF8D018086001F018FC79
:1022600001BD0021DFF8C4180968C90517D4DFF8DB
:10227000C0180A884FF6FF739A4202D15FF48011AA
:1022800004E00A88DFF8AC1811EA8221491011F144
:102290000061884201D2012018E0022016E0DFF838
:1022A00090180A884FF6FF739A4202D15FF48011AA
:1022B00004E00A88DFF87C1811EA8221491011F144
:1022C0000061884201D2022000E001207047000036
:1022D0005B235D0010B400214FF6FF71DFF850283A
:1022E00013888B4202D15FF4801304E01488DFF876
:1022F000443813EA84235B1013F10063984203D23D
:1023000010F17840C00A0FE013888B4202D15FF4CD
:10231000801104E01288DFF81C1811EA8221B0EB6A
:102320006100B0F10060C00A10BC704730B585B0E4
:10233000002000200020009001F09DFB4FF40040A1
:10234000DFF8E4170860DFF8F0572800FFF7C2FF56
:1023500004002800FFF785FF0021019102900394FB
:10236000D4F180040494694601A801F069FC0028B6
:1023700003D001F08DFB012021E0DFF8C00701F060
:1023800080FD00200190DFF8B8472000FFF769FFCB
:1023900002902000FFF79EFF0390DFF8A807FFF7E9
:1023A00099FF0490694601A801F04AFC002803D077
:1023B00001F06EFB012002E001F06AFB002005B095
:1023C00030BD2DE9F04106000C00904600250020AC
:1023D00001F051FB002701E008367F1CB7EB580FD6
:1023E0001AD2DFF86407864216D204EBC700D0E9A0
:1023F00000233100002001F0E3FA00280BD1D6E9D8
:10240000002304EBC700D0E900018B4201D18242D6
:10241000E2D0022500E0032501F03AFB2800BDE8E8
:10242000F08170B5ADF5806DDFF80C475FF4C01535
:102430000020FFF77BFF002638E04FF480626946FA
:102440007019DFF868351B69984769464FF4807248
:102450003019FFF7B6FF00281FD0DFF868060078B4
:10246000800718D5DFF8A40601F0F0F82AA001F0E3
:10247000EDF800F0A9FB80B20100DFF8880601F05A
:10248000E5F801F014F9DFF8C40601F0DFF8DFF831
:10249000780601F0DBF8FFF727FD20A001F0D6F861
:1024A000DFF8980601F0EDFC16F58066DFF8F80419
:1024B000C06C8642C1D3DFF80C060078000718D53F
:1024C000DFF88C0601F0C2F813A001F0BFF800F0AD
:1024D0007BFB80B20100DFF82C0601F0B7F801F0B9
:1024E000E6F8DFF8700601F0B1F8DFF81C0601F03D
:1024F000ADF801200DF5806D70BD80B5DFF8A80442
:1025000000214164002101650021C1640021816432
:10251000FFF7DFFD01BD00005B235D002E2E2E00C6
:1025200038B5FFF7F7FD002801D1002041E1DFF8C1
:102530009445207800071DD5DFF8140601F086F8D1
:102540009CA001F083F800F03FFB010089B2DFF8A6
:10255000B40501F07BF801F0AAF8DFF8FC25DFF8FC
:102560004804416CDFF8F40501F070F8DFF89805D5
:1025700001F06CF8DFF83054686CDFF8DC15884245
:1025800040F01681E86C00281FD12078800718D50C
:10259000DFF8780501F05AF886A001F057F800F04E
:1025A00013FB80B20100DFF85C0501F04FF801F089
:1025B0007EF8DFF8AC0501F049F8DFF84C0501F0D2
:1025C00045F8FFF79AFF0020F3E02078000718D5C0
:1025D000DFF87C0501F03AF876A001F037F800F05A
:1025E000F3FA80B20100DFF81C0501F02FF801F0CA
:1025F0005EF8DFF8700501F029F8DFF80C0501F04E
:1026000025F82078C00618D5DFF85C0501F01EF823
:1026100068A001F01BF800F0D7FA80B20100DFF8E3
:10262000E40401F013F801F042F8DFF8400501F08E
:102630000DF8DFF8D40401F009F82078C0061BD5A6
:10264000DFF8240501F002F85AA000F0FFFF00F0C7
:10265000BBFA80B20100DFF8AC0400F0F7FF01F034
:1026600026F8AB6C2A6DE96CDFF8040500F0EEFF8C
:10267000DFF8940400F0EAFF2078C00618D5DFF8F0
:10268000E80400F0E3FF4BA000F0E0FF00F09CFA4C
:1026900080B20100DFF86C0400F0D8FF01F007F809
:1026A000DFF8C80400F0D2FFDFF85C0400F0CEFFD2
:1026B0002078000718D5DFF8980400F0C7FF3DA088
:1026C00000F0C4FF00F080FA80B20100DFF83404AB
:1026D00000F0BCFF00F0EBFFDFF8980400F0B6FF5D
:1026E000DFF8240400F0B2FFFFF792FC00281FD1AE
:1026F0002078000718D5DFF8580400F0A7FF2DA0B8
:1027000000F0A4FF00F060FA80B20100DFF8F403EB
:1027100000F09CFF00F0CBFFDFF85C0400F096FFB8
:10272000DFF8E40300F092FFFFF7E7FE002040E04F
:102730002078000718D5DFF8180400F087FF1DA0E7
:1027400000F084FF00F040FA80B20100DFF8B4032B
:1027500000F07CFF00F0ABFFDFF8200400F076FF14
:10276000DFF8A40300F072FFFFF75BFE01281FD122
:10277000FFF7C3FE2078000718D5DFF8D40300F078
:1027800065FF0CA000F062FF00F01EFA80B20100AD
:10279000DFF8700300F05AFF00F089FFDFF8E00374
:1027A00000F054FFDFF8600300F050FF012000E06C
:1027B000002032BD5B235D0010B5DFF87C4321684B
:1027C000DFF8C0030140B1F1805F2ED1BD48007831
:1027D000C00617D5DFF8900300F038FF6DA000F0B9
:1027E00035FF00F0F1F9010089B2DFF8180300F0BD
:1027F0002DFF00F05CFFDFF8900300F027FFC248D8
:1028000000F024FF012080F31088DFF88003DFF858
:10281000801309680160DFF87C1300680860206895
:1028200080F30888086880471AE0A6480078C00648
:1028300016D5DFF8340300F009FF56A000F006FFBC
:1028400000F0C2F980B20100AE4800F0FFFE00F0D7
:102850002EFFDFF8440300F0F9FEAB4800F0F6FE6F
:1028600010BD10B501F014FB00F0A2F801F01CFB44
:1028700001F0B2FB01F09CFC01F07EFD01F0EEFFE7
:10288000FFF7E4FCFFF740FB02F0ACF98D4C207839
:10289000C00614D5B44800F0D9FE3EA000F0D6FE24
:1028A00000F092F9010089B2964800F0CFFE00F0E6
:1028B000FEFE82A000F0CAFE934800F0C7FE20781A
:1028C000C00614D5A84800F0C1FE32A000F0BEFE3C
:1028D00000F07AF980B201008A4800F0B7FE00F0FB
:1028E000E6FEAE4800F0B2FE874800F0AFFE20786A
:1028F000C00616D59C4800F0A9FE26A000F0A6FE52
:1029000000F062F980B201007E4800F09FFE00F006
:10291000CEFEA34AA349A44800F098FE7A4800F0EE
:1029200095FE2078C00614D58F4800F08FFE19A0C0
:1029300000F08CFE00F048F980B20100714800F010
:1029400085FE00F0B4FE994800F080FE6E4800F06D
:102950007DFEFFF7E5FDFFF72FFF2078C00614D5B9
:10296000814800F073FE0BA000F070FE00F02CF91F
:1029700080B20100634800F069FE00F098FE8C48C8
:1029800000F064FE604800F061FE4FF47A7002F0DF
:102990004BF9E2E75B235D000CED00E09C170020A3
:1029A0008C000020A08F0008701100200000002083
:1029B00000B5B7B07F48016831F0180101600D2003
:1029C00026905FF4803027900120289001202B90E2
:1029D0000220309003203190012032901420339057
:1029E00007203490022035900220369026A802F06D
:1029F0002BF9002804D04FF425716F4800F0E6F859
:102A00000F200090032001900020029000200390EE
:102A1000002004900321684602F09FFB002804D0A8
:102A200040F2A221644800F0D1F8644805900020EB
:102A30001390002014900020159000201690002084
:102A400017905FF0805022904FF480702590032003
:102A5000069001200790102008900720099002207E
:102A60000A9002200B905FF080700C9005A802F095
:102A70002BFD002804D040F2B9214F4800F0A6F801
:102A80004FF4007003F072F8002804D04FF4307156
:102A9000494800F09BF802F09EFC4FF47A71B0FBBD
:102AA000F1F003F033F9042003F034F900220F2190
:102AB0005FF0FF3003F00FF937B000BD0A000000EF
:102AC000848800089C000020B88F0008708B0008E4
:102AD00010B504000A2C05D10D2139480068394A87
:102AE0009268904720000100C9B235480068354A15
:102AF00092689047200010BD0400FA05071F0008E7
:102B0000A88F0008D08F0008D88F0008B08F000869
:102B10009C8B000800F80708700100206C890008F1
:102B2000F0890008DC8A0008102002400000014003
:102B3000E075FF1F00FC3F0000A000088017002088
:102B40000000040800A00708F99F0708C88D0008C6
:102B5000C08F0008208F0008AA55BBAA788C0008F7
:102B60002C8A0008E48E0008C88F0008A48A000898
:102B7000108B0008708E0008E48D0008C88C0008D7
:102B80002C8F00080000FE1F1C8E000898170020E4
:102B900004A0000894170020848E0008D88800083C
:102BA000448F0008388F0008548D0008008E0008FC
:102BB000988E000890100240248900081F400200EF
:102BC0009C1700208C00002000207047FEE70000CA
:102BD0000021016000214160DFF8F4188160DFF816
:102BE000F418C160DFF8F0180161DFF8F0184161F6
:102BF0007047F0B490B00A784B7852EA03228B7891
:102C000052EA0342CB7852EA036200926A460B7999
:102C10004C7953EA04238C7953EA0443CC7953EA80
:102C2000046353600B7A4C7A53EA04238C7A53EA98
:102C30000443CC7A53EA046393600B7B4C7B53EAE6
:102C400004238C7B53EA0443CC7B53EA0463D360B4
:102C50000B7C4C7C53EA04238C7C53EA0443CC7CED
:102C600053EA046313610B7D4C7D53EA04238C7D8E
:102C700053EA0443CC7D53EA046353610B7E4C7EDC
:102C800053EA04238C7E53EA0443CC7E53EA046364
:102C900093610B7F4C7F53EA04238C7F53EA0443F8
:102CA000CC7F53EA0463D36191F8203091F821403E
:102CB00053EA042391F8224053EA044391F8234055
:102CC00053EA0463136291F8243091F8254053EAE3
:102CD000042391F8264053EA044391F8274053EA2D
:102CE0000463536291F8283091F8294053EA042391
:102CF00091F82A4053EA044391F82B4053EA0463C5
:102D0000936291F82C3091F82D4053EA042391F806
:102D10002E4053EA044391F82F4053EA0463D362F0
:102D200091F8303091F8314053EA042391F8324061
:102D300053EA044391F8334053EA0463136391F870
:102D4000343091F8354053EA042391F8364053EA81
:102D5000044391F8374053EA0463536391F83830E1
:102D600091F8394053EA042391F83A4053EA044376
:102D700091F83B4053EA0463936391F83C3091F837
:102D80003D4053EA042391F83E4053EA044391F84E
:102D90003F1053EA0163D3638368C66805694469D9
:102DA00094EA0507374067400099CF19DFF83017DC
:102DB000CF19FB1816EB736395EA06071F406F40A7
:102DC0005168CF19DFF81C17CF193C1913EB345495
:102DD00096EA0307274077409168CF19DFF8081774
:102DE000CF197D1914EBF53593EA04072F405F40A6
:102DF000D168CF19DFF8F416CF19BE1915EBB62636
:102E000094EA0507374067401169CF19DFF8E016EB
:102E1000CF19FB1816EB736395EA06071F406F4046
:102E20005169CF19DFF8CC16CF193C1913EB345484
:102E300096EA0307274077409169CF19DFF8B81663
:102E4000CF197D1914EBF53593EA04072F405F4045
:102E5000D169CF19DFF8A416CF19BE1915EBB62624
:102E600094EA050737406740116ACF19DFF89016DA
:102E7000CF19FB1816EB736395EA06071F406F40E6
:102E8000516ACF19DFF87C16CF193C1913EB345473
:102E900096EA030727407740916ACF19DFF8681652
:102EA000CF197D1914EBF53593EA04072F405F40E5
:102EB000D16ACF19DFF85416CF19BE1915EBB62613
:102EC00094EA050737406740116BCF19DFF84016C9
:102ED000CF19FB1816EB736395EA06071F406F4086
:102EE000516BCF19DFF82C16CF193C1913EB345462
:102EF00096EA030727407740916BCF19DFF8181641
:102F0000CF197D1914EBF53593EA04072F405F4084
:102F1000D16BCF19DFF80416CF19BE1915EBB62601
:102F200095EA060727406F405168CF19DFF8F01582
:102F3000CF19FB1816EBF36396EA03072F4077408F
:102F40009169CF19DFF8DC15CF193C1913EBF45454
:102F500093EA040737405F40D16ACF19DFF8C815FC
:102F6000CF197D1914EBB54594EA05071F4067405A
:102F70000099CF19DFF8B415CF19BE1915EB363605
:102F800095EA060727406F405169CF19DFF8A01571
:102F9000CF19FB1816EBF36396EA03072F4077402F
:102FA000916ACF19DFF88C15CF193C1913EBF45443
:102FB00093EA040737405F40D16BCF19DFF87815EB
:102FC000CF197D1914EBB54594EA05071F406740FA
:102FD0001169CF19DFF86415CF19BE1915EB363614
:102FE00095EA060727406F40516ACF19DFF8501560
:102FF000CF19FB1816EBF36396EA03072F407740CF
:10300000916BCF19DFF83C15CF193C1913EBF45431
:1030100093EA040737405F40D168CF19DFF82815DD
:10302000CF197D1914EBB54594EA05071F40674099
:10303000116ACF19DFF81415CF19BE1915EB363602
:1030400095EA060727406F40516BCF19DFF800154E
:10305000CF19FB1816EBF36396EA03072F4077406E
:103060009168CF19DFF8EC14CF193C1913EBF45425
:1030700093EA040737405F40D169CF19DFF8D814CD
:10308000CF197D1914EBB54594EA05071F40674039
:10309000116BCF19DFF8C414CF19BE1915EB3636F2
:1030A00095EA060767405169CF19DFF8B414CF19C4
:1030B000FB1816EB337396EA03076F40116ACF19BA
:1030C000DFF8A014CF193C1913EB745493EA0407EA
:1030D0007740D16ACF19DFF89014CF197D1914EB1E
:1030E000354594EA05075F40916BCF19DFF87C14F2
:1030F000CF19BE1915EB762695EA06076740516889
:10310000CF19DFF86C14CF19FB1816EB337396EA5E
:1031100003076F401169CF19DFF85814CF193C1914
:1031200013EB745493EA04077740D169CF19DFF8A1
:103130004814CF197D1914EB354594EA05075F4013
:10314000916ACF19DFF83414CF19BE1915EB762622
:1031500095EA06076740516BCF19DFF82414CF19A1
:10316000FB1816EB337396EA03076F400099CF19EB
:10317000DFF81014CF193C1913EB745493EA0407C9
:103180007740D168CF19DFF80014CF197D1914EBFF
:10319000354594EA05075F409169CF19DFF8EC13D4
:1031A000CF19BE1915EB762695EA06076740516AD6
:1031B000CF19DFF8DC13CF19FB1816EB337396EA3F
:1031C00003076F40116BCF19DFF8C813CF193C19F3
:1031D00013EB745493EA04077740D16BCF19DFF8EF
:1031E000B813CF197D1914EB354594EA05075F40F4
:1031F0009168CF19DFF8A413CF19BE1915EB762605
:1032000076EA04076F400099CF19DFF89413CF19BD
:10321000FB1816EBB36373EA05077740D169CF1942
:10322000DFF88013CF193C1913EBB45474EA060786
:103230005F40916BCF19DFF87013CF197D1914EB34
:10324000754575EA030767405169CF19DFF85C13CC
:10325000CF19BE1915EBF62676EA04076F40116BFD
:10326000CF19DFF84C13CF19FB1816EBB36373EAD1
:1032700005077740D168CF19DFF83813CF193C190B
:1032800013EBB45474EA06075F40916ACF19DFF874
:103290002813CF197D1914EB754575EA03076740AC
:1032A0005168CF19DFF81413CF19BE1915EBF626A4
:1032B00076EA04076F40116ACF19DFF80413CF19BB
:1032C000FB1816EBB36373EA05077740D16BCF1990
:1032D000DFF8F012CF193C1913EBB45474EA060767
:1032E0005F409169CF19DFF8E012CF197D1914EB17
:1032F000754575EA03076740516BCF19DFF8CC12AB
:10330000CF19BE1915EBF62676EA04076F4011694E
:10331000CF19DFF8BC12CF19FB1816EBB36373EAB1
:1033200005077740D16ACF19DFF8A812CF193C19E9
:1033300013EBB45474EA06075F409168CF19DFF8C5
:103340009812CF197D1914EB754575EA030767408C
:10335000516ACF19A149CF19BE1915EBF621826820
:103360009B188360C2688918C16001696D18056186
:1033700041696418446110B0F0BC70472DE9F04118
:1033800080460E001400002C40D098F8005015F034
:103390003F05D5F14007D8F800002018C8F8000014
:1033A000D8F80000C8F80000D8F80000A04204D205
:1033B000D8F80400401CC8F80400002D19D0BC4205
:1033C00017D33A00310008EB050010F1180528006A
:1033D000FDF79AFF18F118014046FFF70AFC3E443A
:1033E000E41B002505E031004046FFF702FC4036B3
:1033F000403C402CF7D2002C08D008EB050010F11F
:103400001805220031002800FDF77EFFBDE8F0819D
:103410003EB504000D0021686068C00050EA51709C
:103420002168C9000A008DF800206A460B001B0ABB
:1034300053700B001B0C9370090ED17010710100BA
:10344000090A51710100090C9171000ED0712278A6
:1034500012F03F02382A02D2D2F1380201E0D2F152
:1034600078025F492000FFF789FF082269462000A3
:10347000FFF784FFA0682870A068000A6870A06841
:10348000000CA870A068000EE870E0682871E06881
:10349000000A6871E068000CA871E068000EE8712D
:1034A000206928722069000A68722069000CA872DD
:1034B0002069000EE872606928736069000A687309
:1034C0006069000CA8736069000EE87337BD0000E6
:1034D0000123456789ABCDEFFEDCBA9876543210F4
:1034E00078A46AD756B7C7E8DB702024EECEBDC1FA
:1034F000AF0F7CF52AC68747134630A8019546FDD5
:10350000D8988069AFF7448BB15BFFFFBED75C8969
:103510002211906B937198FD8E4379A62108B449CE
:1035200062251EF640B340C0515A5E26AAC7B6E9CE
:103530005D102FD65314440281E6A1D8C8FBD3E70F
:10354000E6CDE121D60737C3870DD5F4ED145A45F2
:1035500005E9E3A9F8A3EFFCD9026F678A4C2A8D2D
:103560004239FAFF81F6718722619D6D0C38E5FDC5
:1035700044EABEA4A9CFDE4B604BBBF670BCBFBE15
:10358000C67E9B28FA27A1EA8530EFD4051D880462
:1035900039D0D4D9E599DBE6F87CA21F6556ACC4D6
:1035A000442229F497FF2A43A72394AB39A093FC24
:1035B000C3595B6592CC0C8F7DF4EFFFD15D8485A0
:1035C0004F7EA86FE0E62CFE144301A3A111084E24
:1035D000827E53F735F23ABDBBD2D72A91D386EB20
:1035E000B089000862F30F2262F31F42401810F006
:1035F000030308D0C91A1FD3DB0748BF00F8012D09
:1036000028BF20F8022D130030B414461546103997
:1036100028BF20E93C00FAD8490728BF20E90C0060
:1036200048BF40F8042D890028BF20F8022D48BF6C
:1036300000F8012D30BC7047C91818BF00F8012DE3
:10364000CB0728BF00F8012D704700000EB4C0B5AD
:10365000024603A800210190009101AB012104481A
:1036600078440C30FCF790FD06BC5DF810FB00BF01
:10367000DD57000030B40300002041F22104002295
:103680000A00511E002A0FD01A785B1CD2B290EAB1
:1036900002200022082AF3DA050401D4400001E0E8
:1036A00094EA4000521CF5E780B230BC704700B588
:1036B00085B003A8DFF83010C96888479DF811006D
:1036C00002909DF8100001909DF80F0000909DF869
:1036D0000E309DF80D209DF80C10DFF81000FFF75C
:1036E000B5FF05B000BD000020000020748D00086B
:1036F00000219C490968C90515D49B490A884FF6E1
:10370000FF739A4202D15FF4801103E00A8897495F
:1037100011EA8221491011F10061884201D2012091
:1037200016E0022014E090490A884FF6FF739A428F
:1037300002D15FF4801103E00A888C4911EA8221EA
:10374000491011F10061884201D2022000E00120FD
:10375000704710B400214FF6FF71834A13888B42E3
:1037600002D15FF4801303E01488804B13EA8423B2
:103770005B1013F10063984203D210F17840C00A45
:103780000EE013888B4202D15FF4801103E01288AF
:10379000764911EA8221B0EB6100B0F10060C00A05
:1037A00010BC70472DE9F84306000C009046002538
:1037B000002016F50069012080F3108800F05BF905
:1037C000002701E008367F1CB7EB580F1AD2B9F179
:1037D0000800B04216D304EBC700D0E90023310043
:1037E000002000F0EDF800280BD1D6E9002304EB0F
:1037F000C700D0E900018B4201D18242E2D002250C
:1038000000E0032500F044F9002080F31088280030
:10381000BDE8F28318B585B00400002000900120B7
:1038200080F3108800F027F94FF400404C490860FD
:10383000002001902000FFF75BFF02902000FFF7BF
:1038400088FF039001200490694601A800F0F8F970
:10385000002806D000F01CF9002080F31088012019
:1038600005E000F015F9002080F31088002006B074
:1038700010BDF8B5ADF5006D04000D001600002078
:103880004FF4006100226F463800FFF7ABFEB6B27E
:103890006F46320029003800FDF736FD2000FFF7A3
:1038A000B9FF002801D0002023E069464FF40072E0
:1038B0002000FFF777FF00281AD02D4800788007F6
:1038C00014D52C48FFF7C2FE24A0FFF7BFFEFFF778
:1038D0007BF980B201002848FFF7B8FEFFF7E7FE4A
:1038E0002648FFF7B3FE2648FFF7B0FE002000E0B1
:1038F00001200DF5006D01B0F0BD38B510FA82F36E
:10390000204CA3420FD2002305E004781D00ADB285
:103910004C55401C5B1C1C001500A4B2ADB2AC425F
:10392000F3D3012019E012480078400714D5164857
:10393000FFF78CFE09A0FFF789FEFFF745F980B27B
:1039400001000D48FFF782FEFFF7B1FE0F48FFF7B9
:103950007DFE0B48FFF77AFE002032BD5B235D0041
:103960001020024000000140E075FF1F00FC3F00F6
:103970009C0000200890000818900008EC8C0008BB
:1039800020900008FFFF070810900008AC8E000888
:1039900070B40200002000240BE0084B0500ADB21B
:1039A000167896EA252633F8163093EA0020521C42
:1039B000641C8C42F1DB80B270BC7047048100084B
:1039C0002DE9F84F81460E0014001D0001205FF024
:1039D000000ADFF84C723878012801D1022048E053
:1039E000012038704CF25038404600F058F88346B9
:1039F0005846C0B2002838D100207860DFF8240291
:103A00000168490506D5016831F480610160022032
:103A1000387701E000203877300022002B00B9F120
:103A2000000F04D100F0DDF85FF0010A0DE0B9F1FC
:103A3000010F02D0B9F1020F07D1110000F0DCF83C
:103A4000B9F1020F01D15FF4802A404600F027F857
:103A50008346BAF1000F06D0DFF8CC01016831EAE5
:103A60000A0AC0F800A000F0A4F9002038705846F7
:103A7000C0B2BDE8F28F6C480068002806D56D48DA
:103A80006D4901606D490160002000E00120704730
:103A90006548016851F0004101600020704738B569
:103AA000040002F057F9050060480168C90309D510
:103AB00014F1010FF8D002F04DF9401BA042F3D3EE
:103AC00003202BE0016889071ED4016809071BD475
:103AD0000168C90618D40168890615D40168490629
:103AE00012D4016809060FD40168C9050CD4016815
:103AF000890509D40168490406D40168090403D47E
:103B00004B490968002903D500F009F8012005E0B8
:103B10000168C90701D501210160002032BD434879
:103B20000168890704D53E494A6852F001024A609B
:103B30000168090704D53A494A6852F002024A600E
:103B40000168C90604D536494A6852F004024A6041
:103B50000168890604D532494A6852F008024A6071
:103B60000168490604D52E494A6852F010024A609D
:103B70000168090604D52A494A6852F020024A60C1
:103B80000168C90504D526494A6852F040024A60D6
:103B90000168890504D522494A6852F080024A60CA
:103BA0000168490404D51E494A6852F480724A608B
:103BB0000168090404D51A494A6852F400724A603F
:103BC0001B4A1168002904D515494B6853F48063DA
:103BD0004B60116851F0004111604CF2FA31016004
:103BE000704710B410490C6854F001040C60026076
:103BF000001D036010BC704710B440220A4B1C68C3
:103C000054F480241C6072B60B68091D0360001D0B
:103C1000521E1300DBB2002BF6D162B610BC704707
:103C200060170020002002401420024010200240B3
:103C3000182002400820024023016745AB89EFCDE0
:103C40002DE9F8438046894601200020DFF8BC4179
:103C50002078012801D102206EE0012020704CF272
:103C600050363000FFF71BFF05002800C0B20028C7
:103C70005ED100206060DFF898010168890510D5E9
:103C8000016831F4007101600168490506D50168D9
:103C900031F480610160032020770EE0012020775D
:103CA0000BE00168490506D5016831F480610160C7
:103CB0000220207701E000202077D8F800000128BA
:103CC0000FD1D8F8040000F039F83000FFF7E7FE14
:103CD0000500DFF840110A68DFF83C0102400A6085
:103CE00024E05FF0FF30C9F80000D8F8087000E069
:103CF0007F1CD8F80810D8F80C0041188F4215D254
:103D0000D8F80410380000F030F83000FFF7C7FE94
:103D10000500DFF800110A68DFF8000102400A60C0
:103D20002800C0B20028E3D0C9F8007000F041F8C4
:103D3000002020702800C0B2BDE8F283C10705D57D
:103D4000DFF8D0100A6852F004020A60800705D537
:103D5000DFF8C000016851F400410160DFF8B400F1
:103D6000016851F4803101607047C90706D5DFF85A
:103D7000A4100A6832F400620A6005E0DFF89410CB
:103D80000A6852F400620A60DFF888100A685FF07F
:103D9000FF53B3FA83F332F4FF6298401043086094
:103DA000086850F002000860086850F4803008602D
:103DB0007047DFF85800017F012902D0017F0329F5
:103DC0000DD1DFF84C100A6852F400620A600A68EC
:103DD00032F400620A600A6852F400720A60017FDD
:103DE000022902D0017F03290DD1DFF824100A68CF
:103DF00052F480520A600A6832F480520A600A68FB
:103E000052F480620A600021017770476017002039
:103E10000020024014200240FB7FFFFF05F8FFFF57
:103E200038B50400002C01D1012029E04CF6CC402B
:103E30002168086045F25550216808606068216873
:103E40004860A0682168886001F084FF0500206850
:103E5000C068002806D001F07DFF401B3128F6D352
:103E600003200DE020680069E168884203D0E06823
:103E70002168086103E04AF6AA2021680860002052
:103E800032BD4AF6AA210068016000207047000098
:103E900080B5032001F01BFF0F2001F061FF01F04E
:103EA00073FF002002BD00002DE9F04186B04648B6
:103EB000016851F004010160016811F004010591ED
:103EC0000599016851F080010160016811F08001DD
:103ED00005910599016851F001010160016811F037
:103EE000010105910599016851F002010160016825
:103EF00011F0020105910599016851F00801016076
:103F0000006810F008000590059842F6C5582F4C3F
:103F100000224146200002F02DF941F21005002256
:103F200029005FF0904002F025F941F64776284FCE
:103F300000223100380002F01DF9CDF80080012088
:103F4000019000200290002003906946200001F0BB
:103F500063FF009501200190002002900020039053
:103F600069465FF0904001F057FF009601200190F4
:103F700000200290002003906946380001F04CFFB9
:103F800042F2082000900020019000200290694633
:103F9000200001F041FF4FF4094000900D4C0194C6
:103FA0000020029069465FF0904001F035FF8020CC
:103FB00000900194002002906946380001F02CFF27
:103FC00006B0BDE8F08100BF4C1002400008004878
:103FD000000400480000111038B590B0704C7148D2
:103FE0002060002060607F20A060FF20E060002053
:103FF0002061002060610020A0610020E0612000BD
:1040000002F0DAF8002803D04E216748FEF7DEFD03
:1040100043F2F2250021200002F049FCA84233D0EF
:104020000E208DF82C0017208DF82D0000208DF823
:104030002E0000200E9000200F9000220BA92000DF
:1040400002F028F9002803D05B215748FEF7BEFD97
:1040500001208DF8000011208DF8010017208DF847
:10406000020011208DF8030000226946200002F0B2
:10407000D2F9002803D065214B48FEF7A7FD2A009E
:104080000021200002F00CFC17208DF804001E20F7
:104090008DF8050000208DF8060000200290002019
:1040A0000490002005905FF00040069000200790EB
:1040B0000020089001208DF824004FF480700A90B1
:1040C000002201A9200002F04FFA002803D0792134
:1040D0003548FEF77BFD11B030BD0068314988429C
:1040E00004D13248016851F400410160704738B58D
:1040F00086B004002A4D002201A9280002F05AF9D6
:1041000000226946280002F008FA9DF8030020709A
:104110009DF8010060709DF80200A0709DF80400F9
:10412000E0709DF8050020719DF8060060719DF813
:104130000000A07107B030BDF8B586B004000D00D6
:1041400016000C990D988DF804308DF805108DF837
:1041500006000020049000200590114F002201A9C4
:10416000380002F097F8002803D0C6210E48FEF769
:104170002DFD0E988DF800008DF801508DF802602D
:104180008DF8034000226946380002F044F9002807
:1041900003D0D0210448FEF719FD07B0F0BD0000A0
:1041A0003C17002000280040F48B000890100240CB
:1041B00080B54648464901604FF482714160002154
:1041C00081604FF4E061C160002101610021416123
:1041D0004FF4007181610821C16100210162002159
:1041E0004162002181620721C1620021016308212F
:1041F000416302F063FB002803D053213548FEF7EA
:10420000E5FC01BD80B586B00168314A914219D103
:104210003348016851F480510160006810F4805007
:1042200005900598E0200090022001900020029067
:10423000032003900520049069465FF0904001F050
:10424000EBFD41E00168244A914219D125480168FB
:1042500051F480410160006810F480400590059899
:104260004FF4604000900220019000200290032053
:1042700003900520049069461B4801F0CDFD23E022
:104280000068164988421FD11648016851F4004160
:104290000160006810F400400590059838200090F7
:1042A0000220019000200290032003900620049039
:1042B00069460D4801F0B0FD00220521332001F0D0
:1042C0000AFD332001F018FD07B000BD8015002065
:1042D00000300140208C000800380040003C0040C5
:1042E00060100240581002400004004880B5DFF81A
:1042F0002405DFF8241501605FF4E13141600021FD
:1043000081600021C160002101610C214161002117
:1043100081610021C161002101620021416202F03E
:10432000BDFF002804D05221DFF8F004FEF74EFC58
:1043300001BD80B5DFF8E804DFF8E81401605FF440
:10434000E1314160002181600021C16000210161F3
:104350000C214161002181610021C16100210162C4
:104360000021416202F09AFF002804D06621DFF8A4
:10437000AC04FEF72BFC01BD80B5DFF8AC04DFF820
:10438000AC1401605FF46121416000218160002173
:10439000C160002101610C21416100218161002186
:1043A000C16100210162302141624FF4805181637B
:1043B0004FF40051C16302F071FF002804D07D2149
:1043C000DFF85804FEF702FC01BD80B5DFF8600499
:1043D000DFF8601401605FF4E13141600021816029
:1043E0000021C160002101610C2141610021816136
:1043F0000021C16100210162302141624FF48051EE
:1044000081634FF40051C16302F048FF002804D0DB
:104410009421DFF80804FEF7D9FB01BD80B5DFF871
:104420001804DFF8181401605FF4E13141600021E5
:1044300081600021C160002101610C2141610021E6
:1044400081610021C161002101620021416202F00D
:1044500025FF002804D0A921DFF8C003FEF7B6FB32
:1044600001BD80B586B00168DFF8AC23914222D14E
:10447000DFF8CC03016851F400210160006810F4FA
:104480000020059005980320009002200190012053
:104490000290032003900820049069465FF090404A
:1044A00001F0BAFC00220521342001F014FC342074
:1044B00001F022FC90E00168DFF86823914232D1DC
:1044C000DFF87C03016851F480110160006810F48A
:1044D0008010059005984FF48050009002200190C4
:1044E0000120029003200390082004906946DFF821
:1044F000540301F091FC042000900220019001205F
:10450000029003200390082004906946DFF83803E6
:1045100001F082FC00220521352001F0DCFB352072
:1045200001F0EAFB58E00168C04A91421AD1C7483D
:10453000016851F480410160006810F480400590EA
:1045400005984FF4C0600090022001900120029075
:10455000032003900720049069465FF0904001F02B
:104560005BFC39E00168B34A914219D1B448016853
:1045700051F400310160006810F400300590059896
:104580000C20009002200190012002900320039053
:104590000720049069465FF0904001F03DFC1BE06D
:1045A0000068A649884217D1A548016851F48021C6
:1045B0000160006810F4802005900598302000907C
:1045C0000220019001200290032003900720049014
:1045D00069469C4801F020FC07B000BD80B5016829
:1045E0008D4A91420DD19648016831F40021016055
:1045F00003215FF0904001F007FD342001F081FBC2
:104600004AE00168874A914211D18D48016831F42E
:10461000801101604FF480518A4801F0F5FC0421BB
:10462000894801F0F1FC352001F06BFB34E00168B2
:104630007E4A91420ED18548016831F48041016083
:104640004FF4C0615FF0904001F0DEFC252001F0E6
:1046500058FB21E00168774A91420DD17848016802
:1046600031F4003101600C215FF0904001F0CCFC8E
:10467000262001F046FB0FE00068704988420BD10C
:104680006F48016831F48021016030216D4801F0EC
:10469000BBFC272001F035FB01BD80B50100B1F85E
:1046A0005C0091F87620222A06D10A68928C10408C
:1046B000C0B2896E884705E00868008B50F008009A
:1046C0000968088301BD90F8761020294CD190F834
:1046D0007410012901D1022047E0012180F87410F3
:1046E0008168B1F5805F0BD10169002904D140F2E6
:1046F000FF11A0F85C101FE0FF21A0F85C101BE088
:10470000816800290AD10169002903D1FF21A0F89D
:104710005C1011E07F21A0F85C100DE08168B1F120
:10472000805F09D10169002903D17F21A0F85C10C5
:1047300002E03F21A0F85C1000218167222180F86F
:1047400076100168896851F0010102689160404962
:1047500001660168096851F49071026811600021D6
:1047600080F87410002000E00220704710B50400AB
:10477000200002F0D2FD20682C4988420AD1FFF7C0
:10478000FBFD00220521252001F0A5FA252001F0DE
:10479000B3FA3AE02068274988420AD1FFF715FEAC
:1047A00000220521262001F096FA262001F0A4FA25
:1047B0002BE02068214988420AD1FFF72FFE002212
:1047C0000521272001F087FA272001F095FA1CE047
:1047D0002068114988420AD1FFF788FD002205218F
:1047E000342001F078FA342001F086FA0DE02068D8
:1047F0000C49884209D1FFF79CFD00220521352094
:1048000001F069FA352001F077FA2000FFF75BFF2D
:1048100010BD000014130020004C00404C8C000818
:1048200090130020005000400C140020003801407C
:104830008814002000440040041500200048004077
:104840005810024000080048000C00486010024068
:104850009B46000880B5FFF789FF01BD80B50A4877
:104860000A4901600421416040F6FF71C16040F6D1
:10487000B8318160FFF7D4FA002803D045210448FD
:10488000FEF7A4F901BD00BF8017002000300040F2
:10489000C88B000838B5DC4CDC4D01212868A268C3
:1048A000904706212868E268904700212868A2689E
:1048B000904731BD38B50020D34CD44D0121286834
:1048C000A268904705212868E2689047A5212868DA
:1048D000E2689047C0B2C007F8D400212868A268F7
:1048E000904731BD38B50400684600210160FFF7EC
:1048F000D1FF20208DF800002000000C8DF8010071
:104900002000000A8DF802008DF80340BE4CBF4D18
:1049100001212868A26890474FF47A7304226946FF
:10492000286802F02DF800212868A2689047FFF758
:10493000C1FF31BDF8B504000E0015006846002126
:104940000160FFF7A7FF02208DF8000068463100E4
:10495000090C41703100090A81708DF80360AA4E7C
:10496000AA4F01213868B26890474FF47A73042245
:104970006946386802F004F84FF47A732A0092B25C
:104980002100386801F0FCFF00213868B2689047C8
:10499000FFF790FFF1BD2DE9F04106000D0000206A
:1049A000002000200020002030004742110089B282
:1049B0004FF4807391FBF3F81400A4B24FF48071AC
:1049C00094FBF1F301FB1344C0B2002821D140460F
:1049D000C0B200280FD192B231002800FFF7AAFF21
:1049E00071E04FF4807231002800FFF7A3FF16F545
:1049F000807615F580754046B0F10108C0B20028F8
:104A0000EFD1E4B2220092B231002800FFF792FF0A
:104A100059E05FFA88F8B8F1000F1ED13800210084
:104A2000C0B2C9B2884212D2E41B3A00D2B292B2EA
:104A300031002800FFF77EFF56FA87F1FFB205EB41
:104A40000700E4B2220092B2FFF774FF3BE092B29B
:104A500031002800FFF76EFF35E03800C0B2121AAF
:104A6000100080B24FF4807390FBF3F892B292FB87
:104A7000F1F001FB102214003A00D2B292B23100E0
:104A80002800FFF757FF56FA87F6FFB23D4409E0CA
:104A90004FF4807231002800FFF74CFF16F5807646
:104AA00015F580754046B0F10108C0B20028EFD17D
:104AB0002000C0B2002806D0E4B2220092B2310039
:104AC0002800FFF737FFBDE8F081F8B50C001500AE
:104AD000694600220A6003218DF800106946020031
:104AE000120C4A700200120A8DF80220C870464E5D
:104AF000464F01213868B26890474FF47A73042218
:104B00006946386801F03CFF4FF47A732A0092B28C
:104B10002100386802F010F8002802D001208DF83A
:104B2000000000213868B2689047F1BD2DE9F041DE
:104B30000020002000200020334C344D0121286843
:104B4000A26890479F212868E2689047A5212868BD
:104B5000E26890470700A5212868E26890470600B0
:104B6000A5212868E2689047804600212868A2684D
:104B70009047360256EA074658EA06062448007867
:104B8000C00615D52348FEF761FD1EA0FEF75EFDA9
:104B9000FEF71AF8010089B21F48FEF757FDFEF72D
:104BA00086FD31001D48FEF751FD1D48FEF74EFD04
:104BB0003000BDE8F08110B5012492B2FFF785FF07
:104BC0002000C0B210BD10B5012492B2FFF7E3FE81
:104BD0002000C0B210BD10B50124FFF783FE2000F5
:104BE000C0B210BD38B5094C074D0E48296888473A
:104BF00020602068002804D002F0F6FF2068696871
:104C0000884731BD5B235D005000002090170020D5
:104C10009C000020808F0008888F0008D48E000838
:104C2000908F0008988F000838B5040001F092F8C2
:104C3000050014F1010F00D0641C01F08BF8401B3B
:104C4000A042FAD331BD00002DE9FC410400002050
:104C50002078C00649D5DFF83458286810F00C0FCA
:104C600040F08080DFF820683068800704D5A069B4
:104C7000002801D101206EE23068000703D53068BA
:104C800010F0F00005E0DFF810080068000910F0EF
:104C9000F000216A88424BD2206A00F0B5FB002860
:104CA00001D0012057E2306850F0080030603168D0
:104CB00031F0F001206A01433160DFF8E00701685C
:104CC00031F47F41E26951EA0221016000F01BFBEF
:104CD000DFF8CC172A68C2F30312895CC840DFF8FA
:104CE000B41708600F2001F03BF82078C00740F1AE
:104CF000BB80DFF89807016811F00C0108290BD080
:104D0000006810F00C000C2869D1DFF884070068F7
:104D100010F00300032862D1DFF86C0700688003FD
:104D200040F1A2806068002840F09E80012012E2DD
:104D3000306850F008003060316831F0F001206ACE
:104D400001433160DFF85407016831F47F41E269C3
:104D500051EA02210160206A00F056FB0028B5D01C
:104D60000120F8E1A069002826D0DFF81C57286848
:104D700050F00100286000F0EDFF06002868800771
:104D800006D400F0E7FF801B0328F7D30320E2E1FD
:104D9000286850F008002860296831F0F001206A86
:104DA00001432960DFF8F406016831F47F41E269CC
:104DB00051EA0221016098E7DFF8CC6630684008CC
:104DC0004000306000F0C6FF0500306880078CD5D9
:104DD00000F0C0FF401B0328F7D30320BBE160684D
:104DE000B0F5803F06D1DFF8A006016851F48031AC
:104DF000016018E06068B0F5A02F0AD1DFF88806DE
:104E0000016851F480210160016851F48031016032
:104E100009E0DFF87406016831F48031016001684F
:104E200031F480210160606800280ED000F092FF0C
:104E30000500DFF854060068800315D400F08AFFEF
:104E4000401B6528F5D3032085E100F083FF0500B2
:104E5000DFF834060068800306D500F07BFF401BB6
:104E60006528F5D3032076E12078800725D5DFF883
:104E70001C06016811F00C0104290BD0006810F029
:104E80000C000C2832D1DFF80806006810F003008F
:104E900002282BD1DFF8F0050068400504D5E06852
:104EA000002801D1012056E1DFF8F005016831F05A
:104EB000F851226951EA02610160207800075BD550
:104EC0006069002845D0DFF8D065306850F00100F7
:104ED000306000F03FFF0500306880074CD400F0E0
:104EE00039FF401B0328F7D3032034E1E068002892
:104EF0001CD0DFF89465306850F48070306000F0AA
:104F000029FF05003068400506D400F023FF401B50
:104F10000328F7D303201EE1DFF88005016831F094
:104F2000F851226951EA02610160C6E7DFF858656D
:104F3000306830F48070306000F00CFF050030689D
:104F40004005BAD500F006FF401B0328F7D3032025
:104F500001E1DFF84465306840084000306000F04F
:104F6000F9FE05003068800706D500F0F3FE401B0F
:104F70000328F7D30320EEE02078400774D50026FD
:104F8000DFF820552868C00009D4286850F0805008
:104F90002860286810F08050009000980126DFF803
:104FA00008753868C00511D4386850F480703860CE
:104FB00000F0D0FE80463868C00507D400F0CAFE75
:104FC000B0EB08000328F6D30320C4E0A068012852
:104FD00006D1DFF8D804016851F00101016017E043
:104FE000A06805280AD1DFF8C404016851F0040163
:104FF0000160016851F00101016009E0DFF8AC04D3
:105000000168490849000160016831F0040101604C
:10501000A068002810D000F09DFE0700DFF88C0487
:105020000068800719D400F095FEC01B41F2893159
:105030008842F3D303208EE000F08CFE0700DFF8F7
:105040006C040068800708D500F084FEC01B41F2A4
:1050500089318842F3D303207DE0F6B2012E03D1DB
:10506000286830F080502860A06A002872D0DFF8ED
:105070001C04006810F00C000C2869D0A06A0228FB
:1050800040D1DFF80454286830F08070286000F0C8
:1050900061FE06002868800106D500F05BFE801BDB
:1050A0000328F7D3032056E0DFF8E413206B401EFB
:1050B000626B120252EA0012A06B000952EA4042EF
:1050C000E06A0243E06B4008401E52EA4052206C06
:1050D0004008401E52EA40620A60286850F0807022
:1050E0002860086850F08070086000F033FE04000B
:1050F000286880012ED400F02DFE001B0328F7D372
:10510000032028E0DFF88043206830F080702060C2
:105110002068000108D42068800005D4DFF87003FF
:105120000168890889000160DFF864130A68DFF804
:10513000800302400A6000F00DFE05002068800137
:1051400008D500F007FE401B0328F7D3032002E038
:10515000012000E00020BDE8F6812DE9F0410400C7
:105160000D000020DFF84C63306810F00700A84203
:105170000BD23068C008C00028433060306810F09F
:105180000700A84201D00120BBE02078C00773D5FA
:105190006068032806D1DFF8F002006880011CD4A3
:1051A0000120AEE06068022806D1DFF8DC0200686A
:1051B000800312D40120A4E06068002806D1DFF843
:1051C000C8020068800708D401209AE0DFF8B8021E
:1051D0000068400501D4012093E0DFF8B07239681F
:1051E0008908890060680143396000F0B3FD80469A
:1051F000606803280ED1386810F00C000C283BD0F2
:1052000000F0A8FDB0EB080041F289318842F2D3EA
:10521000032076E0606802280ED1386810F00C0098
:10522000082829D000F096FDB0EB080041F2893142
:105230008842F2D3032064E0606800280DD138680A
:1052400010F00C0F18D000F085FDB0EB080041F213
:1052500089318842F3D3032053E0386810F00C0002
:10526000042809D000F076FDB0EB080041F2893146
:105270008842F2D3032044E02078800707D5DFF886
:105280000C120A6832F0F002A06802430A6030682B
:1052900010F0070085420BD23068C008C0002843D8
:1052A0003060306810F00700A84201D0012028E0EB
:1052B0002078400707D5DFF8D4110A6832F4E0629D
:1052C000E06802430A602078000708D5DFF8BC01D7
:1052D000016831F46051226951EAC201016000F0B5
:1052E00012F8DFF8BC11DFF8A4211268C2F3031230
:1052F000895CC840DFF89C1108600F2000F030FD89
:105300000020BDE8F08100220020002002200220C1
:1053100000205E490B6813F00C0F0AD00B6813F0E5
:105320000C030C2B1AD15A4B1B6813F00303012BEF
:1053300014D1554A13681B0704D4574A1268C2F3A4
:10534000032202E01268C2F303125B4B53F82220DF
:105350000B6813F00C0F0ED110000CE00B6813F06B
:105360000C03042B01D1554805E00B6813F00C0326
:10537000082B00D15248096811F00C010C2929D1E1
:10538000434B186810F003001968C1F30211491C5F
:10539000022802D0032808D00FE04848B0FBF1F102
:1053A0001868C0F3062041430DE04548B0FBF1F119
:1053B0001868C0F30620414305E0B2FBF1F118681C
:1053C000C0F3062041431868C0F34160401C400010
:1053D000B1FBF0F070472F480068704780B5FFF7C9
:1053E000FAFF3849294A1268C2F30222895CC84090
:1053F00002BD80B5FFF7EFFF3249244A1268C2F3BD
:10540000C222895CC84002BD7CB504000020002592
:10541000244E3068C00002D500F0A2FB0EE03068D8
:1054200050F080503060306810F08050009000984C
:1054300000F096FB316831F080513160B0F5007FAB
:1054400007D1812C10D3A12C01D302250CE001251A
:105450000AE0812C01D3032506E0802C01D102252E
:1054600002E0702C00D1012512480168C908C9006A
:1054700029430160006810F00700A84201D0012014
:1054800000E0002076BD000000100240081002403D
:105490000C1002401C000020941002400410024036
:1054A000F48E000858100240007000409010024036
:1054B000FFFFEEFE00200240408B00080024F400B5
:1054C00000127A00E08F00082DE9FC47040000205C
:1054D0000020002600252068000530D5606E0028D9
:1054E00010D0B0F5800F13D0B0F5000F03D0B0F599
:1054F000400F14D014E0DFF8A803016851F48031A4
:1055000001600EE00021201D00F0D4F9060008E043
:10551000002114F1200000F079FA060001E000E01B
:1055200001263000C0B2002808D1DFF878130A68DD
:1055300032F44002606E02430A6000E035002068E9
:10554000C00430D5A06E002810D0B0F1807F13D0F9
:10555000B0F1007F03D0B0F1407F14D014E0DFF849
:105560004003016851F4803101600EE00021201DEC
:1055700000F0A0F9060008E0002114F1200000F07E
:1055800045FA060001E000E001263000C0B2002824
:1055900008D1DFF810130A6832F04072A06E02439F
:1055A0000A6000E035002068800375D55FF00008D0
:1055B000DFF8F4723868C0000AD4386850F08050C0
:1055C0003860386810F08050009000985FF0010853
:1055D000DFF8D892D9F8000050F48070C9F80000C4
:1055E00000F0B8FB8246D9F80000C00506D400F0F0
:1055F000B1FBB0EB0A000328F5D303263000C0B29C
:1056000000283FD1DFF8A892D9F8000010F44070CC
:10561000002815D0D4F88010884211D0D9F80000A5
:1056200030F44070D9F8001051F48031C9F80010FE
:10563000D9F8001031F48031C9F80010C9F8000021
:10564000C0070FD500F086FB8246D9F8000080071E
:1056500008D400F07FFBB0EB0A0041F289318842A8
:10566000F3D303263000C0B2002809D1D9F80010C6
:1056700031F44071D4F880000143C9F8001002E011
:10568000350000E035005FFA88F8B8F1010F03D16A
:10569000386830F0805038602078C00707D5DFF8D0
:1056A00004120A6892089200A06B02430A602078F4
:1056B000800707D5DFF8EC110A6832F00C02E06BC6
:1056C00002430A602078400707D5DFF8D8110A683E
:1056D00032F03002206C02430A602078000707D5C0
:1056E000DFF8C0110A6832F0C002606C02430A6041
:1056F0002078C00607D5DFF8AC110A6832F4407292
:10570000A06C02430A602078800607D5DFF8941168
:105710000A6832F44062E06C02430A602068800547
:1057200007D5DFF880110A6832F44022E06D0243A9
:105730000A602068400507D5DFF868110A6832F46E
:105740004012206E02430A602078400607D5DFF839
:1057500054110A6832F44052206D02430A602078E6
:10576000000607D5DFF83C110A6832F44042606D4C
:1057700002430A602068C00507D5DFF828110A68CF
:1057800032F44032A06D02430A602068000320D545
:10579000DFF810110A6832F04062E06E02430A60DE
:1057A000E06EB0F1006F06D1DFF8F400016851F44B
:1057B000801101600DE0E06EB0F1806F09D1012130
:1057C000201D00F077F801000800C0B2002800D0CA
:1057D0000D002068400320D5DFF8C8100A6832F0B9
:1057E0004062206F02430A60206FB0F1006F06D163
:1057F000DFF8AC00016851F4801101600DE0206F0A
:10580000B0F1806F09D10121201D00F053F8010093
:105810000800C0B2002800D00D002068400425D543
:10582000DFF880100A6832F04052606F02430A606D
:10583000606FB0F1805F0AD10221201D00F03AF8BC
:1058400001000800C0B2002810D00D000EE0606F0B
:10585000B0F1005F0AD1022114F1200000F0D6F867
:1058600001000800C0B2002800D00D00206800042C
:1058700007D5DFF830100A6832F08042A06F02438B
:105880000A602068C00307D5DFF818100A6822F004
:105890000042E06F02430A602800C0B2BDE8F6870C
:1058A0000C10024088100240581002400070004066
:1058B000901002402DE9F04106000C000020002568
:1058C000A049086810F0030F11D0086810F0030019
:1058D0003268904209D13068002806D00868C0F3C9
:1058E0000210401C716888422DD001252BE03068E1
:1058F000012804D018D303280DD006D314E0924811
:105900000068800700D401250FE08F48006840053B
:1059100000D4012509E08C480268920303D4006892
:10592000400300D4012500E001252800C0B2002872
:1059300009D10A6832F07302306802437068401E71
:1059400052EA00120A602800C0B200285AD17E4FE5
:10595000386830F08060386000F0FCF980463868C4
:10596000000106D500F0F6F9B0EB08000328F6D3E5
:1059700003252800C0B2002844D1002C0CD1734963
:105980000A6873480240B06852EA0022F0680009D1
:1059900052EA40420A601CE0012C0DD16B490A68B2
:1059A0006C480240B06852EA002230694008401E4C
:1059B00052EA40520A600CE064490A6866480240B4
:1059C000B06852EA002270694008401E52EA406204
:1059D0000A60386850F08060386000F0BBF904005D
:1059E0003868000105D400F0B5F9001B0328F7D38F
:1059F00003252800C0B2002804D154490A68B069C0
:105A000002430A602800C0B2BDE8F0812DE9F041F0
:105A100006000C00002000254A49086810F0030F1A
:105A200011D0086810F003003268904209D1306844
:105A3000002806D00868C0F30210401C7168884234
:105A40002DD001252BE03068012804D018D303287D
:105A50000DD006D314E03C480068800700D401252F
:105A60000FE039480068400500D4012509E03648B8
:105A70000268920303D40068400300D4012500E0CB
:105A800001252800C0B2002809D10A6832F073024B
:105A9000306802437068401E52EA00120A60280013
:105AA000C0B200284AD1284F386830F080503860A2
:105AB00000F050F980463868800006D500F04AF9B9
:105AC000B0EB08000328F6D303252800C0B2002855
:105AD00034D1002C0CD121490A681D480240B0681D
