:020000040800F2
:10A0000098550010551803086518030889A0020820
:10A0100067180308691803086B180308000000009C
:10A0200000000000000000000000000009370308E5
:10A030006D18030800000000B13603086F1803080C
:10A04000973503089B3503089F350308A33503089C
:10A05000A7350308AB350308054701081D4701086C
:10A06000354701084D47010865470108AF3503082A
:10A07000B3350308B7350308BB350308BF350308FC
:10A08000C3350308C7350308A9180308CB350308EF
:10A09000CF350308D3350308D73503087D470108BA
:10A0A000DB350308DF350308E3350308E73503082C
:10A0B000EB3503089D180308A3180308EF350308C0
:10A0C000F3350308F7350308FB350308FF350308AC
:10A0D0000336030873180308791803087F18030868
:10A0E000D947010885180308073603080B3603080B
:10A0F0000F36030813360308173603081B36030808
:10A100001F36030823360308273603088B18030875
:10A1100091180308971803082B3603082F360308F5
:10A1200033360308373603083B3603083F36030847
:10A1300043360308473603084B3603084F360308F7
:10A1400053360308573603085B3603080000000047
:10A150005F36030863360308673603086B36030867
:10A160006F36030873360308773603087B36030817
:10A170007F3603088336030800000000000000005B
:10A18000873603088B3603088C48002138B58C4C81
:10A1900000F08FF886B0204600F060F910B15A2127
:10A1A00000F05EF8874900F075F810B1672100F003
:10A1B00057F807B030BDF8B5044686B020687F492F
:10A1C000814D824E824F884216D1F86B40F040504C
:10A1D000F863002300F036F8022100F02AF8039318
:10A1E00001A9304600F08CFF7F21754801F012F97B
:10A1F00010B1882100F034F820687649884216D1E1
:10A20000F86B40F04050F86300F01CF8012100F0BA
:10A2100010F800210391304601A900F071FF7F2161
:10A220006D4801F0F7F810B1A52100F019F807B05A
:10A23000F0BD3A6802F4005200920B22009801919E
:10A2400002927047396841F004013960386800F0C3
:10A25000040000900098396841F40051396070475B
:10A26000284601F02DBA5B48002138B55A4C00F061
:10A2700020F886B0204600F0F1F810B1C521FFF7B4
:10A28000EFFF564900F006F810B1D221FFF7E8FFC2
:10A2900007B030BD009101220192062102917F2278
:10A2A000039204210491002205926946204600F0A1
:10A2B0003DBC454D20606160E1602161A1610420E9
:10A2C000606101212162A16200200022E0616062E0
:10A2D000E062206360634FF48051A260A163E26397
:10A2E000704780B500F0D8FA3D49088001BD0000F4
:10A2F00041A001F0F3B900003BA001F0EFB900006C
:10A300004FEA00013AA001F0E9B900002DE9F84157
:10A3100085B000244FF6FF7500260027DFF8B880CF
:10A32000404600F08BF93221404600F006FA4046E4
:10A3300000F005FE800505D5404600F0ADFAF9B203
:10A340002DF81100404600F0E8F97F1CF8B20A2809
:10A35000E6DB00203DF81010A14228BF0C46A942C0
:10A3600038BF0D467618401C0A28F3DB341B641BEB
:10A370006403240C4FF4A5704443E112194804EB24
:10A38000115424130178641DCA0610D5FFF7B4FFD9
:10A3900009A001F0A3F901F0D0F9FFF7B1FF01F036
:10A3A00011FA214616A001F099F9FFF7A1FF204606
:10A3B00006B0BDE8F08100005B235D0000000450A2
:10A3C000104B012004006008C07603080008004814
:10A3D0004C10024000010450784B01200200300470
:10A3E000FA5101205C0A00201B5B303B33376D00C3
:10A3F0005B2564255D0000001B5B303B33396D003D
:10A40000726561642076616C7565206164633220D9
:10A410003D202564200A0000603000EB81000068C8
:10A4200000F0F8407047603000EB8100016821F0D7
:10A4300000410A4302607047CB0D10B5143003F0A1
:10A4400004031818090D01F01F01036807248C404C
:10A45000A34302FA01F11943016010BD7CB5002647
:10A46000044600960CB9012076BD04F154056868D5
:10A4700020B92046FFF79FFEAE602E7021688868E5
:10A48000800004D58A68DFF8040402408A602168ED
:10A490008868C0000AD48A68DFF8F403DFF8F43370
:10A4A000024042F080528A6000F0D8FD2068816846
:10A4B000C90008D46A6842F010026A600126A968DF
:10A4C00041F00101A9606968CA0601D481684907A1
:10A4D00000F1A0806A6822F4807242F002026A6091
:10A4E000816801F00301012902D10168CA0735D44E
:10A4F00000F09CF80AD100F094F802D11068C2076D
:10A500002CD400F017FD1FD108681AE0904298681B
:10A5100000F003000BD1012802D11868C3071DD435
:10A5200000F008FD08BF086804D0002004E00128FE
:10A5300003D1186800F0010080B900F072F803D16F
:10A54000106800F0010000E0002038B9DFF8A41521
:10A550000A68606822F47C1202430A60E069A26B18
:10A56000E168636A42EA4032A0680A430243012B71
:10A5700042EA034203D1A06A401E42EA4042E06A36
:10A5800020B1216B00F47070084302432168DFF8AA
:10A590006805CB6803401A43CA602168886810F0D8
:10A5A0000C0F22D1CA68DFF85405A3690240606B22
:10A5B00042EA833242EA4002CA60E06B01280FD1CE
:10A5C00022681369216C606C6FF38A030B43A16CE2
:10A5D0000343E06C0B43034343F00103136104E0C6
:10A5E0002068016949084900016120690128206843
:10A5F000016B05D1226A0909521E42EA011101E0EC
:10A60000090909010163686820F0020040F00100B7
:10A61000686004E0686840F0100068600126304619
:10A6200076BD906800F0030001287047DFF8D03451
:10A63000DFF8D014DFF87C2898427047F8B505465B
:10A640002868806840075FD405F154042178012907
:10A650005AD001202070284600F0C6FC010050D1DD
:10A660006268DFF8A414DFF898340A4042F480727C
:10A6700062602E68DFF87C14DFF888249E421EBFDB
:10A6800096420F6817F01F0F03D1676827F48017F1
:10A6900067606768FF0446BFA76827F006070027C2
:10A6A000A7601C273760002626702D689D4218BFC2
:10A6B00095420DD00A6812F01F0F1EBF0A6802F003
:10A6C0001F02052A1EBF096801F01F0109290CD1CC
:10A6D000E9688A0101D500F019F8AA68DFF8B0111D
:10A6E0000A4042F00402AA60F2BD616841F48011A0
:10A6F0006160DFF8C41709688A0106D500F006F822
:10A70000F2BD00212170F2BD0220F2BD616821F48A
:10A71000005141F480516160704738B500F0A0F8F5
:10A7200001D1022032BD00F0AAF8010004D1284670
:10A7300000F0A3FC00F09AF88FE02DE9F047054601
:10A7400088466869DFF8AC43DFF8B493082805F160
:10A75000540708BF082628D0286848451CBFDFF8E2
:10A760005417884217D1226812F01F0F1EBF2168AC
:10A7700001F01F0105291EBF216801F01F010929F1
:10A7800009D000F0CCF909D0206800F44040B0F5C1
:10A79000404F09D102E0C068C10705D5786840F094
:10A7A00020007860012027E0042601F0BFF98246EE
:10A7B00029680868304221D118F1010FF8D0B8F1AA
:10A7C000000F05D001F0B2F9A0EB0A008045EFD2EE
:10A7D000786840F0040078600021397003200BE0B5
:10A7E000DFF8D4060068082E08BF082002D0420413
:10A7F00001D40C2008600020BDE8F087786840F4A0
:10A8000000707860C86810F4406F04BFE8690028E1
:10A810000DD10A6810070AD57A6822F480727A602E
:10A820007868C20403D4786840F001007860494534
:10A830001CBFDFF8D00281420DD0226812F01F0F3A
:10A840001EBF206800F01F0005281EBF206800F012
:10A850001F000928C4D1C868C5E70021217032BD96
:10A86000054605F15404207801287047010005D100
:10A87000616821F4885141F0010161607047012055
:10A8800020700321284600F05CBB0000C0FFFF5F82
:10A89000C0FFFF7F80841E000068006C70472DE9B8
:10A8A000F0470546286806684768B0070ED5B9071F
:10A8B0000CD5A86DC10603D4A86D40F40060A8654E
:10A8C000284601F039F92968022008607007DFF88E
:10A8D000E885884CDFF82CA2DFF8249201D57907AF
:10A8E00003D4300743D5390741D5A86DC10603D439
:10A8F000A86D40F40070A8652868C16811F4406F25
:10A900002FD1484518BF50450DD0216811F01F0FB9
:10A910001EBF216801F01F0105291EBF216801F03B
:10A920001F01092901D1C16801E0D8F8001089048C
:10A9300017D40268110714D5816849070FD44268FB
:10A9400022F00C024260A86D20F48070A865A86D0A
:10A95000C10406D4A86D40F00100A86501E000F034
:10A96000D5F82846FFF7BDFC29680C200860B00622
:10A9700001D5B90603D470064BD5790649D5A86D23
:10A98000C10603D4A86D40F40050A8652868484566
:10A9900018BF50450DD0216811F01F0F1EBF216850
:10A9A00001F01F0106291EBF216801F01F010729C0
:10A9B00001D1C16801E0D8F80010C26C12F0C00FDC
:10A9C00007D08A011FD4C36813F4406F1BD18A04D7
:10A9D00019D40268520616D5890214D48168090771
:10A9E0000FD4426822F060024260A86D20F48050CB
:10A9F000A865A86DC10506D4A86D40F00100A86542
:10AA000001E000F083F8284600F048FD2968602046
:10AA1000086030060BD5390609D5A86D40F48030A2
:10AA2000A865284601F089F8296880200860F005AB
:10AA30000CD5F9050AD5A86D40F40030A865284664
:10AA400001F07CF829684FF480700860B0050CD5DF
:10AA5000B9050AD5A86D40F48020A865284601F004
:10AA60006EF829684FF400700860F00625D5F906E5
:10AA700023D5A86B98B1286848451CBFDFF834146B
:10AA8000884231D1226812F01F0F2DD000F047F814
:10AA90001EBF206800F44040B0F5404F0AD1A86DB9
:10AAA00040F48060A865E86D40F00200E865284643
:10AAB00001F046F8296810200860700512D5790564
:10AAC00010D5A86D40F48040A8654FF48061E86D12
:10AAD00040F00800E865286801602846BDE8F047B6
:10AAE00001F02FB8BDE8F087C068C107D7D4E1E70F
:10AAF000000000000803045007C0F0FFFDBFFFFF87
:10AB00000000045000020450FEF1FFFFA86D40F069
:10AB10001000A865E86D40F00100E8657047206806
:10AB200000F44040B0F5004F704700002DE9F843B5
:10AB300006464FF0000906F154050F46CDF8009087
:10AB40002978012908BF022000F0B1810120287076
:10AB500031688868400700F1A1817868062812D220
:10AB6000801E03280DD8DFE800F0020406080C2040
:10AB700008E0122103E0182004E04FF480717960AE
:10AB800001E0062078607968326838688B093032D5
:10AB900003F00C039A1801F01F0114681F238B4067
:10ABA000C0F3846024EA030300FA01F11943116041
:10ABB0003068816811F00C0F1DD1BA683968FFF751
:10ABC0003BFC3068C1683A69042A15D0603000EB5C
:10ABD00082043B682268DFF8F804024003F0F8437F
:10ABE0001343C9087A69480000F006008240134305
:10ABF00043F0004323607AE00021FFF70DFC40039F
:10AC00003068494604D1FFF707FCC0F3846003E0D5
:10AC1000FFF702FC00F059F939684A030FBFC1F38E
:10AC2000846191FAA1F1B1FA81F1C9B2884204D1EB
:10AC3000306800220021FFF7F6FB00F054F94003D2
:10AC400004D100F050F9C0F3846003E000F04BF948
:10AC500000F03BF939684A030FBFC1F3846191FAF0
:10AC6000A1F1B1FA81F1C9B2884204D13068002261
:10AC70000121FFF7D8FB00F032F9400304D100F0C6
:10AC80002EF9C0F3846003E000F029F900F01DF90B
:10AC900039684A030FBFC1F3846191FAA1F1B1FA97
:10ACA00081F1C9B2884204D1306800220221FFF745
:10ACB000BAFB00F010F9400304D100F00CF9C0F326
:10ACC000846003E000F007F900F0FFF839684A03F8
:10ACD0000FBFC1F3846191FAA1F1B1FA81F1C9B258
:10ACE000884204D1306800220321FFF79CFB3168C1
:10ACF00000F020F903D10868C20700F1D580FA6896
:10AD00003B68D1F8B040C3F3120024EA0000DFF83A
:10AD1000C44302F0200204FA02F21A40C2F3120203
:10AD20000243C1F8B020F868DFF8AC1388421ED1A6
:10AD3000386841030FBFC0F3846290FAA0F1B1FA02
:10AD400081F2D2B20121521C0A2A05D200F0D7F8B2
:10AD5000401C00F0B3F806E000F0D1F8093800F02C
:10AD6000ADF841F00071BA683068FFF765FB3968EB
:10AD7000DFF868C3DFF86823DFF86833DFF868734B
:10AD8000614502D13868000203E0994203D1386876
:10AD9000C0016DD404E0914253D13868400267D4B9
:10ADA0003668B06800F00300012802D13068C0079F
:10ADB00074D4DFF83883DFF838E33E4C464510D1D1
:10ADC000A06800F00300012802D12068C40765D400
:10ADD000DEF8080000F0030001282AD1DEF80000A8
:10ADE00024E0D8F80800A64200F0030010D10128A2
:10ADF00003D1D8F80000C00750D4DEF8080000F0F6
:10AE00000300012808BFDEF8000005D0002005E09F
:10AE1000012805D1D8F8000000F0010000283DD13C
:10AE2000A06800F00300012803D1206800F00100B1
:10AE300000E00020002831D161451AD1464518BFF5
:10AE4000764531D100F053F840F40000DFF8A41249
:10AE5000DFF8A432386078200A68B2FBF3F343438A
:10AE60000093009800281EBF0098401E0090F8D163
:10AE70001AE0994208D1464518BF764514D100F032
:10AE800036F840F0807007E0914208BF46450BD18C
:10AE900000F02DF840F48000386005E0686840F06C
:10AEA000200068604FF00109002028704846BDE886
:10AEB000F2830000000104500C00045041EA836159
:10AEC00000EB400041EA0051704790FAA0F0B0FA60
:10AED00080F0C0B2704730680321FFF79DBA306838
:10AEE0000221FFF799BA30680121FFF795BA386857
:10AEF000396821F0E07100F0E070084370474203C8
:10AF000004D1C0F38462134610460EE090FAA0F21A
:10AF1000B2FA82F390FAA0F290FAA0F0B2FA82F2BA
:10AF2000B0FA80F0DBB2D2B2C0B2521C5B1C9140CE
:10AF300070472168886800F0030001287047806D21
:10AF4000704770B504462268906810F00C0F49D025
:10AF5000D06883010FD5E069012804BFA0690128EA
:10AF600009D10121654800E0401E13685D0636D412
:10AF70000028F9D130E002290ED0226890684307FA
:10AF800008D59068830705D495685048054045F07A
:10AF900010059560012912D020688268130706D534
:10AFA0008268930703D4826842F0200282600229FB
:10AFB00003D0032903D10C2502E0082500E0042575
:10AFC00000F0B4FD06462068816829420AD000F0EE
:10AFD000ADFD801B0628F6D300F036F870BD40208A
:10AFE0001060CAE7002070BD7CB5044600200090C8
:10AFF000FFF79FFF02D10868C20723D488686FF368
:10B000009E10E0B98868314D3B4B284040F001006C
:10B01000886000F023F800F089FD0646206801688A
:10B02000CA070FD48168C90704D482682A4042F055
:10B030000102826000F07AFD801B0328EED300F04D
:10B0400003F876BD002076BDA06D40F01000A0652D
:10B05000E06D40F00100E065012070470A202549BD
:10B060000A68B2FBF3F34343009302E00098401EEA
:10B07000009000980028F9D1704738B50446FFF7D2
:10B0800058FF1FD10868C2071CD5886800F00D0062
:10B09000012814D18A680D48024042F002028A60F9
:10B0A00003212068016000F041FD054621688868A1
:10B0B000C10707D500F03AFD401B0328F6D3FFF780
:10B0C000C3FF32BD002032BD00000000C0FFFF7F83
:10B0D00000F0FF03FFFF070000007F40000052C7A1
:10B0E00001000080000084CB0803045000000450DD
:10B0F00000020450340A002080841E000000340A3C
:10B100002DE9F8470026BA4A0F230446884632E064
:10B11000B84DAC4214BF072506258D4045EA0E0503
:10B120004CF82750C743B4490D6800F0CFF8ED0341
:10B1300048BF40EA0C0CC1F800C04D6800F0C6F8EA
:10B14000AD0348BF40EA0C0CC1F804C08D6800F0A4
:10B15000BDF8ED0248BF40EA0C0CC1F808C0CD684C
:10B1600007EA050CD8F80470BD0248BF40EA0C0C91
:10B17000C1F80CC0761CD8F8001031FA06F000F0C7
:10B18000A3800127B74017EA0100F3D0D8F8045094
:10B19000B100022D18BF122D12D1F50804EB850C59
:10B1A00001F01C05DCF820E0D8F810A003FA05F93E
:10B1B0002EEA090E0AFA05F545EA0E05CCF82050EC
:10B1C0004FEA460C4FF0030E256898F804900EFAEB
:10B1D0000CFE6FEA0E0E09F003090EEA050509FAE6
:10B1E0000CF949EA05052560FF43D8F80450012D04
:10B1F00018BF022D03D0112D18BF122D14D1A56830
:10B20000D8F80C900EEA050509FA0CF949EA05058B
:10B21000A5606568D8F80490C9F300193D4009FAA3
:10B2200006F949EA05056560D8F8045005F00309F8
:10B23000B9F1030F08D1D4F82C90C5F3C00507EA83
:10B240000907B5402F43E762E7680EEA0705D8F81B
:10B25000087007FA0CF73D43E560D8F80450EF009A
:10B2600088D51568DFF894C145F00105156001F037
:10B270000C01176807F00107009703FA01FE009F11
:10B28000B7085CF8275025EA0E0EB4F1904F08BFBE
:10B29000002518D05A4DAC4208BF012513D0594D96
:10B2A000AC4208BF02250ED0574DAC4208BF032563
:10B2B00009D0564DAC4208BF042504D0544DAC42D1
:10B2C0007FF426AF052528E7BDE8F18707EA050CDE
:10B2D000D8F8045070472DE9F04702460025464B48
:10B2E000DFF818811BE0434CA24214BF0724062458
:10B2F000BC40A64512D158F82C7027EA060648F83B
:10B300002C60C0431E6806401E605F6807405F6097
:10B310009E6806409E60DF683840D8606D1C31FA38
:10B3200005F057D0012000FA05FC1CEA0100F5D019
:10B3300003266C00176806FA04FE4EEA070717603A
:10B34000EC0802EB8404AF000F26D4F8209007F03D
:10B350001C0A06FA0AFA29EA0A09C4F820906FEAD8
:10B360000E0E94680EEA040494606FEA0C0C5468A4
:10B370000CEA0404546007F00C07D4680EEA0404D5
:10B38000D460BE40D46A0CEA0404D4624FEA950C3F
:10B3900058F82C4006EA040EB2F1904F08BF002482
:10B3A000A6D0174CA24208BF0124A1D0154CA2423E
:10B3B00008BF02249CD0144CA24208BF032497D09B
:10B3C000124CA24208BF042492D0114CA2428AD14E
:10B3D00005248DE7BDE8F0870069084018BF01200B
:10B3E000C0B270470AB18161704781627047000046
:10B3F00060100240001800480004014008000140AD
:10B400000004004800080048000C004800100048F4
:10B410000014004870B5044604F154050E4628781F
:10B42000012801D1022070BD0120287000F033F8FE
:10B430000100686821D120F4885040F00200686063
:10B440002068826822F08042164386602068826805
:10B4500042F0004282604FF47A4022689368002BE9
:10B4600012D5401EF9D1686820F0020040F01000AB
:10B47000686000202870012070BD40F010006860F6
:10B4800000202870084670BD6A6822F0020242F06F
:10B4900001026A60F4E72046FFF7EFBD70470268DB
:10B4A000531C03601170704780B500BF0FF2242257
:10B4B0000FF2182183A000F04BFB00F069FF00F0B1
:10B4C00053F800F07FFF01F011F801F0EDF801F002
:10B4D000C9F901F0D4F901F0F3F901F001FA01F032
:10B4E00023FA01F031F9FEF74FFEFEF7BCFE01F042
:10B4F000CBFB01F0E5FB01F0F3FB00220521172057
:10B5000001F08EFC172001F0A8FC00220521262066
:10B5100001F086FC262001F0A0FC00220521272056
:10B5200001F07EFC272001F098FC00220521282054
:10B5300001F076FC282001F090FC00220521292052
:10B5400001F06EFC292001F088FC00220521252055
:10B5500001F066FC252001F080FC01F003FD01F004
:10B56000DEFD02F001F8FEE7012200B55148B7B058
:10B57000016821F01801016028924FF48031279171
:10B580002B92032102223092319101221421329216
:10B5900033910D2026900722022134923591369165
:10B5A00026A802F021F800B1FEE70F200090032149
:10B5B00000220191029203920492684602F00FFA6F
:10B5C00000B1FEE74FF08052229200210322139136
:10B5D000149115911691179106924FF480711022D3
:10B5E000259108920121022207910A920B920721CC
:10B5F000314805904FF0807209910C9205A802F035
:10B6000055FB00B1FEE74FF4007002F0D5FD00B12C
:10B61000FEE702F0E0FA4FF47A71B0FBF1F001F0CE
:10B620002AFC042001F03BFC00220F214FF0FF30E8
:10B6300001F0F6FB37B000BD10B5204CE0B106209C
:10B6400001F00BFC072001F008FC082001F005FCCC
:10B65000092001F002FC0A2001F0FFFB172001F095
:10B66000FCFB282001F0F9FB292001F0F6FB1D204E
:10B6700001F0F3FB07201BE0062001F0F3FB07209D
:10B6800001F0F0FB082001F0EDFB092001F0EAFBDE
:10B690000A2001F0E7FB172001F0E4FB282001F06D
:10B6A000E1FB292001F0DEFB1D2001F0DBFB002087
:10B6B000206010BD901002401F40020010E000E02A
:10B6C000FEE70000736565640000000056312E300F
:10B6D0002E31000056322E302E3200000EB4C0B58E
:10B6E000024603A800210190009101AB012104480A
:10B6F00078440C3002F098FD06BC5DF810FB00BFEA
:10B700009B7F020010B504F0CDF80E4C21688842F2
:10B7100002D103F0E2FEA06010BD10B504F0C2F843
:10B72000084C2168884207D103F0D7FEA16822693E
:10B73000401AE0608018206110BD0248406880B265
:10B7400070470000F8500120814234BF401A081AA7
:10B7500082428041C043C00F7047F0B585B00446B7
:10B760000D46164668460FF21C31112204F02EFADF
:10B77000002000210EE02B5C1B091DF803706754AC
:10B780002A5C02F00F02401C1DF802306218891C6E
:10B790005370C9B2B042EEDB05B0F0BD10B5130076
:10B7A00018BF00280AD049B113465A1EDBB23BB17C
:10B7B00011F8013B10F8014BA342F5D0002010BD59
:10B7C000012010BD00B59749CA6885B003A890470D
:10B7D0009DF811009DF810109DF80E309DF80D2079
:10B7E000029001919DF80F009DF80C1000900FF24F
:10B7F000A820FFF773FF05B000BD00000EB418B518
:10B80000ADF5007D04464FF40071684604F0EAF996
:10B8100083AA2146684604F025FA0446601E40F2D9
:10B82000FF11884219D222466946012004F0BAFA73
:10B830000FF28420FFF752FF00F0BDF8FFF77DFF05
:10B8400000F0BCF8FFF7BEFF6A4621460FF27820F1
:10B85000FFF744FF9EA0FFF741FF0DF5017D10BCEF
:10B860005DF810FBF8B50E466F4914460A681D4690
:10B87000C240D30732D5012808BF0FF23C200CD0BC
:10B88000022808BF0FF2502007D0032808BF0FF28C
:10B89000502002D0042802D193A0FFF71FFF00F030
:10B8A0008AF8FFF74AFF01460FF2142092A7FFF72C
:10B8B00015FFFFF787FF31468DA0FFF70FFF00262A
:10B8C00004E0A15D3846FFF709FF761CAE42F8D3CD
:10B8D00052A0FFF703FFBDE8F24075E0F1BD2DE98E
:10B8E000F843A0B006466846802104F07BF90027A3
:10B8F0000025E946307818B316F8010B00F023F85C
:10B9000009EBC50200216D1CC2E90001EDB2112D49
:10B91000F0DB002011E00446F0B209EBC0008846DD
:10B92000D0E90001BA0004F073FB204348EA0101AA
:10B93000761E7F1CFAB2AA42EDDB21B0BDE8F0838F
:10B940006E1E0021F6E73A28B8BF303805DBA0F1BB
:10B950004101062934BF37385738C0B27047F8B5AF
:10B960000446B4F5FA7F03D2BDE8F24001F018BEF8
:10B970004FF4FA700025B4FBF0F62C4F08E001F00C
:10B980000FFE384604F07DFB1E2001F059FD6D1CB2
:10B99000A8B2B0424FF4FA70F1D300FB164420462F
:10B9A00001F0FEFD384604F06CFBBDE8F2401E20BD
:10B9B00001F046BD00001AA0FFF790BE4FEA00015B
:10B9C0003FA0FFF78BBE000041A0FFF787BE00003D
:10B9D00010B50446144801784A0712D53EA0FFF777
:10B9E0007DFEFFF7E8FFFFF7A8FEFFF7E7FFFFF791
:10B9F000E9FE214642A0FFF771FE00BF34A0FFF729
:10BA00006DFEBFF34F8F0A490A480A6802F4E062EC
:10BA100002430A60BFF34F8F00BFFDE75D0D0A00D0
:10BA20005B235D002C0200205C0A00206451012091
:10BA30000CED00E00400FA0538B5044686B008466F
:10BA400005A9019104AD009503AB02AA34A104F04D
:10BA50001FFB002002A951F820202254401C04287A
:10BA6000F9DB07B030BD00003EB50C46C17801914E
:10BA700090F802502AA1009543780278204604F0FD
:10BA80001BFB37BD303132333435363738396162DC
:10BA900063646566000000005B253032642D25304C
:10BAA00032642D2530326420253032643A2530321C
:10BAB000643A253032645D001B5B303B33316D00EE
:10BAC0005B2564255D000000252E2A730000000020
:10BAD0001B5B303B33396D001B5B303B33326D00F9
:10BAE0001B5B303B33336D001B5B303B33376D00EA
:10BAF0002573203A20205B002530325820000000BA
:10BB000053797374656D20686173206265656E207A
:10BB100072657365727420666F726D2025730A00FA
:10BB200025642E25642E25642E25640001480068B6
:10BB3000704700BF2C520120704770477047704714
:10BB400070477047EFF30980704700006846704700
:10BB500070B50D461646DFF860460146202204F116
:10BB6000140004F0C9FA2022294604F1340004F03C
:10BB7000C3FA2022314604F1540004F0BDFADFF884
:10BB80003C06DFF83C166060081AA060DFF8341647
:10BB9000DFF83406E060081A20610120207070BDD3
:10BBA00080B5DFF8140600F1540300F1340200F10F
:10BBB0001401DFF81806FFF791FDBDE8024080A0F0
:10BBC000FFF78CBD70B50D0014467DA60FF2107006
:10BBD0000FF2F06207D10FF22871FFF77FFD3046B8
:10BBE000FFF77CFDFEE73CB90FF22071FFF776FD11
:10BBF0003046FFF773FDFEE703F059FF286003F0BE
:10BC00005AFF8000206070BD03F059BF2DE9F0415C
:10BC10000746CE19DFF8A0158878154668A490B1BC
:10BC2000C8780028294614BF0FF2D4500FF2EC5008
:10BC3000FFF754FD00F0DEFABD4238BF3D4602D3A7
:10BC4000AE4238BF3546DFF888750FF2C86838460F
:10BC5000FFF744FD00F0CEFA07E02A682946404687
:10BC6000FFF73CFD00F0C6FA2D1DB542F5D307F1F4
:10BC70002800FFF733FD2046BDE8F041FFF72EBD59
:10BC80002DE9FC47DFF8306505467068009088466E
:10BC9000B06801909146707800270024B8B1B07860
:10BCA00090B9DFF830058169296001274169F268A0
:10BCB000091F914221BF306982188A42B8F1020FF0
:10BCC00002D3696002270124F07860B106E0FFF733
:10BCD0003DFF8246FFF736FF824504D101AA69463F
:10BCE0004846FFF76FFFB07820B30098814538BF12
:10BCF00081461FD301460198411849451AD2894609
:10BD000018E0D9F80000F168001F884222BF3269AC
:10BD1000511881420CD3102F38BF474508D2022F4B
:10BD200003D114B16968884202D045F827007F1C0E
:10BD300009F104090098019908188145E1D33846B2
:10BD4000BDE8F6872DE9F04391B00446DFF888841A
:10BD500001A84146402203F039FF2246102101A8E4
:10BD6000FFF78EFF04460025DFF870640FF2C0591C
:10BD70000CE001A905EBC50051F82520371849460C
:10BD8000384604F099F9202038726D1CA542F0D392
:10BD90000FF22C095CB1009604EBC4030FF2985229
:10BDA000DFF83C1408F14000FFF798FC03E00FF2C5
:10BDB0008840FFF793FC00F020FA11B0BDE8F08353
:10BDC0000D0A000070B5DFF81C44DFF81C646069E0
:10BDD00087A5C0F3400020B13046FFF77FFC00F09C
:10BDE00009F96069C0F38070002800F0C6802078EF
:10BDF00000283CD0C00705D506F12400FFF76EFCF3
:10BE000000F0F8F82078C0F3400028B106F15C009B
:10BE1000FFF764FC00F0EEF82078C0F3C00028B112
:10BE200006F19800FFF75AFC00F0E4F82078C0F320
:10BE3000001028B106F1D000FFF750FC00F0DAF84E
:10BE40002078C0F3401028B106F58470FFF746FC57
:10BE500000F0D0F82178C80918BF11F0030F06D000
:10BE600061680FF22440FFF739FC00F0C3F8207A34
:10BE7000002845D0C00705D506F5A070FFF72EFCB9
:10BE800000F0B8F8207AC0F3400028B106F5B2708F
:10BE9000FFF724FC00F0AEF8207AC0F3800028B150
:10BEA00006F5C670FFF71AFC00F0A4F8207AC0F37C
:10BEB000C00028B106F5DC70FFF710FC00F09AF81E
:10BEC000207AC0F3001028B106F5EE70FFF706FCEB
:10BED00000F090F8207AC0F3401028B106F5007009
:10BEE000FFF7FCFB00F086F8207A010608D58007F2
:10BEF00006D5E1680FF2B030FFF7F0FB00F07AF8FA
:10BF0000208A002839D0C00705D506F50C70FFF748
:10BF1000E5FB00F06FF8208AC0F3400028B106F579
:10BF20001670FFF7DBFB00F065F8208AC0F3800095
:10BF300028B106F52070FFF7D1FB00F05BF8208AEE
:10BF4000C0F3C00028B106F52A70FFF7C7FB00F068
:10BF500051F8208AC0F3002028B106F53570FFF7AC
:10BF6000BDFB00F047F8208AC0F3402028B106F559
:10BF70003F70FFF7B3FB00F03DF86069C00F1CBFD6
:10BF8000A069002832D0C00705D506F54970FFF733
:10BF9000A5FB00F02FF8A069C0F3400028B106F51A
:10BFA0005270FFF79BFB00F025F8A069C0F38000FA
:10BFB00028B106F55B70FFF791FB00F01BF8A06954
:10BFC000C0F3C00028B106F56470FFF787FB00F0EE
:10BFD00011F8A069C0F3001040B106F56D70FFF7CD
:10BFE0007DFB2846BDE87040FFF778BB70BD0000C0
:10BFF0000D0A00002846FFF771BB00002DE9F04F45
:10C000008DB00FF26C326C4C97685368D2F800B068
:10C010000FF2343A0B970C9388461769D368099747
:10C020000A93454697695369079708930FF2801959
:10C03000D76962680592A36806932278A8A342B9DB
:10C040004FEA0A02BEA11846FFF748FB00F0D5F8F8
:10C05000FEE7617839B15246C0A11846FFF73EFBB2
:10C0600000F0CBF8FEE706460120607051A0FFF714
:10C0700035FB00F0C2F8FFF793FDB00810F00100A7
:10C08000E07015D0FFF7C0FD10B1FFF7BDFD00E077
:10C09000B5A001466DA0FFF721FB00F0AEF8FFF759
:10C0A00051FD06AA05A90546FFF78CFDA84604E048
:10C0B0006DA0FFF713FB00F0A0F808F12008F006D0
:10C0C0000598444E58BF08F14808804521BF0146F5
:10C0D0000698411841453CBF0121A1700699059879
:10C0E0004246FFF793FDA078002841D13F4C00F075
:10C0F00081F800F082F82A68326068687060A96888
:10C10000B160EB68F360D5F810C0C6F810C0D5F880
:10C1100014E0C6F814E0D5F818C0C6F818C0ED69E8
:10C12000F56104930291009004F140000A9B0B9981
:10C130000393019159460C9BFFF7D0FA00F05DF88C
:10C14000F06904900397B1690798089B02910190E8
:10C1500004F140007169009132690999FFF7BEFA54
:10C1600000F04BF804F16C00FFF7B8FA00F045F866
:10C170001F480168316206F1240102790A700369DF
:10C180004B6042790A724369CB60C2880A82836835
:10C190004B6182898A61008BC861FFF713FE4046BC
:10C1A000FFF7D0FD5046FFF713FC0DB0BDE8F08F50
:10C1B0000D0A0000000000009C4A01209845001074
:10C1C00098550010B036030888A10008A87203082B
:10C1D000086A0308504E0120A06003089C45012016
:10C1E000B04A0120744E0120583B0308285D030823
:10C1F00024ED00E02046FFF771BA4846FFF76EBA1B
:10C20000B4EDCEF3A3BACFDFB3CCD5BB28253038FD
:10C210007829B7A2C9FAD2E7B3F60000B4EDCEF39D
:10C22000A3BAD6F7D5BB282530387829B7A2C9FAE2
:10C23000D2E7B3F600000000BBF1C8A1BAAFCAFD57
:10C24000B5F7D3C3D5BBCAA7B0DC0000D4DACFDFC3
:10C25000B3CC28257329D6D0B7A2C9FAB4EDCEF352
:10C26000D2ECB3A300000000D4DAD6D0B6CFBBF234
:10C27000C2E3BBFABBB7BEB3CFC2B7A2C9FAB4ED33
:10C28000CEF3D2ECB3A30000B7A2C9FAB4E6B4A2CD
:10C29000C6F7B9DCC0EDB4EDCEF3B5C4B5D8D6B7AA
:10C2A000A3BA253038780000B7A2C9FAD7DCCFDFAF
:10C2B000B4EDCEF3B5C4B5D8D6B7A3BA2530387827
:10C2C000000000006765745F6375725F7468726573
:10C2D00061645F737461636B5F696E666F00000019
:10C2E0002825732920686173206173736572742037
:10C2F0006661696C65642061742025732E000000FE
:10C3000073746172745F61646472000073697A654A
:10C31000000000002020616464723A2025303878E3
:10C3200020202020646174613A2025303878000094
:10C330002530386C780000002E6F75740000000006
:10C34000696E69745F6F6B00636D5F6261636B74CC
:10C35000726163655F6661756C740000216F6E5F6A
:10C360006661756C740000004E4F5F4E414D450094
:10C37000EC7C0308F07C0308F47C0308F87C0308D9
:10C38000FC7C0308007D0308047D0308087D030886
:10C3900080B5032000F037FD0F2003F0BDFE03F051
:10C3A000CFFE002002BD03681AB95A1E026008467B
:10C3B0007047197811B94FF0FF307047591C016070
:10C3C000187870472DE9F0414148424CDFF8088168
:10C3D00086B0016841F00401016042F6C557026869
:10C3E00002F00402059241F210050599026842F03C
:10C3F0008002026041F64776036803F080030593EC
:10C400000599026842F001020260036803F001032B
:10C4100005930599026842F002020260036803F086
:10C42000020305930599026842F0080202600022A7
:10C43000006800F0080005903946059B2046FEF78D
:10C44000D1FF002229464FF09040FEF7CBFF00229B
:10C4500031464046FEF7C6FF0097012101910022B8
:10C460000292039269462046FEF74AFE00F038F831
:10C47000009569464FF09040FEF742FE00F030F81C
:10C48000009669464046FEF73BFE42F20820002136
:10C4900000900191029120466946FEF731FE4FF46B
:10C4A000094000210090029169460C4C01944FF024
:10C4B0009040FEF725FE8021009101940021029119
:10C4C00040466946FEF71CFE06B0BDE8F08100005C
:10C4D0004C10024000080048000400480000111001
:10C4E0000120019000220292039270476A4870B5C1
:10C4F0006A4C6B4D20600021FF207F22E06061606C
:10C50000A26021616161A161E16190B0204603F008
:10C510005DFE10B14E2100F057F80021204604F0D6
:10C5200026F943F2F226B0422BD00E2017218DF8C7
:10C530002C008DF82D1000228DF82E200E920F92D7
:10C540000BA9204603F099FE10B15B2100F03CF8E6
:10C5500001218DF80010112217218DF801208DF88E
:10C5600002108DF8032069460022204603F000FFE8
:10C5700010B1652100F028F832460021204604F071
:10C58000EFF81E2100228DF805108DF80620049288
:10C5900000214FF000420291059106920791089107
:10C5A000172001214FF480728DF804008DF82410BB
:10C5B0000A9201A90022204603F06CFF10B17921F4
:10C5C00000F002F810B070BD2846FFF779B8006897
:10C5D0003149884204D13348026842F40042026083
:10C5E000704738B586B004462C4D002201A9284674
:10C5F00003F0A0FE00226946284603F018FF9DF8CC
:10C60000030020709DF8011061709DF80200A07079
:10C610009DF80410E1709DF8050020719DF806005A
:10C6200060719DF80010A17107B030BD2DE9F04197
:10C6300086B00D460C998DF8051004460D981646E7
:10C6400000218DF80600049100228DF80430059237
:10C6500001A9DFF84880124F404603F00EFE18B1E2
:10C66000C6213846FFF72CF80E988DF800008DF89B
:10C6700001508DF802608DF8034000226946404663
:10C6800003F076FE18B1D0213846FFF719F806B04E
:10C69000BDE8F08100000000002800401450012097
:10C6A0008C7A03089010024080B56548654900F017
:10C6B0005CF80821C16100230721C1624FF40072B8
:10C6C0000821836003614361826103624362836284
:10C6D0000363416304F052F818B1BDE804405321EC
:10C6E00013E001BD80B500F013F800232821C161DB
:10C6F0004FF4007207218360036100F01CF818B149
:10C70000BDE804406B2100E001BD4F48FEF7D8BFF3
:10C710004E484F4901604FF482724FF4E061C160AE
:10C7200042600121416170470261C16100234FF401
:10C730000072072183608261036243628362C16287
:10C740000363436304F01AB880B54248424900F0DD
:10C750000CF80121416102221821FFF7E5FF18B111
:10C76000BDE804409821D0E701BD01604FF482721A
:10C770004FF4E061C1604260704780B586B000F060
:10C7800059F816D1916841F480519160E021906888
:10C7900000F480500590022205980091019200213A
:10C7A0000291032205210491039269464FF09040C3
:10C7B00013E000F03BF813D1116841F4804111609F
:10C7C0000223126802F4804205924FF4604200F0A6
:10C7D00026F80522039304926946FEF791FC1CE0BB
:10C7E0001D4B994219D1116841F400411160022397
:10C7F000126802F400420592382200F010F8062276
:10C80000039304926946FEF77BFC00220521332046
:10C8100000F006FB332000F020FB07B000BD0599B7
:10C82000009201930022029203237047084B0B48A9
:10C830009942704701680348094A814270470000E5
:10C84000E04B012000300140647B0308444C012090
:10C8500000380040A84C0120003C00400004004883
:10C860005810024080B5DFF8B003DFF8B01300F0D5
:10C8700013F818B1BDE8044052211DE001BD80B598
:10C88000DFF89C03DFF89C1300F006F818B1BDE850
:10C890000440662110E001BD01604FF4E132002345
:10C8A0000C2142608360C360036141618361C361A5
:10C8B0000362436204F08CBBDFF86C03FEF700BF39
:10C8C00080B5DFF86803DFF8681301604FF4612278
:10C8D00000F016F818B1BDE804407D21ECE701BD79
:10C8E00080B5DFF85003DFF8501301604FF4E132F8
:10C8F00000F006F818B1BDE804409421DCE701BD62
:10C900000C21416142603021416200234FF480528A
:10C910004FF400518360C36003618361C3610362AC
:10C920008263C16304F054BB80B5C448C449FFF7B7
:10C93000B3FF18B1BDE80440A921BDE701BD80B532
:10C9400086B000F0E4F815D1116841F400211160BF
:10C950000321106800F4002000F07FF80821049102
:10C96000039269464FF09040FEF7CAFB00F077F95A
:10C97000342026E000F0C7F826D1116841F4801178
:10C9800011600223126802F4801205924FF4805263
:10C9900000F05CF80822039304926946FEF7B0FBAE
:10C9A00002210191012202920420032100900391AF
:10C9B000082204926946A348FEF7A2FB00F04AF958
:10C9C000352000F04AFA3FE0994B99420DD190682A
:10C9D00040F4804090604FF4C061906800F4804063
:10C9E00000F03BF80721049114E0934B994216D1D3
:10C9F000106840F400301060116801F400310591B6
:10CA00000C21059800910222012102910192072137
:10CA100004910322039269464FF0904012E0884B44
:10CA2000994211D1116841F48021116002231268EA
:10CA300002F480220592302200F008F807220393C6
:10CA400004926946FEF75CFB07B000BD05990092B1
:10CA50000193012202920323704705900222059858
:10CA600000910192012102910322704780B500F0EC
:10CA70004EF80AD1116821F4002111604FF0904066
:10CA80000321FEF728FC342038E000F03CF80DD1FB
:10CA9000116821F4801111604FF48051FEF71BFCE6
:10CAA00004216848FEF717FC352027E0604B9942C7
:10CAB0000BD1906820F4804090604FF4C0614FF03B
:10CAC0009040FEF708FC252018E05B4B99420AD104
:10CAD000106820F4003010600C214FF09040FEF7F9
:10CAE000FAFB26200AE0564B99420BD1116821F43B
:10CAF000802111603021FEF7EEFB2720BDE80240C7
:10CB000000F0B0B901BD474B4F48994270470168EA
:10CB100042484E4A8142704700F15C020068917EB3
:10CB2000222905D1808C1188D2680840C0B21047F4
:10CB3000018B41F008010183704700F15C02917E96
:10CB400020292FD1117E01292CD001231376FF2318
:10CB50008168B1F5805F04D1016961B940F2FF13CA
:10CB600009E011B9016929B905E0B1F1805F06D189
:10CB7000016911B97F23138001E03F211180002357
:10CB8000D3612221917601688B6843F001038B60A9
:10CB90002F4951600068036843F4907303600020DC
:10CBA000107670470220704710B5044604F050FA22
:10CBB00020681F49884205D1FFF782FE00F05EF829
:10CBC000252022E01C49884205D1FFF789FE00F0AC
:10CBD00050F8262019E01A49884205D1FFF7A4FE33
:10CBE00000F042F8272010E00C49884205D1FFF7F9
:10CBF00039FE00F034F8342007E00A49884206D1B3
:10CC0000FFF73DFE00F026F8352000F026F920461B
:10CC1000BDE8104091E70000B8470120004C0040FB
:10CC200034480120005000403C7C0308B0480120FB
:10CC3000003801402C49012000440040A84901204F
:10CC400000480040000C004800080048581002400E
:10CC500019CB000800220521352000F0E1B80022A0
:10CC60000521342000F0DCB800220521272000F047
:10CC7000D7B800220521262000F0D2B800220521D5
:10CC8000252000F0CDB88FE780B50A480A49016039
:10CC9000042240F6FF7340F6B8314260C360816001
:10CCA00003F0C7F928B1BDE8044045210348FEF769
:10CCB00007BD01BD6451012000300040DC7803084D
:10CCC0003EB5444C444800F025F810B14B2100F02B
:10CCD00017F800F018F810B1522100F011F837BD24
:10CCE0003EB53E4C3E4800F015F810B1632100F00F
:10CCF00007F800F008F810B16A2100F001F837BD1C
:10CD00002846FEF7DDBC00210091029120466946CD
:10CD100004F0F4BC334D20604FF47A7150200022AF
:10CD2000E0606160A260A261204604F011BD7CB5A4
:10CD30000446294920682B4D2B4E884217D1326872
:10CD400042F0020232600022306800F002000090DF
:10CD50000521009B1D2000F063F81D2000F07DF8E8
:10CD6000204604F002FD10B18221FFF7C9FF2068C0
:10CD70001B4988421AD1326842F004023260002214
:10CD8000306800F004000090052100981E2000F09B
:10CD900047F81E2000F061F8204604F0E6FC28B1B8
:10CDA0002846BDE87C409621FEF78ABC73BD10B5CD
:10CDB000044609492068884208BF05F06FF82068DA
:10CDC0000749884205D105F0E7F8BDE8104005F0B5
:10CDD00054B910BDD44E012000040040144F01206E
:10CDE00000080040F47B03085810024009010200CB
:10CDF00006D5314A00F00F00104400F8041C7047BB
:10CE00002E4B195470472E4B19684FF6FF02000243
:10CE1000114000F4E06008432A4908431860704755
:10CE200038B5274B1C68C4F30223C3F10704052C53
:10CE300028BF04241D1D072D34BF0023DB1E012540
:10CE400005FA04F4641E2140994005FA03F35B1EC1
:10CE50001A401143BDE83440C8E7012200F01F0129
:10CE6000194B03E0012200F01F01184B8A404009D2
:10CE700043F82020704710B5401EB0F1807F01D3E9
:10CE8000012010BD124C60600F214FF0FF30FFF702
:10CE9000ADFF0021A16007202060002010BD042804
:10CEA0000B4904D1086840F00400086070470A6824
:10CEB00022F004020A60704718ED00E000E400E090
:10CEC0000CED00E00000FA0500E100E080E100E088
:10CED00010E000E038B5DFF850410546608E2A00CA
:10CEE00001463ED0082D1DD00A2D18BF0D2D02D0B1
:10CEF0007F2D17D021E00020605404F13401628EB0
:10CF0000521C6286DFF82421106805F05BFA606B22
:10CF100030B1DFF81C014FF08051016000F06DF876
:10CF200032A006E0E8B1401E6086002180B22154A4
:10CF30002FA0BDE83240FEF7D1BB6554608E401C87
:10CF4000608680B2322807DB0FF2F800FEF756FC4D
:10CF50003421204602F046FE2846BDE8324005F066
:10CF60002FBC31BD10B5DFF8CC400FF2F8002168BE
:10CF70008847DFF8C420106038B16368DFF8BC2050
:10CF8000BDE810404FF46121184710BD2DE9F0476E
:10CF90008246DFF8AC6037682E2105F017FC0024CC
:10CFA0000100B84604D1504605F01CFC814605E05E
:10CFB000A0EB0A0902E0B846641C18377068874283
:10CFC0000FD03D684A462946504605F015FC00281A
:10CFD000F3D1284605F006FC8145ECD13846BDE882
:10CFE000F087012C0CBF40460020F8E70D0A000036
:10CFF00008200800502080F31188BFF34F8FBFF343
:10D000006F8F704770B504460A2C0A4D0A4E03D143
:10D010003068AA680D2190473068AA68E1B290474D
:10D02000204670BD00000000904F0120704D01208F
:10D0300004ED00E02809002010520120D5CE0008A0
:10D0400088020020636F6E736F6C65207265636584
:10D0500069766520697320746F6F206C656E6774E4
:10D06000680A000073657269616C310010B5DFF801
:10D07000DC432068C10144BF0FF2FC30FEF7BEFB69
:10D080002168880144BF0FF20040FEF7B7FB20681B
:10D0900040011CD5DFF8B8130A78100717D50FF236
:10D0A000F830FEF71BFBA7A0FEF718FBFEF745FBC9
:10D0B00001460FF2EC30FEF711FBFEF783FB0FF297
:10D0C000E830FEF70BFB0FF2F030FEF707FB2068AD
:10D0D000010144BF0FF2E830FEF790FB2068C10069
:10D0E00044BF0FF2F030FEF789FB2068810044BF97
:10D0F0000FF2EC30FEF782FB2068410044BF0FF2D4
:10D10000F030FEF77BFB2068002844BF0FF2F030C0
:10D11000FEF774FB206840F40000206010BDF0B5FD
:10D1200085B0012005F029F8DFF82843DFF82853FF
:10D130000FF2E036E060502728B900F0D7F8A822B7
:10D1400000F0CBF8FEE7012005F017F8206128B9C0
:10D1500000F0CCF8A92200F0C0F8FEE700F0C1F81A
:10D16000A06028B900F0C2F8AC2200F0B6F8FEE7E3
:10D1700000F0B7F8606128B900F0B8F8AD2200F00F
:10D18000ACF8FEE700F0ADF8A06128B900F0AEF809
:10D19000AE2200F0A2F8FEE700F0A3F8606228B922
:10D1A00000F0A4F8AF2200F098F8FEE700F099F83C
:10D1B000206228B900F09AF8B02200F08EF8FEE75D
:10D1C00000F08FF8A06228B900F090F8B12200F0CA
:10D1D00084F8FEE700F085F8E06128B900F086F8F1
:10D1E000B22200F07AF8FEE700F07BF8E06228B99E
:10D1F00000F07CF8B32200F070F8FEE700F071F860
:10D20000206328B900F072F8B42200F066F8FEE757
:10D21000206900F05DF8E06900F05AF805F000FBC5
:10D22000606328B900F062F8B72200F056F8FEE714
:10D2300068460FF21431142202F0C8FC002168463F
:10D2400000F097F9606000220221022004F068FFDC
:10D25000E06328B900F04AF8CC2200F03EF8FEE77F
:10D2600000224FF48671052004F05AFFA06328B90C
:10D2700000F03CF8D02200F030F8FEE700224FF436
:10D28000D471052004F04CFF206428B900F02EF87A
:10D29000D32200F022F8FEE7002210210A2004F039
:10D2A0003FFF606428B900F021F8D62200F015F89D
:10D2B000FEE700220121022004F032FFA06428B919
:10D2C00000F014F8D92200F008F8FEE705B0F0BD30
:10D2D00000230022002104F064BF31462846FEF7F7
:10D2E000FDB903220021012004F01ABF87F3118841
:10D2F000BFF34F8FBFF36F8F7047000010B5044628
:10D3000002F010FD5548C168884755484168884774
:10D310005448C1688847544803682CB1BDE81040A0
:10D320000022002126201847012200212B209847A7
:10D330004FF4C870FEF713FBBDE810407AA0FEF76B
:10D3400047BB00005B235D002DE9FE4305F012FDA5
:10D3500006F0CAFE07F089FA07F0A4FA07F0F0FA1F
:10D36000FFF784FE07F08EFB07F038FC07F0CAFFDA
:10D3700008F0C6F908F00AFB08F0D0FB09F02CF918
:10D380000AF09CF90AF084FD374A324D53680021B7
:10D3900001209847C4B214B10BF038F808E04120DE
:10D3A0008DF804000023A86C002201A904F0F9FE06
:10D3B0002E48FEF793F92E49284E4A685FA7DFF8FA
:10D3C000B4806400C4F10304E0B29047254C06E049
:10D3D000E86C042804BFE06880470021E96440F657
:10D3E000C41000900123686B01221E2105F026FA6B
:10D3F000814609F01E001E2806D1404602F041FE7B
:10D40000686B494605F0A0FA287810B13846FEF757
:10D41000DFFAE86C0028E2D0E86C012802D1FFF7BF
:10D420006DFFDAE7E86C082808BF0020F7D0E86C49
:10D430000228CDD1F0688047CFE70649C86470471D
:10D4400001460448406B05F0ADBA0000941002405C
:10D450005C0A0020684D012070780308F805002060
:10D46000E8050020380A00202C0A00200873030871
:10D47000C400002064510120D3B2BCFED4ADD2F26E
:10D48000B8B4CEBB0A000000B1A3BBA4D7D6BDDAA6
:10D49000B8B4CEBB0A0000001B5B303B33336D00D9
:10D4A0005B2564255D000000B8B4CEBBB0B4BCFC05
:10D4B000B8B4CEBB0A0000001B5B303B33396D00B3
:10D4C000B5CDD3DAB5E7D1B9E3D0D6B5B8B4CEBBD4
:10D4D0000A000000C8EDBCFEB8B4CEBB0A000000D4
:10D4E000C4DAD6C3BFB4C3C5B9B7B8B4CEBB0A009B
:10D4F000CDE2D6C3BFB4C3C5B9B7B8B4CEBB0A007A
:10D50000B5CDB9A6BAC4B7C7B7A8C4A3CABDB8B485
:10D51000CEBB0A004D585F4652454552544F535FAB
:10D52000496E6974000000006465766963655F7325
:10D5300065745F64656661756C7400006D61696E29
:10D540005F7461736B000000607E030849D30008BC
:10D55000030000000000000000040000014600205D
:10D56000842918BFC81C704780B501F022FF002035
:10D5700002BD3EB504460D46B4F90800FFF7EEFFC4
:10D5800002A9019100902B4622692168606892B23D
:10D5900001F00AFE012801D000203EBD02983EBDE8
:10D5A00080B500B9012001F0C3FE002002BD80B5A6
:10D5B00002F07CF9012803D0BDE801400BF086B8E9
:10D5C00001BDB1F5807F02D34FF0FF30704701708D
:10D5D000012070470A780260087800E00078401E59
:10D5E0008041C043C00F70472DE9F8430546DFF87E
:10D5F0008C662878DFF87C76C10626D5B86810F0EE
:10D600000C0F3BD13868810702D5A869002833D0B8
:10D61000396808074EBF396871680909286A01F03E
:10D62000F001814206D200F0EBFA002824D100F08C
:10D63000C4F905E000F0C1F9286A00F0E1FAD8B9B0
:10D6400000F076FABA6800F069FA2878C10768D560
:10D6500000F0AFF9082808D000F0ABF90C2802BFA1
:10D66000F86800F0030003282CD13868810358D5EE
:10D670006868002840F0F580012098E1A86988B129
:10D68000396841F001013960FEF750FA0446386804
:10D69000810700F1E380FEF749FA001B0328F6D367
:10D6A000032084E13868400840003860FEF73EFA05
:10D6B000044638688107C8D5FEF738FA001B0328EE
:10D6C000F7D3EDE76868B0F5803F04D1386840F4DF
:10D6D0008030386011E0B0F5A02F386806D140F4F2
:10D6E00080203860396841F4803105E020F48030D2
:10D6F0003860396821F480213960686860B1FEF7CC
:10D7000015FA04463868810300F1AB80FEF70EFA83
:10D71000001B6528F6D3C3E7FEF708FA044638680D
:10D72000810340F19E80FEF701FA001B6528F6D3C5
:10D73000B6E7FEF7FBF9001B0328C0F0BE80AFE799
:10D74000E86880B1396841F480713960FEF7EEF91C
:10D7500004463868410500F19B80FEF7E7F9001B9D
:10D760000328F6D39CE7386820F480703860FEF711
:10D77000DDF904463868410575D5FEF7D7F9001B79
:10D780000328F7D38CE7400840007060FEF7CEF91D
:10D7900004467068810740F19480FEF7C7F9001BCA
:10D7A0000328F6D37CE70528306806D140F0040052
:10D7B0003060316841F0010105E040084000306010
:10D7C000316821F004013160A86841F2893868B1FC
:10D7D000FEF7ACF981463068810700F1A680FEF7BC
:10D7E000A5F9A0EB09004045F5D359E7FEF79EF9EE
:10D7F00081463068810740F19880FEF797F9A0EBE9
:10D8000009004045F5D34BE7FEF790F9001B0328CC
:10D81000C0F0A28044E7FEF789F9001B0328C0F09E
:10D82000C1803DE73968080106D43968880003D40F
:10D83000F96889088900F960F968DFF84404014053
:10D84000F960FEF773F904463868810140F1AE8053
:10D85000FEF76CF9001B0328F6D321E700F0ADF8C2
:10D86000F3E6287881071AD500F0A3F8042809D038
:10D8700000F09FF80C2802BFF86800F003000228AF
:10D880007FF45EAF3868410502D5E868002857D0BC
:10D890007868296920F0F85040EA016078602878BB
:10D8A00001070ED56869002870683FF46CAF40F03E
:10D8B00001007060FEF73AF90446706881077FF551
:10D8C00038AF2878410735D5B86D0024C10009D498
:10D8D000B86D40F08050B8650124B86D00F08050FC
:10D8E00000900098DFF89C83D8F80000C10513D49D
:10D8F000D8F8000040F48070C8F80000FEF716F970
:10D900008146D8F80000C10506D4FEF70FF9A0EB58
:10D9100009000328F5D3C3E6A86801287FF443AFC4
:10D92000306840F0010030604EE71CB1B86D20F067
:10D930008050B865A86AC8B3B96801F00C010C2919
:10D940003FF49AAE0228386820F0807038607FF487
:10D9500069AFFEF7EBF80446386881013FF554AF34
:10D96000286B696B401E090241EA0011A86BEA6B43
:10D97000000941EA4041E86A52080143286C521EFE
:10D98000400841EA4251401E41EA4061F96038686E
:10D9900040F080703860F96841F08071F960FEF7FE
:10D9A000C5F80446386881017FF535AF0020BDE831
:10D9B000F283B86800F00C007047386840F0080047
:10D9C00038603968286A21F0F001014339607968CC
:10D9D000E86921F47F4141EA0021796070472DE92F
:10D9E000F843DFF8A47205463868894600F007005E
:10D9F000484509D23968C90849EAC101396038681F
:10DA000000F0070048457CD12878DFF86842C1075C
:10DA10005FD56868032802D121688A0108E00228DE
:10DA200002D121688A0303E00028216802D18A0715
:10DA300002D466E04A0564D5A168890840EA8100FD
:10DA4000A06041F28938FEF771F80646686803283D
:10DA50000BD1A06800F00C000C283AD0FEF766F855
:10DA6000801B4045F5D3032031E002280AD1A0688D
:10DA700000F00C0008282CD0FEF758F8801B404519
:10DA8000F5D3F0E700283ED1A06810F00C0F20D0AD
:10DA9000FEF74CF8801B4045F6D3E4E728784107B1
:10DAA00005D5A268E86822F4E0620243A260297802
:10DAB000080706D5A168286921F4605141EAC00130
:10DAC000A16000F035F8A26800F028F80020BDE859
:10DAD000F2832878810705D5A268A86822F0F002B1
:10DAE0000243A260396801F007018945D6D238683F
:10DAF000C00849EAC0003860396801F007014945AB
:10DB0000CCD00120E3E7A06800F00C000428E0D0AE
:10DB1000FEF70CF8801B4045F5D3A4E75B49564B54
:10DB2000C2F30312895CC84018600F2002F0F4BAF7
:10DB300050498B680022002013F00C0F09D08B682D
:10DB400003F00C030C2B02BFCB6803F00303012B83
:10DB500013D10A68130704D44E4A1368C3F303228F
:10DB600002E00A68C2F303124B4B53F822208B6881
:10DB700013F00C0F0ED110460CE08B6803F00C0371
:10DB8000042B08BF454805D08B6803F00C03082B15
:10DB900008BF43488B6803F00C030C2B1AD1CB68E9
:10DBA000C868C0F30210401C03F00303022B03D02B
:10DBB000032B08BF3A4A00E0384AB2FBF0F2C868CB
:10DBC000C0F306204243C868C0F34160401C4000D7
:10DBD000B2FBF0F0704728480068704726482C4A8E
:10DBE000006813682F49C3F3022206E02248284A3E
:10DBF000006813682B49C3F3C222895CC840704790
:10DC00007CB5294E054630680024C10002D500F0DD
:10DC1000CDFA0EE0306840F080503060316801F09D
:10DC200080510091009800F0C1FA316821F08051D4
:10DC30003160B0F5007F04D1802D0CD9A12D09D31E
:10DC400004E0802D88BF032405D801D1022402E01E
:10DC5000702D00D101240C480168C90844EAC101B3
:10DC60000160006800F00700A04201D0012076BDED
:10DC7000002076BD00100240340A002090100240BF
:10DC8000FFFFEEFE0070004000200240281A03084B
:10DC90000810024094100240987303080024F40016
:10DCA00000127A00887E0308581002402DE9FC47D4
:10DCB000054600242868DFF8C8630105A14620D581
:10DCC000686E70B1B0F5800F16D0B0F5000F03D0BC
:10DCD000B0F5400F08D012E0326842F48032326072
:10DCE00003E000F064F9044654B9F16F686E21F462
:10DCF00040010143F16704E000F054F9F3E7012427
:10DD0000A1462868C10420D5A86EA8B1B0F1807FD3
:10DD100016D0B0F1007F03D0B0F1407F04D012E004
:10DD2000316841F48031316074B9F16FA86E21F02F
:10DD300040710143F16708E000F039F90446F3E768
:10DD400000F030F9FAE70124A146286881032BD5B9
:10DD5000F06CC1004FF000080AD4F06C40F0805025
:10DD6000F0644FF00108F06C00F0805000900098D3
:10DD7000DFF8D473386840F480703860FDF7D6FE61
:10DD800082463868C10500F1E380FDF7CFFEA0EBC5
:10DD90000A000228F5D90324A146B8F1000F03D0E8
:10DDA000F06C20F08050F0642878C10705D5F26F40
:10DDB000A86B920840EA8202F2672978880705D5A5
:10DDC000F16FE86B21F00C010143F16729784807F6
:10DDD00005D5F16F286C21F030010143F1672978F6
:10DDE000080705D5F16F686C21F0C0010143F167A8
:10DDF0002978C80605D5F16FA86C21F4407101435C
:10DE0000F1672978880605D5F16FE86C21F4406147
:10DE10000143F1672968880505D5F16FE86D21F4A4
:10DE200040210143F1672968480505D5F16F286E47
:10DE300021F440110143F1672978480605D5F16FB7
:10DE4000286D21F440510143F1672978080605D572
:10DE5000F16F686D21F440410143F1672968C805FD
:10DE600005D5F16FA86D21F440310143F1672968B0
:10DE7000080321D5F16FE86E21F040610143F1679D
:10DE8000E86EB0F1006F0ED1306840F48010306061
:10DE900012E0FDF74BFE001B41F28931884275D339
:10DEA0004FF0030979E7B0F1806F05D1012100F04F
:10DEB0007FF8010018BF81462868410317D5F26F2B
:10DEC000286F22F040620243F267286FB0F1006FC2
:10DED00004D1306840F48010306008E0B0F1806F09
:10DEE00005D1012100F064F8010018BF81462868BF
:10DEF000410418D5F26F686F22F040520243F26776
:10DF0000686FB0F1805F03D1022100F051F807E0A3
:10DF1000B0F1005F07D1022105F1200000F0B2F856
:10DF2000010018BF81462868010405D5F26FA86F6B
:10DF300022F080420243F2672968C80305D5F16FD9
:10DF4000E86F21F000410143F1674846BDE8F687DC
:10DF5000002C7FF421AFDFF84072386810F4407075
:10DF60001CBFD5F8801088420BD03868396841F45E
:10DF70008031396020F440703A6822F480323A608F
:10DF80003860C00706D5FDF7D1FD04463868810723
:10DF90007FF57FAF3A68D5F8800022F440720243E3
:10DFA0003A60FAE6002105F1200000F06BB800218C
:10DFB000281DFFE72DE9F04100F0E5F809D0F168F0
:10DFC00001F0030181422BD150B300F0C8F80CD00E
:10DFD00026E0012804D023D303281BD016D31FE04A
:10DFE000326891071CD500F0C1F8306820F08060DD
:10DFF00000F0C6F880463068010133D5FDF796FD84
:10E00000A0EB08000328F6D3032536E031684A0563
:10E01000E9D405E031688A03E5D431684A03E2D4E3
:10E0200001252AE0012C326909D13B695C48024094
:10E030005B0842EA01215B1E41EA435102E07B6931
:10E0400000F084F83161306840F0806000F098F8AA
:10E050000446306801010CD4FDF768FD001B03285D
:10E06000F7D3D1E7B968002CDCD1326900F063F84E
:10E07000E8E73169B8690143316159E00000000007
:10E080000C1002402DE9F04100F07DF809D0F16854
:10E0900001F0030181422BD150B300F060F80CD0A5
:10E0A00026E0012804D023D303281BD016D31FE079
:10E0B000326891071CD500F059F8306820F0805084
:10E0C00000F05EF880463068810026D5FDF72EFD11
:10E0D000A0EB08000328F6D3032529E031684A05A0
:10E0E000E9D405E031688A03E5D431684A03E2D413
:10E0F00001251DE03B6900F029F87161306840F0AE
:10E10000805000F03DF80446306881000CD4FDF7E3
:10E110000DFD001B0328F7D3DEE7B9687269002CF8
:10E12000E8D100F008F8E8E77169786901437161A6
:10E130002846BDE8F0811B48FB68024042EA012105
:10E140001B0941EA434170470070004016480240F5
:10E150005B0842EA01215B1E41EA43617047F068B7
:10E160007968C0F30210401C88427047F2687968F1
:10E1700022F073021043491E40EA0110F06070471C
:10E180003060FDF7D3BC0746044E38680C46F16892
:10E19000002511F0030F704790100240001002405C
:10E1A000FF809FFFFF80FDFFFF80FFF9DFF86C001D
:10E1B000006800F4C060704710B5DFF86020B0F56B
:10E1C000007F106800F4C06018D1B0F5007F1ED049
:10E1D0001068DFF84C30DFF84C4020F4C06040F4A9
:10E1E0000070106032211868B0FBF4F0484380B131
:10E1F00051694B0548BF401EF9D40AE0B0F5806F65
:10E2000005D0106820F4C06040F4806010600020E9
:10E2100010BD50694105FAD5032010BD00700040C3
:10E22000340A002040420F002DE9F04F0FF2A41CE9
:10E23000A1B0DCE90089CDE900892A9DDFF8DC9BEB
:10E24000049100248DF843500D944FF0FF3882461E
:10E2500016461F460FE0B3462C461BF8011B0498D8
:10E26000D0470028049000F0A2800D98401C641E46
:10E270000D90F2D176193078252808D1002100229E
:10E280000791089209910A920B910C920DE06A464F
:10E29000414630460AF021FB050001D10D98A1E06E
:10E2A000D9D50125E6E741F0010116F8010F202834
:10E2B000F9D023280CD02B2804D02D2805D03028C5
:10E2C00009D076E041F00201EFE741F00401ECE70C
:10E2D00041F00801E9E741F01001E6E70F9209E09B
:10E2E0000F98484505DA00EB800402EB4402303A0F
:10E2F0000F92761C3278A2F130000A28F0D33078E1
:10E300002E2818BFCDF8388022D116F8010F2A2800
:10E3100007D138683860761C50F8042B38600E92AC
:10E3200016E02D280CBF761C002000220E920AE079
:10E3300040B90E9A4A4505DA02EB820403EB440326
:10E34000303B0E93761C3378A3F130020A2AEFD3C8
:10E35000ADF8401021A0317804F038FA08B116F871
:10E36000010B8DF842009DF84200682804D13078F6
:10E3700068280AD1622105E06C2804BF30786C2837
:10E3800003D171218DF84210761C12A806903A46EE
:10E3900016F8013B02A9504600F064F838B912AAF9
:10E3A00002A9504600F0C8F900287FF564AF404646
:10E3B00018E02A2892D13A683A6052F8040B3A6081
:10E3C00000280F9003D540420F9041F00401761CC5
:10E3D00095E700000000000000000000686A6C740F
:10E3E0007A4C000021B0BDE8F08F622820D0682868
:10E3F00011D06A2803D06C2827D0712825D108684D
:10E40000C01D20F007000860D0E900230830086034
:10E41000194610467047002A0A680A60106803D03F
:10E42000121D0A6000B217E0121D0A6080B217E0E8
:10E43000002A0A680A60106803D0121D0A6040B200
:10E440000AE0121D0A60C0B20AE0002A0A680A60E7
:10E45000106803D0121D0A60C1177047121D0A60B0
:10E46000002170477CB50D4611461C462E69B4F15B
:10E47000250200F04F811C3A00F08480121F022A0E
:10E4800040F280800E3A00F00981521F59D0093ABB
:10E4900078D0921E16D0521E35D0521E022A71D943
:10E4A000121F30D0521F00F09880521E49D0521EC9
:10E4B00000F0E280D21E00F0FF80921E41D0D21EFA
:10E4C0003FD02DE195F83A406C2C09D06869421C88
:10E4D0006A610A680A6052F8043B0A60335429E111
:10E4E0000A680A6052F8043B0A6000930022019215
:10E4F0004FF0FF332B636A46294600F098F9002855
:10E5000040F1188103E195F83A000122FFF76DFF11
:10E51000C5E90001002904D56869411C69612D2203
:10E520000DE0288F810704D56869411C69612B22A1
:10E5300005E0C00721D56869411C69612022325479
:10E540001BE095F83A000022FFF74FFFC5E90001F4
:10E5500095F83800010710D5D5E90023002B08BF36
:10E56000002A0AD044F02000782806D168693021BA
:10E570003154401C421C6A6134542146686930445D
:10E58000E86087E00868C01D20F007000860D0E957
:10E59000002308300860C5E90023D5E90001C80F51
:10E5A00004D06869411C69612D220DE0288F810724
:10E5B00004D56869411C69612B2205E0C00704D5B8
:10E5C0006869411C69612022325468693044E860FE
:10E5D0002146284600F036FAACE005F13A025078C0
:10E5E00020B14FF0FF340FF6043074E01078622849
:10E5F00008D0682824D06A2812D06C282ED0712820
:10E600000ED02BE00A680A6052F8040B0A6020B9A9
:10E610004FF0FF340FF6EC205DE0E96A017089E00D
:10E620000A680A6052F8040B0A6020B94FF0FF3400
:10E630000FF6D0204FE0EA6AD317C0E9002379E053
:10E640000A680A6052F8040B0A6020B94FF0FF34E0
:10E650000FF6B0203FE0E96A01806BE00A680A60CB
:10E6600052F8040B0A6020B94FF0FF340FF69420E3
:10E6700031E0E96A01605DE00A680A6052F8040B63
:10E680000A60002120F0000221F0FF33C5E90023D9
:10E69000EE607821284600F02DF94BE06C2285F8D9
:10E6A0003A200B680B6053F8042B0B6052BB4FF001
:10E6B000FF340FF684200EE095F83A206C2AF0D053
:10E6C0000868086050F8044B0860EC603CB94FF0F3
:10E6D000FF340FF648200AF011F9201A76BD2E6B90
:10E6E000002E04D5204604F07DF8044608E03246AA
:10E6F000002120460AF022F9002814BF041B3446EA
:10E70000AC6117E0294600F092F8002812D54FF0CE
:10E71000FF3076BD6869411C69612522325409E0E9
:10E720006969481C686125227254210002D0431C8B
:10E730006B613454002076BD2DE9F0410E4605464C
:10E740009046726B7069316AB46A121AB069521AD3
:10E75000716A121AF069521A121A96F83800141BCC
:10E7600041070DD4002C0BDD2746B0682021A847B7
:10E770000028B06057D0F06A401C7F1EF062F4D1D0
:10E78000736942463146284600F098FC00284AD179
:10E79000376A002F0ADDB0683021A8470028B06032
:10E7A00041D0F06A401C7F1EF062F4D1B369F26878
:10E7B0003146284600F082FCA8BB776A002F09DDAD
:10E7C000B0683021A847B06068B3F06A401C7F1E73
:10E7D000F062F5D1F068B169F36942183146284614
:10E7E00000F06CFCF8B9B76A002F09DDB068302181
:10E7F000A847B060B8B1F06A401C7F1EF062F5D146
:10E8000096F8380041070BD5002C09DDB0682021AF
:10E81000A847B06038B1F06A401C641EF062F5D1C0
:10E820000020BDE8F0814FF0FF30BDE8F0812DE918
:10E83000F8470D46A3B02F6B002F0646904648BF01
:10E840006FF000470FF60C140AF0A4F8D4E9002387
:10E85000696B4018CDE90123812828BF4FF0FF30B4
:10E8600042D20024002F33DDD8F8001001AA6846F8
:10E870000AF03BF88146B9F1000F38D4D8F800000F
:10E8800010B9B9F1010932D44F4521DB6869484418
:10E8900081280AD30021696303AA29463046FFF77D
:10E8A0004BFF040014D40020686103ABD5F814A01A
:10E8B0004A46694603EB0A0001F088F9CA44C5F8E4
:10E8C00014A058F8040B002818BFA7EB0907C9D1FA
:10E8D0004CB903AA29463046FFF72EFF044614B967
:10E8E000002068616863204624B0BDE8F0874FF0DF
:10E8F000FF34F8E72DE9FC4307466F293E6908BF5E
:10E90000082405D041F02000782814BF0A241024E0
:10E910003C25D7E90023642918BF69299046994608
:10E9200005D1002B03D5D8F1000869EB4909B9F1ED
:10E93000000F08BFB8F1000F1FD1386BE8B9082CE1
:10E940004CD197F83800010748D530203B2586F890
:10E950003B0043E000280ED597F8380000F0140083
:10E96000102808D17B6B7969386A5B1A1B1A9A1ACE
:10E97000002AC8BF3A62BDE8F3838DF80010404614
:10E9800049462246E3170AF00BF83032D0B26D1E2A
:10E990003A28019504DB9DF80000A0F151018A1886
:10E9A0007255404649462246E31709F0F9FF804672
:10E9B0005FEA010908BFB8F1000F03D0F8687119C8
:10E9C0008842DCD3082C09D197F83800010705D517
:10E9D000705D302802D06D1E30207055C5F13C02AC
:10E9E000BA617119F960386B8242B3DA821A3A62FD
:10E9F0004FF6EF70398F01403987BDE8F3832DE979
:10EA0000D04306460F4614464FF00008DFF8109436
:10EA100012E0E00707D542464B46304639460AF039
:10EA200043F806460F464046494642464B460AF0E2
:10EA30003BF8641080468946002CEAD130463946BE
:10EA4000BDE8D0832DE9F84F05468A464AF02004F8
:10EA50008EB0D5E90089612C02AE09D0286B002860
:10EA600048BF062003D408BF672C01D101202863CA
:10EA7000D5E900014A005215521C0DD10B030BD0F1
:10EA8000AAF1610103201A29A86102D20FF2CC6118
:10EA900010E00FF2CC610DE04A005215521C0ED16D
:10EAA0000B030CD1AAF1610103201A29A86116D326
:10EAB0000FF2B461E868032201F088F8C0E1CDE903
:10EAC0000C01DDE90C2323F00043B3F5801F0DD2C8
:10EAD0000027002B08BF002A019703D111E00FF295
:10EAE0008461E7E701AA0AF0B1F80AE0CD48CE490F
:10EAF00000EB1350DDE90C2301900B40CB4910468D
:10EB00001943C5E90001612C0DD1E868302101707D
:10EB1000821CBAF1610FEA600CBF78215821417064
:10EB20006869801C6861D5E90001CDE90C01DDE967
:10EB30000C2333F0004104BF0028002300F048817B
:10EB4000612C40F0A080286B494600284CBF4FF054
:10EB5000210B00F1010B404600220023DDE90C8966
:10EB60000AF0ACF801990BF1010738BF89F00049B0
:10EB7000091F002F01918DF808200DF1090040F3C5
:10EB80003581A949009106464046494600220023A6
:10EB90000AF0ACF880F029814800400D00F11C0219
:10EBA00011D0002A0FDD40F2FF739A4205DBA04925
:10EBB00009F000400143002011E0009B194041EAA8
:10EBC000025140460BE028F0000039F0004108BF38
:10EBD00000280FBF49461C2249460AF09FF880468C
:10EBE00089460AF039F9FF1F002F044609DD0AF0B3
:10EBF00051F902460B46404649460AF05DF9804607
:10EC00008946F01D072104E004F00F0200F8012DF1
:10EC10002411002C01DD491EF6D5491E5CBF0022DF
:10EC200000F8012DF9D5DCE00020194602AA0A44BB
:10EC300000E05B1E12F80149491E8442F9D00F28FA
:10EC400004D10DF10900425C521C4254002904D544
:10EC50000198001D02AE5B1C0190581E0CD43118A7
:10EC6000AAF13A040A783032D7B23A2FA8BFA218D4
:10EC7000401E01F80129F5D5286B002840F1A78036
:10EC8000591E2963A3E001996A4A47F2975041430C
:10EC900091FBF2F2019229F00046D2F1070204DD65
:10ECA00040463146FFF7ABFE0AE05242002062497F
:10ECB000FFF7A5FE02460B46404631460AF06EF9C4
:10ECC0008046662C286B06BF019F0A3706273F182F
:10ECD000142FC8BF142730208DF8080089460DF185
:10ECE000090000E03046002F34DD06464046494624
:10ECF0000AF078FA01460A4606F1080304200A26BB
:10ED0000B2FBF6F606EB860EA2EB4E02303203F8AB
:10ED1000012C0A22B6FBF2F202EB820EA6EB4E06A3
:10ED20003036401E03F8026DE9D1083F002F03F191
:10ED30000806D7DD08460AF069FA02460B46404647
:10ED400049460AF0B9F800223C4B09F0ADFE804676
:10ED50008946CBE70DF10901401A0DF1090604E0DF
:10ED60000199491E401E0191761C31783029F7D057
:10ED7000662C02D10199491C03E0652C0CBF0121CE
:10ED800000212B6BCB189842B8BF431E002B1ED41A
:10ED9000834204DAF05C3528A8BF392000DA30203D
:10EDA0001946721E02EB010800E05B1E18F801997B
:10EDB000491E8145F9D0392802D1705C401C70543D
:10EDC000002904D50198401C16465B1C019001984F
:10EDD00000B200901BB232465146284600F034F88B
:10EDE0002EE0C61D002F3FF7CFAE30460DF10901D2
:10EDF000401A03465845C8BF5B46002B0DF1090673
:10EE00003FF53AAF8342BFF60FAF0DF10900C15C89
:10EE100007297FF709AF0F2007E70000CBCCCC0C08
:10EE20000000244002FCFFFFFFFF0F800000E03FD6
:10EE30000000F07FA08601000000F03F84D79741DA
:10EE40000FB0BDE8F08F00002DE9F84783B006460B
:10EE50008A461746984609F04AFDB8F1000F406A05
:10EE6000356B90F8009002DC4FF00108BFA74AF024
:10EE70002000BDF93040662808BF641C15D0672803
:10EE800040F0848014F1040FC0F28680AC4280F21E
:10EE9000838096F83800641C010702D4A845B8BFE7
:10EEA000454620B22D1A48BF00250FFA84FAF068B3
:10EEB000B169BAF1000F25DC4A1C30234354002D00
:10EEC00003DC96F83800010703D5F06800F80290DB
:10EED000521C15EB0A0FB8BF6C4220B244194142D4
:10EEE0004445B8BFA046B26171620FFA88F5F5617A
:10EEF000F068B3692A463946184400F067FE641B7F
:10EF0000B462C4E022B29045084417DA424639465A
:10EF100000F05CFEB0694044B061AAEB0801002D2E
:10EF2000716203DC96F838100A0705D5F16801F81C
:10EF30000090F069401CF061B562A8E0394600F02D
:10EF400045FEB069002D5044A8EB040803DC96F898
:10EF500038100A0703D5F16801F80090401CB06131
:10EF60000FFA88F08542F368B069B8BFA8460FFA77
:10EF700088F207EB0A01184400F028FEB1690FFA85
:10EF800088F00144B161281A706280E0BAF1610F23
:10EF900014D14FF0700A16E0A84504DA96F838103C
:10EFA0000A0758BF45466D1E48BF0025BAF1670FD6
:10EFB00014BF4FF0450A4FF0650A04E0BAF1410F63
:10EFC00008BF4FF0500AB169F368481CB061002DCA
:10EFD00017F8012B5A5403DC96F838100A071BD592
:10EFE000F168431CB36101F80090002D14DDA8F115
:10EFF00001080FFA88F039468542F768B8BFA8467D
:10F000000FFA88F2F81800F0E1FDB0690FFA88F104
:10F0100008446D1AB0617562F068B1690844002C4B
:10F0200080F800A003D42B224270811C03E02D2124
:10F0300041706442811C00206A460AE023460A248B
:10F0400093FBF4F404EB8405A3EB450302F8013BC6
:10F05000401C24B2002CF1DC012806DC4AF020021E
:10F06000652A04BF302201F8012B48B9302001F88D
:10F07000010B07E0401E1DF80030303301F8013B62
:10F080000028F7DCF268B0691044091AF16196F8BB
:10F09000380000F0140010280DD17269B169706A4F
:10F0A0008A18F1698218B06A8A188218706B8242D5
:10F0B000BCBF821A326204B0BDE8F087F8B50546DD
:10F0C0000E4617461C46002074B117F8011BB068A5
:10F0D000A847B06030B1F06A401CF0620020641EA6
:10F0E000F3D1F2BD4FF0FF30F2BD00007072696ED7
:10F0F00074665F733A20256E20646973616C6C6F6F
:10F10000776564007072696E74663A20626164208B
:10F11000256E20617267756D656E74007072696E20
:10F1200074665F733A2062616420257320617267A0
:10F13000756D656E740000007072696E74665F7341
:10F140003A2062616420256C7320617267756D6579
:10F150006E74000000000000000000006E616E0090
:10F160004E414E00696E6600494E4600300030B494
:10F17000002513E050F8042BD30744BFA9F1010385
:10F180009A18091F042942F8045BFAD213468C0727
:10F1900044BF15809B1CC90748BF1D7050F8041B55
:10F1A0000029E7D130BC70472DE9F84306461746E1
:10F1B00084B088469946B8000AF036F805001AD09F
:10F1C00058200AF031F8040012D00D990C982563EC
:10F1D000002203920191009002944B463A46414628
:10F1E000304600F00DF8204600F050F8012004E011
:10F1F00028460AF0B5F84FF0FF3005B0BDE8F083BF
:10F200002DE9F0470A9D81460C461746286B984623
:10F21000A522B9000AF00EF9296B01EB8702171F2E
:10F22000FF08FF000021625C6B1883F83420605CEB
:10F2300010B1491C1029F6D3089E002085F8430020
:10F24000062E099C88BF062605F1480AEE62CAF818
:10F250000400CAF80060281D0AF016F905F118002C
:10F260000AF012F92D61C6F10706AE616D62002049
:10F27000CAF808008AF80C0042464946384609F0A8
:10F2800071F9286004B12560BDE8F0872DE9F041EF
:10F2900000F070F8DFF88C57DFF88C87E86C401CC2
:10F2A000E8641426A86A28BBAC62E86C012827D160
:10F2B000002706FB07F040440AF0D9F87F1C072F0F
:10F2C000F7D305F174000AF0D2F805F18807384643
:10F2D0000AF0CDF828460AF0CAF805F114000AF041
:10F2E000C6F805F138000AF0C2F805F17400E862CA
:10F2F0002F6305E0A86D18B900F051F828BFAC6283
:10F30000A86E401CA8660122E06A696D8240114324
:10F3100069654643211D08EB06000AF0B8F809F0BC
:10F32000C3F9A86D08B100F081FBBDE8F0810000D1
:10F3300080B5B0B1DFF8EC26116F49B100F01DF8CF
:10F3400000F088F940F2D14207A100F062F8FEE730
:10F35000116F491C1167002100F077FB00F063F882
:10F3600008B900F072F901BD765461736B44656CA5
:10F3700061790000044609F077B9502080F31188C4
:10F380007047E26A686DDFF8A036012191400843BA
:10F390006865211D1420424398180AF078B8E06A85
:10F3A000A96ACA6A90427047211D142042439818E6
:10F3B00070473EB5DFF818470FF2347104F19C0036
:10F3C000019000250095002380220FF25940FFF79D
:10F3D000EBFE502101280ED181F3118800F03AF99B
:10F3E0004FF0FF30E0660121A1652565BDE837409B
:10F3F00009F0DEB837BD10F1010FFBD181F31188A0
:10F4000000F028F940F286720FF2D06100F001F8A6
:10F41000FEE7DFF8C006FCF761B9DFF8B406016F5C
:10F42000491C0167704770B5DFF8F865306F00243C
:10F43000002550B900F049F800F00CF940F2EA72EA
:10F440000FF2B461FFF7E5FFFEE709F00DF9306F49
:10F45000401E3067306F002836D1F06CD8B933E0E9
:10F46000F068C46800F035F800F065FAE06A716D84
:10F47000DFF858360122824011437165142250434F
:10F48000211D18440AF003F8E06AB16ACA6A904282
:10F4900024BF0121316630680028E1D10CB100F0B1
:10F4A000F4F9F46D3CB100F01FF808B101203066AA
:10F4B000641EF8D1F565306E30B1DFF81C164FF0E0
:10F4C0008050012500F0C5F8A7E2502181F3118892
:10F4D000704704F118000AF000B880B509F004F98B
:10F4E000DFF8EC05006D02BD2DE9F843DFF8347557
:10F4F000386F0026002854D13C6D641C3C6516D141
:10F50000F96A086850B1FFF7E0FF00F0A3F840F691
:10F51000DB120FF2F451FFF77CFFFEE7F86A396B5C
:10F52000F9623863786E401C786600F0AEF9F86EC8
:10F53000DFF8989584424FF0140825D31AE0281D6F
:10F5400009F0CBFFA86A18B105F1180009F0C5FF52
:10F55000E86A796D012282401143796508FB00F069
:10F56000291D484409F093FFE86AB96ACA6A9042C3
:10F5700028BF0126F96A086880B1F86AC168CD68B9
:10F5800068688442DBD2F866B86AC16A08FB01F099
:10F5900059F80020022A07D3012605E04FF0FF307A
:10F5A000F1E7F86D401CF865386E00B10126304671
:10F5B000BDE8F28310B5DFF86C44206F10B1012173
:10F5C000216610BD2066FCF7A8F8606DB0FA80F2E5
:10F5D000C2F11F0214214A43DFF8F014885850B9D1
:10F5E000FFF773FF00F036F840F6F8220FF22C51C7
:10F5F000FFF70FFFFEE7881800F10802416849682D
:10F600004160914204BF496841604068C168A1629D
:10F61000BDE81040FCF776B810B50C4650B9FFF7BE
:10F62000ACFE00F017F840F608320FF20451FFF775
:10F63000F0FEFEE7DFF8EC138A6A02F1180109F028
:10F6400033FF2046BDE8104034E0DFF88C144FF063
:10F6500080500860BFF34F8FBFF36F8F7047F8B5CE
:10F660000C461546DFF86C340FF2DC41502640B9E9
:10F6700086F31188FFF7EEFF40F6193200F0ADF97E
:10F68000FEE7DFF8A0733A6F42B986F31188FFF7FF
:10F69000E1FF40F61D3200F0A0F9FEE7B96A44F040
:10F6A00000448C61BA6A02F1180109F0F0FE2846A4
:10F6B000BDE8F4400121C8E138B5C068C46854B958
:10F6C000FFF75BFEFFF7C6FF40F663320FF298418B
:10F6D000FFF79FFEFEE7FFF7FCFEDFF84853286FB9
:10F6E00060B900F028F9E26A686DDFF8E0330121C3
:10F6F000914008436865FFF757FE02E004F11801E6
:10F70000284609F0C4FE00F033F802D20120286632
:10F7100032BD002032BD70B5DFF80853DFF8B433D6
:10F720002A6F502642B986F31188FFF793FF40F6FF
:10F730009B3200F050F9FEE741F000410160C468DF
:10F7400044B986F31188FFF785FF40F6A33200F035
:10F7500042F9FEE709F0C1FE00F0EDF8FFF711FEF7
:10F7600000F006F802D20120286670BD002070BDAE
:10F77000A86AC16AE06A8142704780B550B9FFF754
:10F78000FCFDFFF767FF40F6C3320FF2F831FFF7D9
:10F7900040FEFEE7DFF838134A6E0260096D4160F3
:10F7A00001BD70B504460D465022DFF828030FF264
:10F7B000EC3144B982F31188FFF74CFF40F6CD32AB
:10F7C000FBF78CFFFEE745B982F31188FFF742FF94
:10F7D00040F6CE32FBF782FFFEE708F045FFDFF888
:10F7E000F002016D2A6812F1010F0FD06368406EBC
:10F7F0002668B04201D099420AD2C81A904207D274
:10F80000511A591829602046FFF7B7FF002400E07D
:10F81000012408F049FF204670BDDFF8B412012032
:10F820000866704770B5804C7E4D1BE0286F401C09
:10F8300028676869461EB641FFF7F5FDF60F8EB9D9
:10F8400008F012FF286AC668301D09F046FEE86C11
:10F85000401EE864686B401E686308F025FF304670
:10F8600000F009F8686B0028E0D121680129F9D976
:10F87000FFF7EBFEF6E710B50446206B09F070FDCC
:10F880002046BDE8104009F06BBD6649CA6A1068A1
:10F8900010B94FF0FF3203E0C86AC268D06842680E
:10F8A000CA667047DFF82802806A7047DFF82012C6
:10F8B000886D08B901207047086F08B902207047A9
:10F8C000002070472DE9F041040032D0554DFFF77C
:10F8D00066FD2ED2A069002804D4A86AC16AC1F1CD
:10F8E0000701A1611427E16ADFF8E08160697943CB
:10F8F000414488421AD100F01EF80126002801BFB9
:10F90000E16A794358F80100002800F069F8A86A14
:10F91000C06AE0628640696D0E436E654743211DF3
:10F9200008EB0700BDE8F04109F0B1BDA86AC16A63
:10F93000E162BDE8F081201D09F0CFBD2DE9F04165
:10F9400004460022002C43D0364DDFF88831A86AE7
:10F950000FF260215026844208D086F31188FFF709
:10F9600079FE40F6C96200F038F8FEE7E06C40B975
:10F9700086F31188FFF76EFE40F6CB6200F02DF89B
:10F98000FEE7E16AA36C401E9942E06420D0F8B91A
:10F99000FFF7D1FF01261427DFF83081002801BFCF
:10F9A000E16A794358F80100002800F019F8A06CCA
:10F9B000E062C0F10700A061E06A696D86400E4315
:10F9C00047436E65211D08EB070009F060FD012229
:10F9D0001046BDE8F08103F124011846FBF77EBE16
:10F9E00005D1686DE16A06FA01F1884368657047E0
:10F9F000DFF8DC10886A80698A6A896ACB6AC3F199
:10FA0000070393617047DFF8C810886A18B1886AE5
:10FA1000C26C521CC264886A704708F045FE2846D2
:10FA200070BD0000FC4401202C460120A86AC16A78
:10FA3000E06A814207D2284A4FF080511160BFF33B
:10FA40004F8FBFF36F8F70470000F8B5204D2F6DBB
:10FA50000C46A96A0646081D09F03FFD30B9A86AA0
:10FA6000696DC06A012282409143696516F1010FF8
:10FA700008D13CB1A86A011D05F13800BDE8F44089
:10FA800009F005BDA86AF6194660BE42A86A05D20B
:10FA9000011D286BBDE8F44009F006BD011DE86AB0
:10FAA00009F002FDE86E864238BFEE66F1BD0848F7
:10FAB000816A086B70470648816A486C7047044841
:10FAC000816A01F134007047000000002C460120DB
:10FAD000FC440120506D030804ED00E0765461738E
