:020000040800F2
:10000000F0270020F5880008C1800008C3800008A0
:10001000C5800008C7800008C980000800000000F3
:10002000000000000000000000000000758A0008C9
:10003000CB80000800000000798A0008CD8000080D
:100040007D8A0008818A0008858A0008898A00085C
:100050008D8A0008918A0008958A0008998A00080C
:100060009D8A0008A18A0008A58A0008A98A0008BC
:10007000AD8A0008B18A0008B58A0008B98A00086C
:10008000BD8A0008C18A0008C58A0008C98A00081C
:10009000CD8A0008D18A0008D58A0008D98A0008CC
:1000A000DD8A0008E18A0008E58A0008E98A00087C
:1000B000ED8A0008F18A0008F58A0008F98A00082C
:1000C000FD8A0008018B0008058B0008098B0008D9
:1000D0000D8B0008D5800008DF800008E98000084B
:1000E000118B0008F3800008158B0008198B00089D
:1000F0001D8B0008218B0008258B0008298B000828
:100100002D8B0008318B0008358B0008FD8000081E
:100110000781000811810008398B00081B81000845
:100120003D8B0008418B0008458B0008498B000877
:100130004D8B0008518B0008558B0008598B000827
:100140005D8B0008618B0008658B000800000000D3
:10015000698B00086D8B0008718B0008758B000897
:10016000798B00087D8B0008818B0008858B000847
:10017000898B00088D8B0008000000000000000043
:10018000918B0008958B0008BFF34F8FDFF8741830
:100190000A6812F4E062DFF8D00902430A60BFF394
:1001A0004F8F00BFFDE7F0B5140000EB01052700FD
:1001B0003B44017811F01F01461C0122BC46080097
:1001C00040095FEA012E1EF4F85E20295AD3401E32
:1001D000DEF1000EF444062804D196F800E050FA4F
:1001E0008EF0761C96F800E0DEF1000EF444761CEA
:1001F00007EB000E1EF1030E73451BD3BCF1010E7D
:10020000A64519D3AE4219D23178761CBC4517D118
:100210001CF801CC87F800C07F1C87F800C07F1C49
:1002200087F800C07F1C00284FD087F800C07F1CD3
:10023000401EF8E700204DE000204BE00022E5E7FB
:10024000BCF1010C9CF800E087F800E01CF1010C07
:100250007F1C9CF800E087F800E01CF1010C7F1C7B
:100260009CF800E087F800E01CF1010C7F1C0028DE
:100270002BD09CF800E087F800E01CF1010C7F1CFB
:10028000401EF4E7491C07EB0100834209D306EB4B
:100290000100854207D330783870761C7F1C491ED8
:1002A00008E0002016E0002014E030783870761C5A
:1002B0007F1C491E0029F8D1AE4201D2012200E084
:1002C0000022002A01D03178761C002A7FF476AF14
:1002D0003C1B2000F0BD80B5FFF765FF02BD7047F5
:1002E00038B5DFF89048DFF82C5BDFF82C0B296875
:1002F000884720602068002806D0DFF8342D5FF49E
:10030000612120686B68984731BD70472DE9F84F2F
:1003100080460E0014000021200080B241F201024C
:10032000904204DBDFF8F40A00F0D0FF70E0002018
:1003300004E0D04501D2C14512D3401C40F6010271
:1003400090420ED24FF4805909FB00F919F5805AFA
:10035000C845EED1DFF8C80A00F0B8FF012100E07F
:1003600002210800C0B2002804D1DFF8B80A00F06A
:10037000ADFF4DE00800C0B2012808D1220092B2C2
:1003800031004046DFF84C3B1B69984740E0C9B25A
:1003900002293DD1B8EB0908D8F58057200080B27A
:1003A000874224D2A4B2E41BD4F580505FF080557C
:1003B000DFF820BB4FF4805229004846DBF81030AC
:1003C00098473A0005EB0801B046404600F092FF1E
:1003D0004FF4805229005046DBF810309847220035
:1003E000290006EB0704200000F084FF10E05FF016
:1003F00080554FF4805229004846DFF8D83A1B69EF
:100400009847A4B2220005EB0801300000F072FF0B
:10041000BDE8F18F2DE9F04F99B0DFF8BC0A00F08C
:1004200055FF00200026002000204FF480542100BA
:100430000022DFF8A8BA5D46280000F0CBFFF6B234
:100440004FF48050464316F5C016DFF8885A6422F0
:10045000594630002B6998475F463888DFF8801A84
:100460000880B7F80280414689B2DFF8780A00F0C8
:100470002DFF5FF0000915E068464946C9B207EB59
:10048000410189884A46D2B220F812104946C9B2C1
:1004900030F811204946C9B2DFF84C0A00F016FFC7
:1004A00019F101094846C0B2414680B289B288427A
:1004B000E2D3DFF8380A80F80080DFF8300A0078ED
:1004C000801C16EB4006002751E021000022D84690
:1004D000404600F07FFF210000225FF01028C14657
:1004E000484600F077FFE9463800C0B239F81020DE
:1004F00059463000FFF70AFFDFF8F4A94FF48053A4
:1005000042463800C0B239F810105846FFF7E3FEF3
:100510003900C9B22AF811003800C0B23AF81020E8
:100520003900C9B2DFF8CC0900F0D0FE3800C0B203
:1005300039F810003618B9465FFA89F94FF480503F
:1005400000FB09F919F5D9194846296888474FF47D
:10055000805241464846EB689847DFF89C0901689D
:100560003A00D2B23AF81220891801607F1C380094
:10057000DFF878190978C0B28842A6D3DFF8780985
:100580000168DFF8000C00F0A1FE19B0BDE8F08FA3
:1005900030B4020041F2210300200800411E00286F
:1005A00018D01078521CDFF8904A2588C0B295EA1E
:1005B0000025258000200828EFDA25882D0403D4A3
:1005C00025886D00258003E0258893EA4505258070
:1005D000401CF0E7DFF8600A008830BC7047F8B5CF
:1005E0000020002423E02600F6B24FF4805046435A
:1005F00016F5D9164FF480510022DFF8E0582F008D
:10060000380000F0E7FEDFF8E8782000C0B237F8E5
:10061000102029003000DFF8BC381B699847200003
:10062000C0B237F810102800FFF7B2FF641C20009A
:10063000DFF8B8180978C0B28842D4D3DFF8F809D7
:100640000088F2BD38B5FFF7E5FEDFF8EC49002081
:100650002080FFF7C4FFDFF88858298880B28142E4
:1006600021D1DFF8E80A007840071AD5DFF8E00A60
:1006700000F02CFEA6A000F029FE00F0E7FD01002E
:1006800089B2DFF8D00A00F021FE00F0E5FE2288F2
:100690002988DFF8C40A00F019FEDFF8EC0A00F040
:1006A00015FE012020E0DFF8A40A007840071AD5E3
:1006B000DFF89C0A00F00AFE95A000F007FE00F0AB
:1006C000C5FD80B20100DFF88C0A00F0FFFD00F0EC
:1006D000C3FE22882988DFF8B40A00F0F7FDDFF8AE
:1006E000A80A00F0F3FD002032BD80B501004FF4F0
:1006F000B472DFF89C0A00F0D4FFC0B202BD80B52E
:1007000001004FF4B472DFF8880A00F086FFC0B22F
:1007100002BD70B5DFF87C4A0020A4F866014FF4F2
:100720008051FF22DFF8705A2E00300000F052FE98
:100730004FF4B47221002E00300000F0DBFD4FF4C6
:100740008051280000F0F8FFA4F866012000FFF7B0
:10075000D6FF70BD2DE9F0411424DFF8386A30006F
:10076000FFF7C3FFB6F866014FF6FF71884203D169
:10077000306810F1010F66D0B6F866510020A6F877
:1007800066014FF48051FF22DFF80C7AB8464046EC
:1007900000F020FE4FF4B472B8463100404600F03D
:1007A000A9FD4FF48051380000F0C6FF0600DFF8C5
:1007B0009C79387880071CD5DFF8E00900F086FDC9
:1007C00053A000F083FD00F041FD80B20100DFF88E
:1007D000840900F07BFD00F03FFE2A0092B2310058
:1007E00089B2DFF8BC0900F071FDDFF89C0900F068
:1007F0006DFDB6B2ADB2AE4204D0641E2000C0B2F0
:100800000028AAD1E4B2002C3DD13878400718D591
:10081000DFF83C0900F05AFD3DA000F057FD00F064
:1008200015FD80B20100DFF82C0900F04FFD00F04B
:1008300013FEDFF8700900F049FDDFF84C0900F005
:1008400045FD002020E0DFF804090078400718D5B6
:10085000DFF8FC0800F03AFD2DA000F037FD00F0B5
:10086000F5FC80B20100DFF8EC0800F02FFD00F08D
:10087000F3FDDFF8340900F029FDDFF80C0900F082
:1008800025FD002000E00120BDE8F08180B500F0EA
:10089000C6FF48F29100DFF81419086000F0CCFFA1
:1008A00001BD0021DFF808190968C90517D4DFF870
:1008B00004190A884FF6FF739A4202D15FF480113F
:1008C00004E00A88DFF8F01811EA8221491011F1DA
:1008D0000061884201D2012018E0022016E0DFF812
:1008E000D4180A884FF6FF739A4202D15FF4801140
:1008F00004E00A88DFF8C01811EA8221491011F1DA
:100900000061884201D2022000E00120704700000F
:100910005B235D0010B400214FF6FF71DFF89428CF
:1009200013888B4202D15FF4801304E01488DFF84F
:10093000883813EA84235B1013F10063984203D2D2
:1009400010F17840C00A0FE013888B4202D15FF4A7
:10095000801104E01288DFF8601811EA8221B0EB00
:100960006100B0F10060C00A10BC704730B585B0BE
:10097000002000200020009000F051FF4FF40040C4
:10098000DFF828180860DFF834582800FFF7C2FFA6
:1009900004002800FFF785FF0021019102900394D5
:1009A000D4F180040494694601A801F01DF80028E0
:1009B00003D000F041FF012021E0DFF8040801F03E
:1009C00034F900200190DFF8FC472000FFF769FFB1
:1009D00002902000FFF79EFF0390DFF8EC07FFF77F
:1009E00099FF0490694601A800F0FEFF002803D09B
:1009F00000F022FF012002E000F01EFF002005B001
:100A000030BD00000CED00E02DE9F04106000C00C7
:100A100090460025002000F002FF002701E0083684
:100A20007F1CB7EB580F1AD2DFF8A007864216D208
:100A300004EBC700D0E900233100002000F094FE51
:100A400000280BD1D6E9002304EBC700D0E9000150
:100A50008B4201D18242E2D0022500E0032500F062
:100A6000EBFE2800BDE8F081F8B5ADF5806DDFF84C
:100A70004C475FF4D9150020DFF81867DFF87804D9
:100A80000068F064FFF772FF002738E04FF48062DF
:100A900069467819DFF83C341B69984769464FF47A
:100AA00080723819FFF7B0FF00281FD0DFF89C06CE
:100AB0000078800718D5DFF8E40600F007FC2BA0CB
:100AC00000F004FC00F0C2FB80B20100DFF88406F5
:100AD00000F0FCFB00F0C0FCDFF8F40600F0F6FBD1
:100AE000DFF8A40600F0F2FBFFF74EFB20A000F0B9
:100AF000EDFBDFF8CC0601F098F817F58067F06C95
:100B00008742C3D3DFF844060078000718D5DFF822
:100B1000C40600F0DBFB15A000F0D8FB00F096FB4C
:100B200080B20100DFF82C0600F0D0FB00F094FC4E
:100B3000DFF8A40600F0CAFBDFF84C0600F0C6FBA5
:100B400001200DF5806D01B0F0BD80B5DFF84406E1
:100B500000214164002101650021C16400218164FC
:100B6000FFF7D7FD01BD00000400FA055B235D001F
:100B70002E2E2E00C417002038B5FFF7EBFD0028FD
:100B800001D1002042E1DFF8C445207800071DD5DF
:100B9000DFF8400600F09AFB9DA000F097FB00F004
:100BA00055FB010089B2DFF8AC0500F08FFB00F0C7
:100BB00053FCDFF82826DFF8DC05416CDFF820065F
:100BC00000F084FBDFF8C00500F080FBDFF8C455BF
:100BD000686CDFF80816884240F01781E86C00283E
:100BE0001FD12078800718D5DFF8B00500F06EFB24
:100BF00087A000F06BFB00F029FB80B20100DFF85A
:100C0000540500F063FB00F027FCDFF8D80500F086
:100C10005DFBDFF8740500F059FBFFF796FF00203D
:100C2000F4E02078000718D5DFF8A80500F04EFBA7
:100C300077A000F04BFB00F009FB80B20100DFF869
:100C4000140500F043FB00F007FCDFF89C0500F002
:100C50003DFBDFF8340500F039FB2078C00618D5DD
:100C6000DFF8880500F032FB69A000F02FFB00F0F0
:100C7000EDFA80B20100DFF8DC0400F027FB00F0A1
:100C8000EBFBDFF86C0500F021FBDFF8FC0400F063
:100C90001DFB2078C0061BD5DFF8500500F016FBC1
:100CA0005BA000F013FB00F0D1FA80B20100DFF886
:100CB000A40400F00BFB00F0CFFBAB6C2A6DE96CD9
:100CC000DFF8300500F002FBDFF8BC0400F0FEFAAC
:100CD0002078C00618D5DFF8140500F0F7FA4CA00C
:100CE00000F0F4FA00F0B2FA80B20100DFF8640418
:100CF00000F0ECFA00F0B0FBDFF8F40400F0E6FAE4
:100D0000DFF8840400F0E2FA2078000718D5DFF855
:100D1000C40400F0DBFA3EA000F0D8FA00F096FA26
:100D200080B20100DFF82C0400F0D0FA00F094FB50
:100D3000DFF8C40400F0CAFADFF84C0400F0C6FA89
:100D4000FFF780FC00281FD12078000718D5DFF8B6
:100D5000840400F0BBFA2EA000F0B8FA00F076FA96
:100D600080B20100DFF8EC0300F0B0FA00F074FB91
:100D7000DFF8880400F0AAFADFF80C0400F0A6FA05
:100D8000FFF7E3FE002041E02078000718D5DFF8E8
:100D9000440400F09BFA1EA000F098FA00F056FA06
:100DA00080B20100DFF8AC0300F090FA00F054FBD1
:100DB000DFF84C0400F08AFADFF8CC0300F086FA82
:100DC000FFF752FE012820D1A86C2864FFF7BDFE72
:100DD0002078000717D5DFF8FC0300F077FA0CA0A5
:100DE00000F074FA00F032FA80B20100D94800F045
:100DF0006DFA00F031FBDFF80C0400F067FADFF861
:100E0000880300F063FA012000E0002032BD0000FA
:100E10005B235D008C000020908900080C8700088F
:100E20008C8500082887000810B5DFF890432168FA
:100E3000DFF8D4030140B1F1805F2ED1C3480078C0
:100E4000C00617D5DFF8A40300F040FA79A000F03F
:100E50003DFA00F0FBF9010089B2BE4800F036FA15
:100E600000F0FAFADFF8A40300F030FADFF8180314
:100E700000F02CFA012080F31088DFF89403DFF8EB
:100E8000941309680160DFF8901300680860206817
:100E900080F30888086880471AE0AC480078C006EC
:100EA00016D5DFF8480300F011FA62A000F00EFA40
:100EB00000F0CCF980B20100A64800F007FA00F07B
:100EC000CBFADFF8580300F001FAAF4800F0FEF962
:100ED00010BD0000000000209887000800200010CE
:100EE000E8170020B0870008C8870008EC1700202A
:100EF00044150020E0870008C817002010B500F056
:100F00009BFE00F09BF800F0A3FE00F039FF01F01B
:100F100023F801F005F901F075FBFFF7B7FCFFF7C7
:100F2000DFF901F033FD894C2078C00614D5AF48B5
:100F300000F0CCF93FA000F0C9F900F087F90100FA
:100F400089B2844800F0C2F900F086FA7EA000F071
:100F5000BDF98D4800F0BAF92078C00614D5A34831
:100F600000F0B4F933A000F0B1F900F06FF980B2ED
:100F70000100784800F0AAF900F06EFAA84800F0E5
:100F8000A5F9814800F0A2F92078C00616D5974847
:100F900000F09CF927A000F099F900F057F980B211
:100FA00001006C4800F092F900F056FA9D4A9E4903
:100FB0009E4800F08BF9744800F088F92078C0064C
:100FC00014D58A4800F082F91AA000F07FF900F0E9
:100FD0003DF980B201005F4800F078F900F03CFA7A
:100FE000934800F073F9684800F070F9FFF7C4FD0A
:100FF000FFF71AFF2078C00614D57C4800F066F988
:101000000CA000F063F900F021F980B20100514812
:1010100000F05CF900F020FA864800F057F95A48D1
:1010200000F054F94FF47A7001F0D2FCE2E70000CE
:10103000DF0200085B235D00EA17002000B5B7B0AF
:101040007D48016831F0180101600D2026905FF4A1
:10105000803027900120289001202B900220309092
:1010600003203190012032901420339007203490D7
:10107000022035900220369026A801F0B9FC002805
:1010800004D04FF48F616D4800F0E2F80F2000901B
:101090000320019000200290002003900020049083
:1010A0000321684601F02DFF002804D040F286415C
:1010B000624800F0CDF862480590002013900020AF
:1010C00014900020159000201690002017905FF0DB
:1010D000805022904FF480702590032006900120CC
:1010E0000790102008900720099002200A90022003
:1010F0000B905FF080700C9005A802F0B9F8002802
:1011000004D040F29D414D4800F0A2F84FF4007029
:1011100002F000FC002804D040F2A441474800F04F
:1011200097F802F02CF84FF47A71B0FBF1F002F06E
:10113000C1FC042002F0C2FC00220F215FF0FF304E
:1011400002F09DFC37B000BD0A0000009C000020AA
:10115000A0890008B8890008A083000810B5040021
:101160000A2C05D10D2137480068374A926890470C
:1011700020000100C9B233480068334A92689047A2
:10118000200010BD4C880008C0890008D8830008E2
:1011900000F80708701100207001002098890008ED
:1011A00064820008EC820008488400081020024095
:1011B00000000140E075FF1F00FC3F0000A0000898
:1011C000A81700200000040800A00708F99F0708DE
:1011D00044870008A889000810890008AA55BBAAFE
:1011E000B485000828830008D4880008B089000866
:1011F000108400087C84000860880008608700086C
:10120000048600081C8900080000FE1FF8870008FB
:10121000C017002004A00008BC1700207488000834
:10122000A8820008348900082889000898860008E8
:101230007C87000888880008901002401C82000803
:101240001F400200C41700208C00002000207047BF
:10125000FEE7F0B40246106895681318506803EB77
:101260005004C0071DD54D441BE013F8017B05F861
:10127000017B491EF9D1A0B1B60813F8011B06F095
:101280000306032E08BF13F8016B01EB0621494248
:10129000801C294405D011F8016B05F8016B401E34
:1012A000F9D1A3420ED013F8016B16F0030104BF6D
:1012B00013F8011BC91C30090F28DAD113F8010BF0
:1012C0000F30D6E7F0BC02F10C0070470EB4C0B589
:1012D000024603A800210190009101AB01210448BE
:1012E00078440C3002F00AFC06BC5DF810FB00BF2D
:1012F0003975000062B38B0708D0521E11F8013B0C
:1013000000F8013B00F024808B07F6D1830740F002
:10131000208000BF103A07D330B4B1E83810103A3B
:10132000A0E83810F9D230BC530724BFB1E8081048
:10133000A0E8081044BF51F8043B40F8043BD20732
:1013400024BF31F8022B20F8022B44BF0B78037026
:101350007047121F17D35B0009D151F8043B20F8E6
:10136000023B1B0C121F20F8023BF6D20BE051F897
:10137000043B00F8013B1B0A20F8023B1B0C121F28
:1013800000F8013BF3D238BF121D521E24BF11F8E2
:10139000013B00F8013BF8D8704730B4002513E05A
:1013A00050F8042BD30744BFA9F101039A18091F71
:1013B000042942F8045BFAD213468C0744BF158017
:1013C0009B1CC90748BF1D7050F8041B0029E7D1BA
:1013D00030BC704762F30F2262F31F42401810F0D6
:1013E000030308D0C91A1FD3DB0748BF00F8012D3B
:1013F00028BF20F8022D130030B4144615461039CA
:1014000028BF20E93C00FAD8490728BF20E90C0092
:1014100048BF40F8042D890028BF20F8022D48BF9E
:1014200000F8012D30BC7047C91818BF00F8012D15
:10143000CB0728BF00F8012D7047B1F5807F02D39C
:101440004FF0FF3070470170012070470078401E58
:101450008041C043C00F704700B585B003A8DFF8D6
:101460003010C96888479DF8110002909DF810005F
:1014700001909DF80F0000909DF80E309DF80D2012
:101480009DF80C10DFF80C00FFF720FF05B000BD41
:1014900020000020B886000800219C490968C90581
:1014A00015D49B490A884FF6FF739A4202D15FF424
:1014B000801103E00A88974911EA8221491011F14D
:1014C0000061884201D2012016E0022014E0904918
:1014D0000A884FF6FF739A4202D15FF4801103E04D
:1014E0000A888C4911EA8221491011F10061884271
:1014F00001D2022000E00120704710B400214FF615
:10150000FF71834A13888B4202D15FF4801303E09A
:101510001488804B13EA84235B1013F10063984214
:1015200003D210F17840C00A0EE013888B4202D13A
:101530005FF4801103E01288764911EA8221B0EB52
:101540006100B0F10060C00A10BC70472DE9F8439B
:1015500006000C0090460025002016F500690120C9
:1015600080F3108800F05BF9002701E008367F1C4B
:10157000B7EB580F1AD2B9F10800B04216D304EBFA
:10158000C700D0E900233100002000F0EDF800286A
:101590000BD1D6E9002304EBC700D0E900018B4250
:1015A00001D18242E2D0022500E0032500F044F997
:1015B000002080F310882800BDE8F28318B585B0BC
:1015C000040000200090012080F3108800F027F92B
:1015D0004FF400404C490860002001902000FFF7C4
:1015E0005BFF02902000FFF788FF0390012004902A
:1015F000694601A800F0F8F9002806D000F01CF9AF
:10160000002080F31088012005E000F015F900208B
:1016100080F31088002006B010BDF8B5ADF5006D60
:1016200004000D00160000204FF4006100226F46F8
:101630003800FFF7CFFEB6B26F46320029003800FF
:10164000FFF758FE2000FFF7B9FF002801D0002067
:1016500023E069464FF400722000FFF777FF00286F
:101660001AD02D480078800714D52C48FFF72EFE9D
:1016700024A0FFF72BFEFFF7E9FD80B20100284808
:10168000FFF724FEFFF7E8FE2648FFF71FFE264877
:10169000FFF71CFE002000E001200DF5006D01B0F9
:1016A000F0BD38B510FA82F3204CA3420FD20023CC
:1016B00005E004781D00ADB24C55401C5B1C1C00BD
:1016C0001500A4B2ADB2AC42F3D3012019E0124828
:1016D0000078400714D51648FFF7F8FD09A0FFF77A
:1016E000F5FDFFF7B3FD80B201000D48FFF7EEFDF9
:1016F000FFF7B2FE0F48FFF7E9FD0B48FFF7E6FDE5
:10170000002032BD5B235D0010200240000001403C
:10171000E075FF1F00FC3F009C000020F0890008DE
:10172000008A000828860008088A0008FFFF0708CA
:10173000F88900089C88000870B40200002000248A
:101740000BE0084B0500ADB2167896EA252633F873
:10175000163093EA0020521C641C8C42F1DB80B2EC
:1017600070BC70479C7A00082DE9F84F81460E0046
:1017700014001D0001205FF0000ADFF84C72387879
:10178000012801D1022048E0012038704CF2503885
:10179000404600F058F883465846C0B2002838D179
:1017A00000207860DFF824020168490506D5016849
:1017B00031F4806101600220387701E00020387741
:1017C000300022002B00B9F1000F04D100F0DDF849
:1017D0005FF0010A0DE0B9F1010F02D0B9F1020F7B
:1017E00007D1110000F0DCF8B9F1020F01D15FF46C
:1017F000802A404600F027F88346BAF1000F06D051
:10180000DFF8CC01016831EA0A0AC0F800A000F054
:10181000A4F9002038705846C0B2BDE8F28F6C4879
:101820000068002806D56D486D4901606D4901606A
:10183000002000E0012070476548016851F0004138
:1018400001600020704738B5040003F0FBF8050084
:1018500060480168C90309D514F1010FF8D003F0FD
:10186000F1F8401BA042F3D303202BE00168890765
:101870001ED4016809071BD40168C90618D4016881
:10188000890615D40168490612D4016809060FD4E7
:101890000168C9050CD40168890509D401684904A7
:1018A00006D40168090403D44B490968002903D50B
:1018B00000F009F8012005E00168C90701D5012100
:1018C0000160002032BD43480168890704D53E49C4
:1018D0004A6852F001024A600168090704D53A4992
:1018E0004A6852F002024A600168C90604D53649C6
:1018F0004A6852F004024A600168890604D53249F8
:101900004A6852F008024A600168490604D52E4927
:101910004A6852F010024A600168090604D52A4953
:101920004A6852F020024A600168C90504D5264978
:101930004A6852F040024A600168890504D522498C
:101940004A6852F080024A600168490404D51E4981
:101950004A6852F480724A600168090404D51A4941
:101960004A6852F400724A601B4A1168002904D583
:1019700015494B6853F480634B60116851F0004186
:1019800011604CF2FA310160704710B410490C68D4
:1019900054F001040C600260001D036010BC70472D
:1019A00010B440220A4B1C6854F480241C6072B6A8
:1019B0000B68091D0360001D521E1300DBB2002BD3
:1019C000F6D162B610BC7047881700200020024094
:1019D000142002401020024018200240082002403B
:1019E00023016745AB89EFCD2DE9F8438046894651
:1019F00001200020DFF8BC412078012801D102201D
:101A00006EE0012020704CF250363000FFF71BFFD3
:101A100005002800C0B200285ED100206060DFF819
:101A200098010168890510D5016831F400710160E1
:101A30000168490506D5016831F480610160032021
:101A400020770EE0012020770BE00168490506D5DC
:101A5000016831F4806101600220207701E00020FC
:101A60002077D8F8000001280FD1D8F8040000F042
:101A700039F83000FFF7E7FE0500DFF840110A688B
:101A8000DFF83C0102400A6024E05FF0FF30C9F853
:101A90000000D8F8087000E07F1CD8F80810D8F8CB
:101AA0000C0041188F4215D2D8F80410380000F00D
:101AB00030F83000FFF7C7FE0500DFF800110A68B4
:101AC000DFF8000102400A602800C0B20028E3D01D
:101AD000C9F8007000F041F8002020702800C0B262
:101AE000BDE8F283C10705D5DFF8D0100A6852F0CF
:101AF00004020A60800705D5DFF8C000016851F4D0
:101B000000410160DFF8B400016851F480310160E8
:101B10007047C90706D5DFF8A4100A6832F40062DE
:101B20000A6005E0DFF894100A6852F400620A6067
:101B3000DFF888100A685FF0FF53B3FA83F332F4DA
:101B4000FF62984010430860086850F00200086087
:101B5000086850F4803008607047DFF85800017F53
:101B6000012902D0017F03290DD1DFF84C100A684A
:101B700052F400620A600A6832F400620A600A687D
:101B800052F400720A60017F022902D0017F03290A
:101B90000DD1DFF824100A6852F480520A600A68F6
:101BA00032F480520A600A6852F480620A600021AE
:101BB000017770478817002000200240142002405F
:101BC000FB7FFFFF05F8FFFF38B50400002C01D1B3
:101BD000012029E04CF6CC402168086045F25550C0
:101BE00021680860606821684860A0682168886092
:101BF00002F028FF05002068C068002806D002F027
:101C000021FF401B3128F6D303200DE02068006936
:101C1000E168884203D0E0682168086103E04AF681
:101C2000AA2021680860002032BD4AF6AA21006877
:101C3000016000207047000080B5032001F01BFF09
:101C40000F2002F005FF02F017FF002002BD000088
:101C50002DE9F04186B04648016851F00401016069
:101C6000016811F0040105910599016851F08001A6
:101C70000160016811F0800105910599016851F03A
:101C800001010160016811F00101059105990168E8
:101C900051F002010160016811F0020105910599FE
:101CA000016851F008010160006810F0080005901B
:101CB000059842F6C5582F4C00224146200003F0FB
:101CC000D1F841F21005002229005FF0904003F0A6
:101CD000C9F841F64776284F00223100380003F05A
:101CE000C1F8CDF800800120019000200290002072
:101CF00003906946200002F007FF00950120019043
:101D0000002002900020039069465FF0904002F0AE
:101D1000FBFE00960120019000200290002003901D
:101D20006946380002F0F0FE42F2082000900020E0
:101D30000190002002906946200002F0E5FE4FF479
:101D4000094000900D4C01940020029069465FF01C
:101D5000904002F0D9FE8020009001940020029073
:101D60006946380002F0D0FE06B0BDE8F08100BF41
:101D70004C10024000080048000400480000111008
:101D800038B590B0704C71482060002060607F20B2
:101D9000A060FF20E0600020206100206061002042
:101DA000A0610020E061200003F07EF8002803D04D
:101DB0004E216748FFF74CFA43F2F225002120003C
:101DC00003F0EDFBA84233D00E208DF82C00172035
:101DD0008DF82D0000208DF82E0000200E900020A0
:101DE0000F9000220BA9200003F0CCF8002803D0AC
:101DF0005B215748FFF72CFA01208DF800001120D5
:101E00008DF8010017208DF8020011208DF80300D5
:101E100000226946200003F076F9002803D06521EE
:101E20004B48FFF715FA2A000021200003F0B0FB11
:101E300017208DF804001E208DF8050000208DF875
:101E400006000020029000200490002005905FF022
:101E500000400690002007900020089001208DF897
:101E600024004FF480700A90002201A9200003F0A2
:101E7000F3F9002803D079213548FFF7E9F911B0CB
:101E800030BD00683149884204D13248016851F4BC
:101E900000410160704738B586B004002A4D002229
:101EA00001A9280003F0FEF800226946280003F08B
:101EB000ACF99DF8030020709DF8010060709DF85A
:101EC0000200A0709DF80400E0709DF805002071EC
:101ED0009DF8060060719DF80000A07107B030BD4C
:101EE000F8B586B004000D0016000C990D988DF819
:101EF00004308DF805108DF80600002004900020B5
:101F00000590114F002201A9380003F03BF800288A
:101F100003D0C6210E48FFF79BF90E988DF80000FC
:101F20008DF801508DF802608DF80340002269465B
:101F3000380003F0E8F8002803D0D0210448FFF768
:101F400087F907B0F0BD00006417002000280040AA
:101F5000088500089010024080B546484649016057
:101F60004FF482714160002181604FF4E061C160F3
:101F700000210161002141614FF40071816108215C
:101F8000C1610021016200214162002181620721BB
:101F9000C162002101630821416303F007FB0028AF
:101FA00003D053213548FFF753F901BD80B586B002
:101FB0000168314A914219D13348016851F4805186
:101FC0000160006810F4805005900598E0200090B2
:101FD000022001900020029003200390052004902D
:101FE00069465FF0904002F08FFD41E00168244AAD
:101FF000914219D12548016851F48041016000687F
:1020000010F48040059005984FF460400090022045
:10201000019000200290032003900520049069465F
:102020001B4802F071FD23E00068164988421FD169
:102030001648016851F400410160006810F4004046
:102040000590059838200090022001900020029011
:10205000032003900620049069460D4802F054FDC9
:1020600000220521332001F00AFD332001F018FD84
:1020700007B000BDA81500200030014034850008DD
:1020800000380040003C0040601002405810024000
:102090000004004880B5DFF82405DFF8241501604E
:1020A0005FF4E1314160002181600021C1600021C5
:1020B00001610C214161002181610021C161002188
:1020C00001620021416203F061FF002804D0522127
:1020D000DFF8F004FFF7BCF801BD80B5DFF8E804D5
:1020E000DFF8E81401605FF4E131416000218160B4
:1020F0000021C160002101610C2141610021816149
:102100000021C161002101620021416203F03EFF14
:10211000002804D06621DFF8AC04FFF799F801BD70
:1021200080B5DFF8AC04DFF8AC1401605FF4612126
:102130004160002181600021C160002101610C210A
:102140004161002181610021C161002101623021D2
:1021500041624FF4805181634FF40051C16303F039
:1021600015FF002804D07D21DFF85804FFF770F830
:1021700001BD80B5DFF86004DFF8601401605FF432
:10218000E1314160002181600021C16000210161D5
:102190000C214161002181610021C16100210162A6
:1021A000302141624FF4805181634FF40051C1638B
:1021B00003F0ECFE002804D09421DFF80804FFF7B8
:1021C00047F801BD80B5DFF81804DFF81814016086
:1021D0005FF4E1314160002181600021C160002194
:1021E00001610C214161002181610021C161002157
:1021F00001620021416203F0C9FE002804D0A92138
:10220000DFF8C003FFF724F801BD80B586B0016890
:10221000DFF8AC23914222D1DFF8CC03016851F4FE
:1022200000210160006810F400200590059803204B
:1022300000900220019001200290032003900820CA
:10224000049069465FF0904002F05EFC0022052198
:10225000342001F014FC342001F022FC90E00168ED
:10226000DFF86823914232D1DFF87C03016851F432
:1022700080110160006810F48010059005984FF4FB
:1022800080500090022001900120029003200390D2
:10229000082004906946DFF8540302F035FC04205E
:1022A000009002200190012002900320039008205A
:1022B00004906946DFF8380302F026FC002205216D
:1022C000352001F0DCFB352001F0EAFB58E0016825
:1022D000C04A91421AD1C748016851F48041016057
:1022E000006810F48040059005984FF4C06000909D
:1022F0000220019001200290032003900720049007
:1023000069465FF0904002F0FFFB39E00168B34A94
:10231000914219D1B448016851F40031016000685C
:1023200010F40030059005980C20009002200190D8
:1023300001200290032003900720049069465FF07B
:10234000904002F0E1FB1BE00068A649884217D1EB
:10235000A548016851F480210160006810F48020D4
:1023600005900598302000900220019001200290F5
:10237000032003900720049069469C4802F0C4FBA8
:1023800007B000BD80B501688D4A91420DD19648D5
:10239000016831F40021016003215FF0904002F0F8
:1023A000ABFC342001F081FB4AE00168874A91428E
:1023B00011D18D48016831F4801101604FF48051D2
:1023C0008A4802F099FC0421894802F095FC3520E6
:1023D00001F06BFB34E001687E4A91420ED18548E2
:1023E000016831F4804101604FF4C0615FF09040BA
:1023F00002F082FC252001F058FB21E00168774AB9
:1024000091420DD17848016831F4003101600C210E
:102410005FF0904002F070FC262001F046FB0FE0D8
:102420000068704988420BD16F48016831F48021FF
:10243000016030216D4802F05FFC272001F035FB80
:1024400001BD80B50100B1F85C0091F87620222A28
:1024500006D10A68928C1040C0B2896E884705E0A8
:102460000868008B50F008000968088301BD90F8E7
:10247000761020294CD190F87410012901D1022046
:1024800047E0012180F874108168B1F5805F0BD1BD
:102490000169002904D140F2FF11A0F85C101FE08F
:1024A000FF21A0F85C101BE0816800290AD10169B6
:1024B000002903D1FF21A0F85C1011E07F21A0F8D2
:1024C0005C100DE08168B1F1805F09D101690029DC
:1024D00003D17F21A0F85C1002E03F21A0F85C103E
:1024E00000218167222180F876100168896851F007
:1024F000010102689160404901660168096851F470
:10250000907102681160002180F87410002000E0D2
:102510000220704710B50400200003F076FD20680B
:102520002C4988420AD1FFF7FBFD00220521252016
:1025300001F0A5FA252001F0B3FA3AE02068274916
:1025400088420AD1FFF715FE00220521262001F05E
:1025500096FA262001F0A4FA2BE02068214988424F
:102560000AD1FFF72FFE00220521272001F087FA6C
:10257000272001F095FA1CE02068114988420AD111
:10258000FFF788FD00220521342001F078FA34207D
:1025900001F086FA0DE020680C49884209D1FFF766
:1025A0009CFD00220521352001F069FA352001F05B
:1025B00077FA2000FFF75BFF10BD0000D812002063
:1025C000004C00406085000854130020005000407B
:1025D000D0130020003801404C140020004400407B
:1025E000C81400200048004058100240000800486D
:1025F000000C0048601002404324000880B5FFF73B
:1026000089FF01BD80B50A480A4901600421416083
:1026100040F6FF71C16040F6B8318160FFF7D4FA2F
:10262000002803D045210448FEF712FE01BD00BF7B
:10263000A817002000300040DC84000838B5DC4CCE
:10264000DC4D01212868A268904706212868E268CD
:10265000904700212868A268904731BD38B5002016
:10266000D34CD44D01212868A268904705212868E1
:10267000E2689047A5212868E2689047C0B2C00789
:10268000F8D400212868A268904731BD38B504000D
:10269000684600210160FFF7D1FF20208DF800007F
:1026A0002000000C8DF801002000000A8DF80200C7
:1026B0008DF80340BE4CBF4D01212868A2689047A9
:1026C0004FF47A7304226946286802F0D1FF002192
:1026D0002868A2689047FFF7C1FF31BDF8B5040034
:1026E0000E001500684600210160FFF7A7FF0220D9
:1026F0008DF8000068463100090C41703100090A6C
:1027000081708DF80360AA4EAA4F01213868B26823
:1027100090474FF47A7304226946386802F0A8FFA4
:102720004FF47A732A0092B22100386802F0A0FFB9
:1027300000213868B2689047FFF790FFF1BD2DE99E
:10274000F04106000D0000200020002000200020A5
:1027500030004742110089B24FF4807391FBF3F8C7
:102760001400A4B24FF4807194FBF1F301FB134405
:10277000C0B2002821D14046C0B200280FD192B289
:1027800031002800FFF7AAFF71E04FF4807231009A
:102790002800FFF7A3FF16F5807615F580754046F3
:1027A000B0F10108C0B20028EFD1E4B2220092B229
:1027B00031002800FFF792FF59E05FFA88F8B8F17E
:1027C000000F1ED138002100C0B2C9B2884212D217
:1027D000E41B3A00D2B292B231002800FFF77EFF2C
:1027E00056FA87F1FFB205EB0700E4B2220092B27D
:1027F000FFF774FF3BE092B231002800FFF76EFF55
:1028000035E03800C0B2121A100080B24FF4807365
:1028100090FBF3F892B292FBF1F001FB102214004E
:102820003A00D2B292B231002800FFF757FF56FAB1
:1028300087F6FFB23D4409E04FF480723100280072
:10284000FFF74CFF16F5807615F580754046B0F120
:102850000108C0B20028EFD12000C0B2002806D085
:10286000E4B2220092B231002800FFF737FFBDE842
:10287000F081F8B50C001500694600220A600321BA
:102880008DF8001069460200120C4A700200120A0C
:102890008DF80220C870464E464F01213868B26854
:1028A00090474FF47A7304226946386802F0E0FEDC
:1028B0004FF47A732A0092B22100386802F0B4FF14
:1028C000002802D001208DF8000000213868B2688D
:1028D0009047F1BD2DE9F0410020002000200020AC
:1028E000334C344D01212868A26890479F21286805
:1028F000E2689047A5212868E26890470700A52173
:102900002868E26890470600A5212868E268904799
:10291000804600212868A2689047360256EA07469A
:1029200058EA060624480078C00615D52348FEF765
:10293000CDFC1EA0FEF7CAFCFEF788FC010089B2A0
:102940001F48FEF7C3FCFEF787FD31001D48FEF768
:10295000BDFC1D48FEF7BAFC3000BDE8F08110B5A3
:10296000012492B2FFF785FF2000C0B210BD10B560
:10297000012492B2FFF7E3FE2000C0B210BD10B5F3
:102980000124FFF783FE2000C0B210BD38B5094C0A
:10299000074D0E482968884720602068002804D029
:1029A00003F09AFF20686968884731BD5B235D00AA
:1029B00050000020B81700209C00002070890008FB
:1029C00078890008C4880008808900088889000880
:1029D00038B5040002F036F8050014F1010F00D0FC
:1029E000641C02F02FF8401BA042FAD331BD000056
:1029F0002DE9FC41040000202078C00649D5DFF80D
:102A00003458286810F00C0F40F08080DFF8206800
:102A10003068800704D5A069002801D101206EE24A
:102A20003068000703D5306810F0F00005E0DFF8EB
:102A300010080068000910F0F000216A88424BD2AB
:102A4000206A00F0B5FB002801D0012057E2306871
:102A500050F008003060316831F0F001206A014325
:102A60003160DFF8E007016831F47F41E26951EA43
:102A70000221016000F01BFBDFF8CC172A68C2F3CB
:102A80000312895CC840DFF8B41708600F2001F01A
:102A9000DFFF2078C00740F1BB80DFF898070168AE
:102AA00011F00C0108290BD0006810F00C000C2864
:102AB00069D1DFF88407006810F00300032862D1B1
:102AC000DFF86C070068800340F1A280606800288E
:102AD00040F09E80012012E2306850F00800306023
:102AE000316831F0F001206A01433160DFF85407AA
:102AF000016831F47F41E26951EA02210160206AF4
:102B000000F056FB0028B5D00120F8E1A0690028AC
:102B100026D0DFF81C57286850F00100286001F02B
:102B200091FF06002868800706D401F08BFF801B08
:102B30000328F7D30320E2E1286850F0080028605A
:102B4000296831F0F001206A01432960DFF8F406BA
:102B5000016831F47F41E26951EA0221016098E79E
:102B6000DFF8CC66306840084000306001F06AFF52
:102B70000500306880078CD501F064FF401B0328F6
:102B8000F7D30320BBE16068B0F5803F06D1DFF8E2
:102B9000A006016851F48031016018E06068B0F56A
:102BA000A02F0AD1DFF88806016851F48021016066
:102BB000016851F48031016009E0DFF874060168B2
:102BC00031F480310160016831F480210160606876
:102BD00000280ED001F036FF0500DFF8540600682B
:102BE000800315D401F02EFF401B6528F5D3032088
:102BF00085E101F027FF0500DFF834060068800357
:102C000006D501F01FFF401B6528F5D3032076E1B0
:102C10002078800725D5DFF81C06016811F00C012B
:102C200004290BD0006810F00C000C2832D1DFF81A
:102C30000806006810F0030002282BD1DFF8F00529
:102C40000068400504D5E068002801D1012056E164
:102C5000DFF8F005016831F0F851226951EA0261AC
:102C60000160207800075BD56069002845D0DFF857
:102C7000D065306850F00100306001F0E3FE0500DF
:102C8000306880074CD401F0DDFE401B0328F7D3E9
:102C9000032034E1E06800281CD0DFF89465306838
:102CA00050F48070306001F0CDFE050030684005C2
:102CB00006D401F0C7FE401B0328F7D303201EE112
:102CC000DFF88005016831F0F851226951EA0261AC
:102CD0000160C6E7DFF85865306830F48070306016
:102CE00001F0B0FE050030684005BAD501F0AAFE3B
:102CF000401B0328F7D3032001E1DFF84465306867
:102D000040084000306001F09DFE050030688007FB
:102D100006D501F097FE401B0328F7D30320EEE011
:102D20002078400774D50026DFF820552868C000B9
:102D300009D4286850F080502860286810F080502E
:102D4000009000980126DFF808753868C00511D496
:102D5000386850F48070386001F074FE804638683E
:102D6000C00507D401F06EFEB0EB08000328F6D3CF
:102D70000320C4E0A068012806D1DFF8D804016868
:102D800051F00101016017E0A06805280AD1DFF8C1
:102D9000C404016851F004010160016851F00101AF
:102DA000016009E0DFF8AC040168490849000160EE
:102DB000016831F004010160A068002810D001F022
:102DC00041FE0700DFF88C040068800719D401F089
:102DD00039FEC01B41F289318842F3D303208EE0D3
:102DE00001F030FE0700DFF86C040068800708D5AA
:102DF00001F028FEC01B41F289318842F3D3032041
:102E00007DE0F6B2012E03D1286830F080502860B2
:102E1000A06A002872D0DFF81C04006810F00C00D3
:102E20000C2869D0A06A022840D1DFF80454286831
:102E300030F08070286001F005FE060028688001EF
:102E400006D501F0FFFD801B0328F7D3032056E0D1
:102E5000DFF8E413206B401E626B120252EA00128C
:102E6000A06B000952EA4042E06A0243E06B40086E
:102E7000401E52EA4052206C4008401E52EA406216
:102E80000A60286850F080702860086850F08070F0
:102E9000086001F0D7FD0400286880012ED401F0FD
:102EA000D1FD001B0328F7D3032028E0DFF880437F
:102EB000206830F0807020602068000108D420680D
:102EC000800005D4DFF8700301688908890001607B
:102ED000DFF864130A68DFF8800302400A6001F03B
:102EE000B1FD05002068800108D501F0ABFD401B55
:102EF0000328F7D3032002E0012000E00020BDE812
:102F0000F6812DE9F04104000D000020DFF84C634C
:102F1000306810F00700A8420BD23068C008C0002B
:102F200028433060306810F00700A84201D001202B
:102F3000BBE02078C00773D56068032806D1DFF8AE
:102F4000F002006880011CD40120AEE06068022815
:102F500006D1DFF8DC020068800312D40120A4E06F
:102F60006068002806D1DFF8C8020068800708D42E
:102F700001209AE0DFF8B8020068400501D4012082
:102F800093E0DFF8B072396889088900606801430E
:102F9000396001F057FD8046606803280ED138681B
:102FA00010F00C000C283BD001F04CFDB0EB0800F9
:102FB00041F289318842F2D3032076E0606802282A
:102FC0000ED1386810F00C00082829D001F03AFD25
:102FD000B0EB080041F289318842F2D3032064E06B
:102FE000606800280DD1386810F00C0F18D001F07F
:102FF00029FDB0EB080041F289318842F3D3032068
:1030000053E0386810F00C00042809D001F01AFDD4
:10301000B0EB080041F289318842F2D3032044E04A
:103020002078800707D5DFF80C120A6832F0F0022A
:10303000A06802430A60306810F0070085420BD296
:103040003068C008C00028433060306810F00700C6
:10305000A84201D0012028E02078400707D5DFF8FA
:10306000D4110A6832F4E062E06802430A60207812
:10307000000708D5DFF8BC01016831F4605122690E
:1030800051EAC201016000F012F8DFF8BC11DFF86C
:10309000A4211268C2F30312895CC840DFF89C11B6
:1030A00008600F2001F0D4FC0020BDE8F081002270
:1030B000002000200220022000205E490B6813F04F
:1030C0000C0F0AD00B6813F00C030C2B1AD15A4BBF
:1030D0001B6813F00303012B14D1554A13681B0717
:1030E00004D4574A1268C2F3032202E01268C2F302
:1030F00003125B4B53F822200B6813F00C0F0ED118
:1031000010000CE00B6813F00C03042B01D15548A0
:1031100005E00B6813F00C03082B00D15248096836
:1031200011F00C010C2929D1434B186810F0030051
:103130001968C1F30211491C022802D0032808D0E3
:103140000FE04848B0FBF1F11868C0F30620414396
:103150000DE04548B0FBF1F11868C0F3062041438B
:1031600005E0B2FBF1F11868C0F30620414318688E
:10317000C0F34160401C4000B1FBF0F070472F48A5
:103180000068704780B5FFF7FAFF3849294A12688E
:10319000C2F30222895CC84002BD80B5FFF7EFFF91
:1031A0003249244A1268C2F3C222895CC84002BD77
:1031B0007CB5040000200025244E3068C00002D5F4
:1031C00000F0A2FB0EE0306850F0805030603068B4
:1031D00010F080500090009800F096FB316831F0BC
:1031E00080513160B0F5007F07D1812C10D3A12C24
:1031F00001D302250CE001250AE0812C01D303252F
:1032000006E0802C01D1022502E0702C00D10125BE
:1032100012480168C908C90029430160006810F01C
:103220000700A84201D0012000E0002076BD000088
:1032300000100240081002400C1002401C00002048
:103240009410024004100240E48800085810024024
:103250000070004090100240FFFFEEFE0020024090
:10326000AC8400080024F40000127A00C889000829
:103270002DE9FC47040000200020002600252068DE
:10328000000530D5606E002810D0B0F5800F13D047
:10329000B0F5000F03D0B0F5400F14D014E0DFF804
:1032A000A803016851F4803101600EE00021201D67
:1032B00000F0D4F9060008E0002114F1200000F02D
:1032C00079FA060001E000E001263000C0B20028D3
:1032D00008D1DFF878130A6832F44002606E0243C6
:1032E0000A6000E035002068C00430D5A06E0028D8
:1032F00010D0B0F1807F13D0B0F1007F03D0B0F1D7
:10330000407F14D014E0DFF84003016851F48031AD
:1033100001600EE00021201D00F0A0F9060008E089
:10332000002114F1200000F045FA060001E000E061
:1033300001263000C0B2002808D1DFF810130A6857
:1033400032F04072A06E02430A6000E0350020684F
:10335000800375D55FF00008DFF8F4723868C000AC
:103360000AD4386850F080503860386810F08050C7
:10337000009000985FF00108DFF8D892D9F80000BB
:1033800050F48070C9F8000001F05CFB8246D9F867
:103390000000C00506D401F055FBB0EB0A0003287D
:1033A000F5D303263000C0B200283FD1DFF8A89241
:1033B000D9F8000010F44070002815D0D4F880101F
:1033C000884211D0D9F8000030F44070D9F80010CC
:1033D00051F48031C9F80010D9F8001031F480316F
:1033E000C9F80010C9F80000C0070FD501F02AFB8A
:1033F0008246D9F80000800708D401F023FBB0EB27
:103400000A0041F289318842F3D303263000C0B26A
:10341000002809D1D9F8001031F44071D4F88000A7
:103420000143C9F8001002E0350000E035005FFA02
:1034300088F8B8F1010F03D1386830F08050386057
:103440002078C00707D5DFF804120A6892089200B6
:10345000A06B02430A602078800707D5DFF8EC11E3
:103460000A6832F00C02E06B02430A6020784007E1
:1034700007D5DFF8D8110A6832F03002206C024319
:103480000A602078000707D5DFF8C0110A6832F01B
:10349000C002606C02430A602078C00607D5DFF8DE
:1034A000AC110A6832F44072A06C02430A602078C2
:1034B000800607D5DFF894110A6832F44062E06CA8
:1034C00002430A602068800507D5DFF880110A688A
:1034D00032F44022E06D02430A602068400507D5BF
:1034E000DFF868110A6832F44012206E02430A6065
:1034F0002078400607D5DFF854110A6832F44052AC
:10350000206D02430A602078000607D5DFF83C11E1
:103510000A6832F44042606D02430A602068C005C8
:1035200007D5DFF828110A6832F44032A06D024353
:103530000A602068000320D5DFF810110A6832F015
:103540004062E06E02430A60E06EB0F1006F06D1A7
:10355000DFF8F400016851F4801101600DE0E06EC5
:10356000B0F1806F09D10121201D00F077F8010032
:103570000800C0B2002800D00D002068400320D50C
:10358000DFF8C8100A6832F04062206F02430A6018
:10359000206FB0F1006F06D1DFF8AC00016851F484
:1035A000801101600DE0206FB0F1806F09D1012121
:1035B000201D00F053F801000800C0B2002800D020
:1035C0000D002068400425D5DFF880100A6832F02D
:1035D0004052606F02430A60606FB0F1805F0AD1B1
:1035E0000221201D00F03AF801000800C0B20028B6
:1035F00010D00D000EE0606FB0F1005F0AD1022123
:1036000014F1200000F0D6F801000800C0B2002834
:1036100000D00D002068000407D5DFF830100A68DC
:1036200032F08042A06F02430A602068C00307D5D1
:10363000DFF818100A6822F00042E06F02430A60C7
:103640002800C0B2BDE8F6870C1002408810024086
:103650005810024000700040901002402DE9F041E7
:1036600006000C0000200025A049086810F0030F98
:1036700011D0086810F003003268904209D1306818
:10368000002806D00868C0F30210401C7168884208
:103690002DD001252BE03068012804D018D3032851
:1036A0000DD006D314E092480068800700D40125AD
:1036B0000FE08F480068400500D4012509E08C48E0
:1036C0000268920303D40068400300D4012500E09F
:1036D00001252800C0B2002809D10A6832F073021F
:1036E000306802437068401E52EA00120A602800E7
:1036F000C0B200285AD17E4F386830F08060386000
:1037000001F0A0F980463868000106D501F09AF969
:10371000B0EB08000328F6D303252800C0B2002828
:1037200044D1002C0CD173490A6873480240B06838
:1037300052EA0022F068000952EA40420A601CE0A6
:10374000012C0DD16B490A686C480240B06852EAFE
:10375000002230694008401E52EA40520A600CE0E4
:1037600064490A6866480240B06852EA00227069FB
:103770004008401E52EA40620A60386850F080609B
:10378000386001F05FF904003868000105D401F0E9
:1037900059F9001B0328F7D303252800C0B20028DD
:1037A00004D154490A68B06902430A602800C0B2D3
:1037B000BDE8F0812DE9F04106000C000020002555
:1037C0004A49086810F0030F11D0086810F0030090
:1037D0003268904209D13068002806D00868C0F3EA
:1037E0000210401C716888422DD001252BE0306802
:1037F000012804D018D303280DD006D314E03C4888
:103800000068800700D401250FE0394800684005B2
:1038100000D4012509E036480268920303D4006809
:10382000400300D4012500E001252800C0B2002893
:1038300009D10A6832F07302306802437068401E92
:1038400052EA00120A602800C0B200284AD1284F6C
:10385000386830F08050386001F0F4F880463868FD
:10386000800006D501F0EEF8B0EB08000328F6D38F
:1038700003252800C0B2002834D1002C0CD12149E6
:103880000A681D480240B06852EA0022F068000948
:1038900052EA40420A600CE01A490A68184802409D
:1038A000B06852EA002230694008401E52EA406285
:1038B0000A60386850F08050386001F0C3F80400A6
:1038C0003868800005D401F0BDF8001B0328F7D349
:1038D00003252800C0B2002804D10A490A6870698B
:1038E00002430A602800C0B2BDE8F0810C1002401B
:1038F0000010024010100240FF80FDFFFF809FFF7C
:10390000FF80FFF914100240DFF88000006810F417
:10391000C06070470021B0F5007F26D1DFF86C0051
:10392000016811F4C061B1F5007F2CD0016831F459
:10393000C06151F400710160DFF854000068DFF8E5
:103940005410B0FBF1F03221484300E0401E002843
:1039500004D0DFF8441009684905F7D4DFF83800CF
:10396000006840050FD503200EE0DFF82000016855
:1039700011F4C061B1F5806F05D0016831F4C06108
:1039800051F4806101600020704700000070004029
:103990001C00002040420F001470004010F007008F
:1039A0004D4B1A684FF6FF010A404C4951EA00217D
:1039B0000A431A60704748480068C0F30220704705
:1039C000012210F01F018A40454940B2400941F8E8
:1039D00020207047012210F01F018A40414940B267
:1039E000400941F820207047020052B2002A08D551
:1039F00009013D4A40B210F00F00104400F8041CC9
:103A000003E00901394A40B21154704710B410F074
:103A10000700D0F10703052B01D3042301E0D0F107
:103A20000703041D072C01D2002000E0C01E012462
:103A300014FA03F35B1E1940814014FA00F0401E93
:103A40001040084310BC704780B5411EB1F1807F23
:103A500001D301200EE0401E254908600F215FF0D0
:103A6000FF30FFF7C1FF00202249086007202249EC
:103A70000860002002BD80B5FFF790FF01BD70B562
:103A800004000D0016000020FFF795FF320029000A
:103A9000FFF7BCFF0100200040B2FFF7A5FF70BD9B
:103AA00080B540B2FFF78CFF01BD80B540B2FFF793
:103AB00091FF01BD80B5FFF7C7FF02BD042805D106
:103AC0000D48016851F00401016004E00A480168F2
:103AD00031F00401016070470CED00E00000FA05D0
:103AE00000E100E080E100E018ED00E000E400E02B
:103AF00014E000E018E000E010E000E02DE9F04FF5
:103B00000FF2A41CA1B0DCE90089CDE900892A9D4F
:103B1000DFF8DC9B049100248DF843500D944FF0A6
:103B2000FF38824616461F460FE0B3462C461BF868
:103B3000011B0498D0470028049000F0A2800D9843
:103B4000401C641E0D90F2D176193078252808D1DA
:103B5000002100220791089209910A920B910C9280
:103B60000DE06A464146304602F036FF050001D1BD
:103B70000D98A1E0D9D50125E6E741F0010116F83D
:103B8000010F2028F9D023280CD02B2804D02D2871
:103B900005D0302809D076E041F00201EFE741F08E
:103BA0000401ECE741F00801E9E741F01001E6E724
:103BB0000F9209E00F98484505DA00EB800402EB0C
:103BC0004402303A0F92761C3278A2F130000A2873
:103BD000F0D330782E2818BFCDF8388022D116F8CF
:103BE000010F2A2807D138683860761C50F8042B5A
:103BF00038600E9216E02D280CBF761C00200022A3
:103C00000E920AE040B90E9A4A4505DA02EB8204A8
:103C100003EB4403303B0E93761C3378A3F1300260
:103C20000A2AEFD3ADF8401021A0317802F0DEFE71
:103C300008B116F8010B8DF842009DF84200682883
:103C400004D1307868280AD1622105E06C2804BFCD
:103C500030786C2803D171218DF84210761C12A89F
:103C600006903A4616F8013B02A9504600F064F867
:103C700038B912AA02A9504600F0C8F900287FF509
:103C800064AF404618E02A2892D13A683A6052F868
:103C9000040B3A6000280F9003D540420F9041F08A
:103CA0000401761C95E70000000000000000000001
:103CB000686A6C747A4C000021B0BDE8F08F62280D
:103CC00020D0682811D06A2803D06C2827D071280A
:103CD00025D10868C01D20F007000860D0E9002346
:103CE00008300860194610467047002A0A680A60C2
:103CF000106803D0121D0A6000B217E0121D0A609E
:103D000080B217E0002A0A680A60106803D0121D0A
:103D10000A6040B20AE0121D0A60C0B20AE0002A3E
:103D20000A680A60106803D0121D0A60C117704744
:103D3000121D0A60002170477CB50D4611461C46D5
:103D40002E69B4F1250200F04F811C3A00F0848006
:103D5000121F022A40F280800E3A00F00981521FA1
:103D600059D0093A78D0921E16D0521E35D0521E24
:103D7000022A71D9121F30D0521F00F09880521EB3
:103D800049D0521E00F0E280D21E00F0FF80921E49
:103D900041D0D21E3FD02DE195F83A406C2C09D08D
:103DA0006869421C6A610A680A6052F8043B0A604A
:103DB000335429E10A680A6052F8043B0A60009310
:103DC000002201924FF0FF332B636A46294600F030
:103DD00098F9002840F1188103E195F83A00012292
:103DE000FFF76DFFC5E90001002904D56869411C92
:103DF00069612D220DE0288F810704D56869411C77
:103E000069612B2205E0C00721D56869411C696101
:103E1000202232541BE095F83A000022FFF74FFFB2
:103E2000C5E9000195F83800010710D5D5E9002350
:103E3000002B08BF002A0AD044F02000782806D1C1
:103E4000686930213154401C421C6A613454214657
:103E500068693044E86087E00868C01D20F007000A
:103E60000860D0E9002308300860C5E90023D5E9DF
:103E70000001C80F04D06869411C69612D220DE062
:103E8000288F810704D56869411C69612B2205E0F0
:103E9000C00704D56869411C6961202232546869F1
:103EA0003044E8602146284600F036FAACE005F1DF
:103EB0003A02507820B14FF0FF340FF6043074E02E
:103EC0001078622808D0682824D06A2812D06C287C
:103ED0002ED071280ED02BE00A680A6052F8040B2D
:103EE0000A6020B94FF0FF340FF6EC205DE0E96A7C
:103EF000017089E00A680A6052F8040B0A6020B970
:103F00004FF0FF340FF6D0204FE0EA6AD317C0E934
:103F1000002379E00A680A6052F8040B0A6020B9AD
:103F20004FF0FF340FF6B0203FE0E96A01806BE00C
:103F30000A680A6052F8040B0A6020B94FF0FF3497
:103F40000FF6942031E0E96A01605DE00A680A60DA
:103F500052F8040B0A60002120F0000221F0FF3328
:103F6000C5E90023EE607821284600F02DF94BE0EA
:103F70006C2285F83A200B680B6053F8042B0B6019
:103F800052BB4FF0FF340FF684200EE095F83A2034
:103F90006C2AF0D00868086050F8044B0860EC60A8
:103FA0003CB94FF0FF340FF6482002F02BFD201AE9
:103FB00076BD2E6B002E04D5204602F043FD04464C
:103FC00008E032460021204602F058FD002814BFC8
:103FD000041B3446AC6117E0294600F092F8002833
:103FE00012D54FF0FF3076BD6869411C696125220A
:103FF000325409E06969481C686125227254210025
:1040000002D0431C6B613454002076BD2DE9F04191
:104010000E4605469046726B7069316AB46A121A90
:10402000B069521A716A121AF069521A121A96F885
:104030003800141B41070DD4002C0BDD2746B06857
:104040002021A8470028B06057D0F06A401C7F1E8E
:10405000F062F4D1736942463146284600F098FC7C
:1040600000284AD1376A002F0ADDB0683021A847FE
:104070000028B06041D0F06A401C7F1EF062F4D18D
:10408000B369F2683146284600F082FCA8BB776A23
:10409000002F09DDB0683021A847B06068B3F06A2E
:1040A000401C7F1EF062F5D1F068B169F3694218D7
:1040B0003146284600F06CFCF8B9B76A002F09DDDC
:1040C000B0683021A847B060B8B1F06A401C7F1ECC
:1040D000F062F5D196F8380041070BD5002C09DDC8
:1040E000B0682021A847B06038B1F06A401C641E57
:1040F000F062F5D10020BDE8F0814FF0FF30BDE85F
:10410000F0812DE9F8470D46A3B02F6B002F06462E
:10411000904648BF6FF000470FF60C1402F0DAFC2F
:10412000D4E90023696B4018CDE90123812828BF19
:104130004FF0FF3042D20024002F33DDD8F80010BA
:1041400001AA684602F04AFC8146B9F1000F38D452
:10415000D8F8000010B9B9F1010932D44F4521DB7C
:104160006869484481280AD30021696303AA294663
:104170003046FFF74BFF040014D40020686103AB06
:10418000D5F814A04A46694603EB0A00FDF7B2F8D9
:10419000CA44C5F814A058F8040B002818BFA7EBB0
:1041A0000907C9D14CB903AA29463046FFF72EFFAB
:1041B000044614B9002068616863204624B0BDE855
:1041C000F0874FF0FF34F8E72DE9FC4307466F29ED
:1041D0003E6908BF082405D041F02000782814BFAC
:1041E0000A2410243C25D7E90023642918BF692933
:1041F0009046994605D1002B03D5D8F1000869EB0C
:104200004909B9F1000F08BFB8F1000F1FD1386B91
:10421000E8B9082C4CD197F83800010748D5302070
:104220003B2586F83B0043E000280ED597F8380080
:1042300000F01400102808D17B6B7969386A5B1A8A
:104240001B1A9A1A002AC8BF3A62BDE8F3838DF898
:104250000010404649462246E31702F041FC303246
:10426000D0B26D1E3A28019504DB9DF80000A0F144
:1042700051018A187255404649462246E31702F01A
:104280002FFC80465FEA010908BFB8F1000F03D098
:10429000F86871198842DCD3082C09D197F83800E6
:1042A000010705D5705D302802D06D1E3020705595
:1042B000C5F13C02BA617119F960386B8242B3DA18
:1042C000821A3A624FF6EF70398F01403987BDE8A4
:1042D000F3832DE9D04306460F4614464FF00008FD
:1042E000DFF8109412E0E00707D542464B4630460F
:1042F000394602F00DFD06460F4640464946424605
:104300004B4602F005FD641080468946002CEAD138
:1043100030463946BDE8D0832DE9F84F05468A4638
:104320004AF020048EB0D5E90089612C02AE09D094
:10433000286B002848BF062003D408BF672C01D192
:1043400001202863D5E900014A005215521C0DD105
:104350000B030BD0AAF1610103201A29A86102D234
:104360000FF2CC6110E00FF2CC610DE04A00521563
:10437000521C0ED10B030CD1AAF1610103201A29A2
:10438000A86116D30FF2B461E8680322FCF7B2FF0C
:10439000C0E1CDE90C01DDE90C2323F00043B3F5C6
:1043A000801F0DD20027002B08BF002A019703D1E0
:1043B00011E00FF28461E7E701AA02F07BFD0AE059
:1043C000CD48CE4900EB1350DDE90C2301900B40A2
:1043D000CB4910461943C5E90001612C0DD1E868AD
:1043E00030210170821CBAF1610FEA600CBF7821A4
:1043F000582141706869801C6861D5E90001CDE9E8
:104400000C01DDE90C2333F0004104BF0028002338
:1044100000F04881612C40F0A080286B49460028BC
:104420004CBF4FF0210B00F1010B4046002200234E
:10443000DDE90C8902F076FD01990BF1010738BF27
:1044400089F00049091F002F01918DF808200DF116
:10445000090040F33581A949009106464046494686
:104460000022002302F076FD80F029814800400DF3
:1044700000F11C0211D0002A0FDD40F2FF739A42B6
:1044800005DBA04909F000400143002011E0009B3A
:10449000194041EA025140460BE028F0000039F093
:1044A000004108BF00280FBF49461C22494602F0C0
:1044B00069FD8046894602F003FEFF1F002F044677
:1044C00009DD02F01BFE02460B464046494602F05B
:1044D00027FE80468946F01D072104E004F00F0204
:1044E00000F8012D2411002C01DD491EF6D5491ECE
:1044F0005CBF002200F8012DF9D5DCE00020194650
:1045000002AA0A4400E05B1E12F80149491E8442D7
:10451000F9D00F2804D10DF10900425C521C42541D
:10452000002904D50198001D02AE5B1C0190581EA5
:104530000CD43118AAF13A040A783032D7B23A2FA3
:10454000A8BFA218401E01F80129F5D5286B002844
:1045500040F1A780591E2963A3E001996A4A47F2F6
:104560009750414391FBF2F2019229F00046D2F1BB
:10457000070204DD40463146FFF7ABFE0AE0524237
:1045800000206249FFF7A5FE02460B464046314631
:1045900002F038FE8046662C286B06BF019F0A3762
:1045A00006273F18142FC8BF142730208DF80800A5
:1045B00089460DF1090000E03046002F34DD064643
:1045C0004046494602F042FF01460A4606F108030A
:1045D00004200A26B2FBF6F606EB860EA2EB4E028C
:1045E000303203F8012C0A22B6FBF2F202EB820E03
:1045F000A6EB4E063036401E03F8026DE9D1083FA7
:10460000002F03F10806D7DD084602F033FF02460B
:104610000B464046494602F083FD00223C4B02F027
:1046200077FB80468946CBE70DF10901401A0DF171
:10463000090604E00199491E401E0191761C31785B
:104640003029F7D0662C02D10199491C03E0652C72
:104650000CBF012100212B6BCB189842B8BF431E21
:10466000002B1ED4834204DAF05C3528A8BF392021
:1046700000DA30201946721E02EB010800E05B1ED2
:1046800018F80199491E8145F9D0392802D1705C8A
:10469000401C7054002904D50198401C16465B1C30
:1046A0000190019800B200901BB232465146284654
:1046B00000F034F82EE0C61D002F3FF7CFAE304695
:1046C0000DF10901401A03465845C8BF5B46002B4F
:1046D0000DF109063FF53AAF8342BFF60FAF0DF17A
:1046E0000900C15C07297FF709AF0F2007E7000029
:1046F000CBCCCC0C0000244002FCFFFFFFFF0F805E
:104700000000E03F0000F07FA08601000000F03FC5
:1047100084D797410FB0BDE8F08F00002DE9F8472E
:1047200083B006468A461746984602F059F9B8F112
:10473000000F406A356B90F8009002DC4FF00108E2
:10474000BFA74AF02000BDF93040662808BF641CAE
:1047500015D0672840F0848014F1040FC0F28680E1
:10476000AC4280F2838096F83800641C010702D4C2
:10477000A845B8BF454620B22D1A48BF00250FFAFC
:1047800084FAF068B169BAF1000F25DC4A1C3023C5
:104790004354002D03DC96F83800010703D5F06878
:1047A00000F80290521C15EB0A0FB8BF6C4220B201
:1047B000441941424445B8BFA046B26171620FFA44
:1047C00088F5F561F068B3692A4639461844FCF764
:1047D00091FD641BB462C4E022B29045084417DA2C
:1047E00042463946FCF786FDB0694044B061AAEB09
:1047F0000801002D716203DC96F838100A0705D510
:10480000F16801F80090F069401CF061B562A8E021
:104810003946FCF76FFDB069002D5044A8EB040841
:1048200003DC96F838100A0703D5F16801F8009008
:10483000401CB0610FFA88F08542F368B069B8BFD8
:10484000A8460FFA88F207EB0A011844FCF752FD5C
:10485000B1690FFA88F00144B161281A706280E0F2
:10486000BAF1610F14D14FF0700A16E0A84504DACE
:1048700096F838100A0758BF45466D1E48BF0025F8
:10488000BAF1670F14BF4FF0450A4FF0650A04E014
:10489000BAF1410F08BF4FF0500AB169F368481CE4
:1048A000B061002D17F8012B5A5403DC96F838102C
:1048B0000A071BD5F168431CB36101F80090002D75
:1048C00014DDA8F101080FFA88F039468542F7682F
:1048D000B8BFA8460FFA88F2F818FCF70BFDB069CC
:1048E0000FFA88F108446D1AB0617562F068B16919
:1048F0000844002C80F800A003D42B224270811CB5
:1049000003E02D2141706442811C00206A460AE0C8
:1049100023460A2493FBF4F404EB8405A3EB45033C
:1049200002F8013B401C24B2002CF1DC012806DC1B
:104930004AF02002652A04BF302201F8012B48B951
:10494000302001F8010B07E0401E1DF80030303325
:1049500001F8013B0028F7DCF268B0691044091A3D
:10496000F16196F8380000F0140010280DD172693A
:10497000B169706A8A18F1698218B06A8A18821857
:10498000706B8242BCBF821A326204B0BDE8F0870D
:10499000F8B505460E4617461C46002074B117F8B8
:1049A000011BB068A847B06030B1F06A401CF062EB
:1049B0000020641EF3D1F2BD4FF0FF30F2BD0000C5
:1049C0007072696E74665F733A20256E2064697335
:1049D000616C6C6F776564007072696E74663A2002
:1049E00062616420256E20617267756D656E74006A
:1049F0007072696E74665F733A2062616420257319
:104A000020617267756D656E740000007072696E6A
:104A100074665F733A2062616420256C7320617252
:104A200067756D656E7400000000000000000000F6
:104A30006E616E004E414E00696E6600494E460042
:104A40003000000001480068704700BFE0170020F8
:104A500010B50400074800684FF47A71B0FBF1F01C
:104A6000FFF728F8002221005FF0FF30FFF707F87A
:104A7000002010BD1C00002080B52148016851F0C5
:104A800001010160006810F00100009000981D48CD
:104A9000016851F080510160006810F08050009072
:104AA00000980320FEF7E7FF002200217FF00B00B3
:104AB000FEF7E5FF002200217FF00A00FEF7DFFF8E
:104AC000002200217FF00900FEF7D9FF002200211B
:104AD0007FF00400FEF7D3FF002200217FF00300E7
:104AE000FEF7CDFF00220F217FF00100FEF7C7FF88
:104AF00000220F215FF0FF30FEF7C1FF01BD00BFB4
:104B00006010024058100240F8B402000024002057
:104B1000002036E0072704E0DFF85C339A42F9D141
:104B2000062714F00303DBB29B009F403E432300A3
:104B30009B0845F82360DFF844532B6883434E6895
:104B4000F60300D503432B60DFF834532B6883430F
:104B50004E68B60300D503432B60DFF828532B685B
:104B600083434E68F60200D503432B60DFF81853E9
:104B70002B6883434E68B60201D5184303002B60AF
:104B8000641C0868E040002800F0B4800125086833
:104B900015FA04F318400028F2D04B68022B02D01B
:104BA0004B68122B17D12300DB0802EB83031E6A2C
:104BB0000F2714F00703DBB29B009F40BE430F6931
:104BC00014F00703DBB29B009F403E432300DB0849
:104BD00002EB83031E62176803262300DBB25B002F
:104BE00016FA03F39F4391F804C01CF0030C230052
:104BF000DBB25B001CFA03FC5CEA070717604B683A
:104C0000012B08D04B68022B05D04B68112B02D02A
:104C10004B68122B1AD197682300DBB25B0016FA9F
:104C200003F39F43D1F80CC02300DBB25B001CFAF6
:104C300003FC5CEA07079760576815FA04F39F4383
:104C40004B68C3F30013A3401F4357600B7913F065
:104C50000303032B08D1D36AA540AB434D68C5F3CA
:104C6000C005A5402B43D362D5682300DBB25B00AF
:104C70009E40B5438E682300DBB25B009E40354307
:104C8000D5604B68DB007FF57BAF804B1D6855F02E
:104C900001051D601B6813F001030093009B7C4D10
:104CA00023009B0855F823600F2714F00303DBB2A1
:104CB0009B009F40BE43B2F1904F01D1002730E7E7
:104CC000744B9A4201D101272BE7734B9A4201D1D1
:104CD000022726E7714B9A4201D1032721E7704B47
:104CE0009A4201D104271CE76E4B9A427FF414AF1D
:104CF000052716E7F1BC7047F0B50200002400203C
:104D0000002031E05FF0070C04E05B4B9A42F9D1E0
:104D10005FF0060C14F00303DBB29B001CFA03FCEB
:104D2000674520D114F00303DBB29B0015FA03F3AF
:104D30002500AD0856F8255035EA03032500AD08D7
:104D400046F825304D4B1D6885431D604C4B1D6852
:104D500085431D604B4B1D6885431D604A4B1D6894
:104D600035EA00001860641C0800E040002878D094
:104D7000012616FA04F008400028F4D0032713682F
:104D80002500EDB26D0017FA05F52B4313600F25D2
:104D90002300DB0802EB8303A4465FEADC0C02EB92
:104DA0008C0CDCF820C014F0070E5FFA8EFE5FEA70
:104DB0008E0E15FA0EFE3CEA0E0CC3F820C0936866
:104DC000A4465FFA8CFC5FEA4C0C17FA0CFC33EA41
:104DD0000C039360D2F804C016FA04F33CEA030C07
:104DE000C2F804C0D2F80CC02300DBB25B009F40C5
:104DF0003CEA0707D760D36AA64033EA0606D662C4
:104E0000234E23009B0856F8237014F00303DBB2F3
:104E10009B0015FA03F31F40B2F1904F02D15FF0EF
:104E2000000C77E71B4B9A4202D15FF0010C71E74F
:104E3000194B9A4202D15FF0020C6BE7174B9A4272
:104E400002D15FF0030C65E7154B9A4202D15FF087
:104E5000040C5FE7134B9A427FF457AF5FF0050CE9
:104E600058E7F0BDD2B2002A02D089B2816101E0D8
:104E700089B28162704700000018004800040140B8
:104E800004040140080401400C0401406010024089
:104E9000080001400004004800080048000C0048D9
:104EA000001000480014004810B50400002C01D187
:104EB000012066E094F82100002805D1002084F844
:104EC00020002000FCF7DDFF022084F82100CA202A
:104ED00021684862532021684862200000F021FBCD
:104EE000002807D0FF2021684862042084F82100B0
:104EF000012046E020688168DFF8D805014020687D
:104F0000816020688168626820690243A069024369
:104F1000114320688160E0682168086120680069A9
:104F2000A16850EA0140216808612068C06830F03B
:104F300080002168C8602068806880060CD420004A
:104F400000F0D4FA002807D0FF202168486204202E
:104F500084F82100012014E02068C06C80088000E3
:104F60002168C8642068C16CE2696069024311432A
:104F70002068C164FF2021684862012084F8210074
:104F8000002010BDF8B504000D00002094F82000AA
:104F9000012801D1022084E0012084F820000220B1
:104FA00084F82100002A1BD120688068400601D4C3
:104FB0000020E870287800F0D1FA0700687800F047
:104FC000CDFA0600A87800F0C9FAFFB2F6B23602B0
:104FD00056EA0746C0B20643E87856EA004613E0B0
:104FE00020688068400603D5287800F0C3FA01E005
:104FF0000020E87028786E78360256EA0046A878D5
:105000000643E87856EA0046CA20216848625320E1
:1050100021684862200000F084FA00280AD0FF20AE
:1050200021684862042084F82100002084F82000D0
:10503000012036E0DFF8A004064020680660206802
:10504000806830F480202168886020688168EA6880
:10505000286902431143206881602068C06830F0ED
:1050600080002168C8602068806880060FD4200016
:1050700000F03CFA00280AD0FF2021684862042092
:1050800084F82100002084F82000012009E0FF209E
:1050900021684862012084F82100002084F8200063
:1050A0000020F2BD10B50C0000210168896A616022
:1050B000016809694904490CA16000680168DFF8CA
:1050C000180401400800000C10F03F002070080098
:1050D000000A10F07F00607011F07F00A070090CD2
:1050E00011F04001E170002A0BD1207800F042FA63
:1050F0002070607800F03EFA6070A07800F03AFA14
:10510000A070002010BDF8B504000D00002094F838
:105110002000012801D1022076E0012084F820003F
:10512000022084F82100002A07D16878C00604D53F
:10513000687810F0EF000A306870002A15D1E8781E
:1051400000F00CFA0700687800F008FA0600A8786A
:1051500000F004FAFFB2F6B2360256EA0746C0B2D1
:105160000643287856EA40360FE0687800F002FAE5
:10517000A87800F0FFF9E8786E78360256EA004623
:10518000A8780643287856EA4036CA202168486243
:10519000532021684862200000F0C3F900280AD09B
:1051A000FF2021684862042084F82100002084F850
:1051B0002000012028E0DFF8240306402068466034
:1051C0002068C06830F080002168C860206880686E
:1051D00080060FD4200000F089F900280AD0FF20B3
:1051E00021684862042084F82100002084F820000F
:1051F000012009E0FF2021684862012084F8210095
:10520000002084F820000020F2BD10B50C00002121
:1052100000684168DFF8C40201400800000CE0703B
:105220000800000A10F01F00607011F03F00A0702D
:10523000490B11F007012170002A0BD1E07800F032
:1052400099F9E070607800F095F96070A07800F04E
:1052500091F9A070002010BD2DE9F04104000D006F
:1052600000200020002094F82000012801D1022015
:10527000ECE0012084F82000022084F82100002ABC
:105280002CD120688068400601D40020E870E869CD
:105290000028FFD0287800F061F90700687800F056
:1052A0005DF90600A87800F059F9804695F82000CD
:1052B00000F054F9FFB2F6B2360256EA07465FFA3A
:1052C00088F858EA0606E97856EA0146C0B256EA76
:1052D0000066E86906436869064327E0206880683D
:1052E000400603D5287800F045F901E00020E87079
:1052F000E869002804D195F8200000F03BF903E0AC
:1053000095F8200000F036F928786E78360256EAD3
:105310000046A8780643E87856EA004695F820004B
:1053200056EA0066E8690643686906436F68A8693B
:105330000743CA2021684862532021684862686A8E
:10534000B0F5807F37D12068806830F480702168A4
:1053500088602068C06810F0800070F4C070216818
:10536000C860FFF76FFB05002068C068C00711D454
:10537000FFF768FB401B40F2E9318842F4D3FF207D
:1053800021684862032084F82100002084F820006E
:1053900003205BE02068C66120684764206880685D
:1053A00050F48070216888602068806850F48050D4
:1053B0002168886036E02068806830F400702168D9
:1053C00088602068C06810F0800070F42070216848
:1053D000C860FFF737FB05002068C068800711D45C
:1053E000FFF730FB401B40F2E9318842F4D3FF2045
:1053F00021684862032084F82100002084F82000FE
:10540000032023E0206806622068876420688068A3
:1054100050F40070216888602068806850F4005063
:10542000216888602E48016851F4802101602D4870
:10543000016851F480210160FF2021684862012049
:1054400084F82100002084F820000020BDE8F081CD
:1054500010B504005FF480202349086029E020682B
:10546000C068800531D520688068C0040ED52068EA
:10547000C068C0050AD52068C06810F0800070F4CC
:10548000C0702168C860200002F0C0F92068806800
:1054900080040ED52068C06880050AD52068C068E1
:1054A00010F0800070F420702168C860200002F0C5
:1054B00002FA20688068C00403D52068C068C0056F
:1054C000D1D4206880688004C9D4012084F82100E8
:1054D00010BD0000BFFF8FFF7F7F7F003FFFFF00F9
:1054E00000040140080401401404014038B50400E0
:1054F00000202068C06830F0A0002168C860FFF775
:10550000A1FA05002068C068800608D4FFF79AFA5F
:10551000401B40F2E9318842F4D3032000E0002030
:1055200032BD38B5040000202068C068400613D49E
:105530005FF0FF302168C860FFF784FA050020683B
:10554000C068400608D4FFF77DFA401B40F2E931FD
:105550008842F4D3032000E0002032BD002101E0A6
:10556000491C0A380200D2B20A2AF9DA50EA0110BC
:10557000C0B2704700210200D2B21209D2B20A2191
:105580004A43C0B210F00F008018C0B2704700004C
:1055900000230068503010EB810002607047002249
:1055A0000068503010EB81000068704710B50400AF
:1055B000002C01D101205AE0606A00280020A0627E
:1055C00094F85D00002805D1002084F85C002000DC
:1055D000FCF7ECFC022084F85D002068006830F0E5
:1055E00040002168086040F20172E068904201D3F7
:1055F000002101E04FF48051E068B0F5706F05D0F4
:10560000E068B0F5E06F01D00020A062206B0028B8
:1056100007D1E068904202D30220206301E001201C
:1056200020636268A0680243206902436069024304
:10563000A06910F400700243E0690243206A02434B
:10564000A06A024320680260A269120C12F00402F0
:10565000606A0243606B0243E068024311432068C2
:10566000416000202066012084F85D00002010BD0C
:105670002DE9F84306000D0091461C00002000278C
:1056800096F85C00012801D10220CBE0012086F8C9
:105690005C00FFF7D7F9804696F85D00012801D03D
:1056A0000227B7E0002D03D0484680B2002801D180
:1056B0000127AFE0032086F85D0000203066B56367
:1056C000A6F83C90A6F83E90002030640020A6F892
:1056D00044000020A6F84600002030650020F06459
:1056E000B068B0F5004F05D13068006850F48040D4
:1056F0003168086030680068400605D4306800688A
:1057000050F0400031680860F06840F20171884252
:1057100028D37068002802D0F08F01280ED1288885
:105720003168C860AD1CF08F401EF08706E0288805
:105730003168C860AD1CF08F401EF087F08F0028E4
:105740004FD0306880688007F1D4002C08D014F165
:10575000010FF3D0FFF776F9B0EB0800A042EDD3CC
:10576000032757E07068002802D0F08F012819D174
:10577000F08F022807D328883168C860AD1CF08FED
:10578000801EF0870EE02878316808736D1CF08F5A
:10579000401EF08706E028883168C860AD1CF08F95
:1057A000801EF087F08F00281BD03068806880074B
:1057B0000AD5F08F0228EED22878316808736D1C64
:1057C000F08F401EF087EDE7002C08D014F1010F98
:1057D000E8D0FFF737F9B0EB0800A042E2D3032787
:1057E00018E042462100300000F09BFB002801D069
:1057F00020203066B068002808D100200090306872
:10580000C06800903068806800900098306E002872
:1058100000D00127012086F85D00002086F85C009A
:105820003800C0B2BDE8F2832DE9F84306000D0050
:1058300091461C00002000277068B0F5827F0ED1D1
:10584000B06800280BD1042086F85D0000944B4618
:105850009BB22A002900300000F0ACF8A8E096F8CE
:105860005C00012801D10220A2E0012086F85C0042
:10587000FFF7E8F8804696F85D00012801D002277E
:105880008EE0002D03D0484680B2002801D10127C8
:1058900086E0042086F85D00002030663564A6F8B6
:1058A0004490A6F846900020B0630020B087002006
:1058B000F0870020F0640020306540F20170F1684C
:1058C000814206D33168496831F4805132685160B1
:1058D00005E03168496851F4805132685160B1681F
:1058E000B1F5004F05D13168096831F48041326863
:1058F000116031680968490605D43168096851F0BA
:10590000400132681160F168814227D208E03068B6
:10591000007B28706D1CB6F84600401EA6F84600B5
:10592000B6F8460000282ED030688068C007EED454
:10593000002C08D014F1010FF2D0FFF783F8B0EB80
:105940000800A042ECD303272AE03068C068288012
:10595000AD1CB6F84600401EA6F84600B6F8460054
:10596000002810D030688068C007EED4002C08D022
:1059700014F1010FF2D0FFF765F8B0EB0800A04278
:10598000ECD303270CE042462100300000F086FAF9
:10599000002801D020203066306E002800D001277A
:1059A000012086F85D00002086F85C003800C0B257
:1059B000BDE8F2832DE9F04707000E001500994677
:1059C00000200020002001245FF0000897F85C0010
:1059D000012801D1022027E1012087F85C00FFF7B0
:1059E00031F8824697F85D10786801290AD0B0F541
:1059F000827F04D1B868002801D1042902D05FF069
:105A0000020809E1002E05D0002D03D0484680B2DF
:105A1000002802D15FF00108FEE097F85D0004283D
:105A200002D0052087F85D00002038663D64A7F8A5
:105A30004690A7F84490BE63A7F83E90A7F83C9024
:105A40000020F8640020386540F20170F968814256
:105A500003D2B7F84610022906D33968496831F4F1
:105A600080513A68516005E03968496851F48051C5
:105A70003A68516039680968490605D43968096887
:105A800051F040013A681160DDF82090F9688142D8
:105A900043D37868002802D0F88F012806D13088D7
:105AA0003968C860B61CF88F401EF887F88F002848
:105AB00004D1B7F84600002800F0A080002C0ED0DA
:105AC000F88F00280BD038688068800707D53088A9
:105AD0003968C860B61CF88F401EF8870024B7F8F4
